S123000000000320C1660000A71B00006B240000E3240000473300007F330000000000000E
S1230020000000000000000000000000011C0000A749000000000000A91B0000BF1200001A
S1230040116B0000196B0000216B0000296B0000316B0000396B0000416B0000496B0000DC
S1230060516B0000596B0000616B0000696B0000716B0000796B0000816B0000896B0000BC
S1230080916B00006D6C00006D6C00006D6C00006D6C00006D6C00006D6C00006D6C000071
S12300A0996B0000A16B0000A96B0000B16B0000B96B0000C16B00006D6C0000C96B00009F
S12300C0D16B0000D96B0000E16B0000E96B0000F16B0000F96B0000016C00006D6C0000F6
S12300E06D6C00006D6C00006D6C00006D6C00006D6C00006D6C00006D6C00006D6C000034
S12301006D6C00006D6C00006D6C00006D6C00006D6C00006D6C00006D6C00006D6C000013
S12301206D6C00006D6C00006D6C00006D6C00006D6C00000B5D00006D6C00006D6C000064
S12301406D6C0000096C0000116C0000196C0000216C0000296C00006D6C00006D6C000077
S12301606D6C00006D6C0000316C00006D6C00006D6C00006D6C00006D6C00006D6C0000EF
S12301806D6C00006D6C00006D6C00006D6C00006D6C00006D6C00006D6C00006D6C000093
S12301A06D6C00006D6C00006D6C00006D6C00006D6C00006D6C00006D6C00006D6C000073
S12301C06D6C00006D6C00006D6C00006D6C00006D6C00006D6C00006D6C00006D6C000053
S12301E06D6C00006D6C00006D6C00006D6C00006D6C00006D6C00006D6C00006D6C000033
S12302006D6C00006D6C00006D6C00006D6C00006D6C00006D6C00006D6C00006D6C000012
S12302206D6C00006D6C00006D6C00006D6C00006D6C00006D6C00006D6C00006D6C0000F2
S12302406D6C00006D6C00006D6C00006D6C00006D6C00006D6C00006D6C00006D6C0000D2
S12302606D6C00006D6C00006D6C00006D6C00006D6C00006D6C00006D6C00006D6C0000B2
S12302806D6C00006D6C00006D6C00006D6C00006D6C00006D6C00006D6C00006D6C000092
S12302A06D6C00006D6C00006D6C00006D6C00006D6C00006D6C00006D6C00006D6C000072
S12302C06D6C00006D6C00006D6C00006D6C00006D6C00006D6C00006D6C00006D6C000052
S12302E06D6C00006D6C00006D6C00006D6C00006D6C00006D6C00006D6C00006D6C000032
S12303006D6C00006D6C00006D6C00006D6C00006D6C00006D6C00006D6C00006D6C000011
S12303206D6C00006D6C00006D6C00006D6C00006D6C00006D6C00006D6C00006D6C0000F1
S12303406D6C00006D6C00006D6C00006D6C00006D6C00006D6C00006D6C00006D6C0000D1
S12303606D6C00006D6C00006D6C00006D6C00006D6C00006D6C00006D6C00006D6C0000B1
S12303806D6C00006D6C00006D6C00006D6C00006D6C00006D6C00006D6C00006D6C000091
S12303A06D6C00006D6C00006D6C00006D6C00006D6C00006D6C00006D6C00006D6C000071
S12303C06D6C00006D6C00006D6C00006D6C00006D6C00006D6C00006D6C00006D6C000051
S12303E06D6C00006D6C00006D6C00006D6C00006D6C00006D6C00006D6C0000FFFFFFFF0E
S1230400FFFFFFFFFFFFFFFFFFFFFFFFFEFFFFFF2DE9F04782B005000E001700984628003A
S1230420002807D1502080F31188BFF34F8FBFF36F8FFEE70A9C092C07D3502080F31188E6
S1230440BFF34F8FBFF36F8FFEE70C99380080B200F02CFD8146B9F1000F79D0D9F8300081
S1230460BFB200EB8700B0F1040A5FEADA0A5FEACA0A1AF00700002807D0502080F3118810
S1230480BFF34F8FBFF36F8FFEE7BFB200970D9B22003100484600F055FC4246290050461A
S12304A000F04AFEC9F800000B98002801D0C0F8009000F0CEFEDFF888060068401CDFF89F
S12304C080160860DFF87C06006800280BD1DFF87406C0F80090DFF868060068012811D104
S12304E000F05CFC0EE0DFF860060068002809D1DFF850060068C06A844203D3DFF844069F
S1230500C0F80090DFF844060068401CDFF83C160860DFF838060068C9F84000DFF830068E
S123052000680121D9F82C2091400843DFF82016086019F10401DFF81C06D9F82C20142323
S12305405A43104400F036FF012500F09FFE01E05FF0FF35012D13D1DFF8EC050068002800
S12305600ED0DFF8E0050068C06AA04208D25FF08050DFF8CC170860BFF34F8FBFF36F8F0E
S12305802800BDE8F68710B504000020002C2ED0DFF8F4060068002807D0502080F3118846
S12305A0BFF34F8FBFF36F8FFEE700F0D2F8DFF8680700682418DFF88C050068001D00F091
S12305C020FF00280ED1DFF87C050068DFF8801509680122C06A12FA00F031EA0000DFF819
S12305E070150860200000F037FC00F0BAF8002808D15FF08050DFF8AC180860BFF34F8F72
S1230600BFF36F8F10BD10B5040000F022FE002C03D1DFF830050468FFE7201D00F0F1FE06
S1230620002811D1DFF82C05E16A142251434058002809D1DFF8180500680121E26A91405A
S12306408843DFF80C150860A06A002803D014F1180000F0D6FE211DDFF84C0800F0AAFE84
S123066000F014FEDFF8DC04006884422BD1DFF8D8040068002816D0DFF80C0600680028F1
S123068007D0502080F31188BFF34F8FBFF36F8FFEE75FF08050DFF8A8160860BFF34F8F32
S12306A0BFF36F8F1AE0DFF800080068DFF890140968884204D10020DFF8881408600DE0D2
S12306C000F055F90AE0DFF880040068002805D000F0BFFD00F018FC00F0D8FD10BD00B537
S12306E085B00020039000200290002001900020009000235A22DFF800190FF22160FFF7F4
S123070087FE012801D100F08FFE012817D1502080F31188BFF34F8FBFF36F8F5FF0FF308D
S1230720DFF8901908600120DFF81C1408600020DFF8E415086000F026FD05B000BD002838
S1230740FBD1502080F31188BFF34F8FBFF36F8FFEE7DFF834050068401CDFF82C150860D4
S1230760704738B50024DFF820050068002807D1502080F31188BFF34F8FBFF36F8FFEE7A8
S123078000F067FDDFF800050068401EDFF8F8140860DFF8F404006800285CD1DFF8A0030E
S12307A00068002829D156E0DFF80409C068C56815F1180000F025FE281D00F022FEDFF8DF
S12307C0900300680121EA6A91400843DFF880130860291DDFF87C03EA6A14235A4310449E
S12307E000F0E8FDE86ADFF85C130968C96A884203D30120DFF80C190860DFF8B4080068C4
S12308000028D1D1DFF8EC08006800280FD113E000F029F8002803D00120DFF8E818086070
S1230820DFF8D0080068401EDFF8C8180860DFF8C40800680028EBD1DFF8C80800680128F9
S123084009D101245FF08050DFF858160860BFF34F8FBFF36F8F00F019FD200032BDDFF89D
S1230860B8040068704770B50024DFF81C04006800286DD1DFF8A0040068401CDFF89814C9
S12308800860DFF894040568002D22D1DFF8680800680068002807D0502080F31188BFF3AC
S12308A04F8FBFF36F8FFEE7DFF84C080068DFF84C180968DFF840281160DFF8401808603B
S12308C0DFF83C080068401CDFF83418086000F01BFBDFF8E0070068854240D320E0301D57
S12308E000F08FFDB06A002803D016F1180000F088FD974800680121F26A91400843944911
S12309000860311D9348F26A14235A43104400F051FDF06A8B490968C96A884200D30124EC
S1230920DFF8D40700680068002805D15FF0FF30DFF88017086012E0DFF8BC070068C068C3
S1230940C66870688542CAD2DFF86817086006E0DFF8A0070068401CDFF898170860DFF87F
S1230960A4070068002800D00124200070BDC6480068002804D00120DFF8881708602BE07A
S12309800020DFF88017086071480068B0FA80F0D0F11F006F49142202FB00F2895800295B
S12309A007D1502080F31188BFF34F8FBFF36F8FFEE76849142250430844416849684160F9
S12309C0416810F10802914202D14168496841604068C0685B490860704710B50C00002832
S12309E007D1502080F31188BFF34F8FBFF36F8FFEE754490968183100F0E8FC514800684E
S1230A00001D00F0FEFC00280BD14E480068504909680122C06A12FA00F031EA00004C49C6
S1230A20086014F1010F07D146480068011DDFF8780400F0BFFC04E0B7480068201800F0D8
S1230A400BFA10BD10B51400002807D1502080F31188BFF34F8FBFF36F8FFEE78A4A1268F8
S1230A60002A07D1502080F31188BFF34F8FBFF36F8FFEE751F00041324A126891613149EB
S1230A800968183100F096FC2E480068001D00F0B8FC00280BD12B4800682D49096801228E
S1230AA0C06A12FA00F031EA00002949086014F1010F07D123480068011DDFF8EC0300F083
S1230AC079FC05E0DFF844060068201800F0C4F910BD38B50C001500002807D1502080F38C
S1230AE01188BFF34F8FBFF36F8FFEE715490968183100F05FFC13480068001D00F081FC84
S1230B0000280BD10F480068114909680122C06A12FA00F031EA00000D490860012D07D11B
S1230B2008480068011DDFF8800300F043FC05E0DFF8D8050068201800F08EF931BD0000B4
S1230B4084F3FF1F5CF2FF1F90F3FF1FA0F3FF1F8CF3FF1F60F2FF1F10B5C068C468002CEC
S1230B6007D1502080F31188BFF34F8FBFF36F8FFEE714F1180000F044FC43480068002890
S1230B8016D1201D00F03DFCDFF87C0500680121E26A91400843DFF870150860211DDFF8E1
S1230BA07005E26A14235A43104400F003FC05E014F11801DFF8F80400F0FCFBDFF854056C
S1230BC00068C06AE16A884205D201200121DFF83425116000E0002010BD10B52A4A12682F
S1230BE0002A07D1502080F31188BFF34F8FBFF36F8FFEE751F000410160C468002C07D13B
S1230C00502080F31188BFF34F8FBFF36F8FFEE700F0F7FB201D00F0F4FBDFF8EC04006802
S1230C200121E26A91400843DFF8DC140860211DDFF8DC04E26A14235A43104400F0BAFBE9
S1230C40DFF8D0040068C06AE16A884205D201200121DFF8B024116000E0002010BD00003B
S1230C60002807D1502080F31188BFF34F8FBFF36F8FFEE7DFF8881409680160DFF88C1413
S1230C800968416070470000A8F3FF1F38B504000D00002C07D1502080F31188BFF34F8FC0
S1230CA0BFF36F8FFEE7002D07D1502080F31188BFF34F8FBFF36F8FFEE700F0CAFA1648E3
S1230CC00068296811F1010F01D100241AE0DFF8301409682268914204D06168884201D3F1
S1230CE001240FE06168411A2A68914209D22968081A6168081828602000FFF7B1FF00246A
S1230D0000E0012400F0C2FA200032BD0120DFF8F41308607047000088F3FF1F80B500F033
S1230D2069F8DFF8EC0300680228F8D35FF08050DFF8E4130860BFF34F8FBFF36F8FEEE7C1
S1230D4004ED00E038B504001500002000E0401C0A2807D20A5C04EB000383F834200A5CC4
S1230D60002AF4D1002084F83D00092D00D30825E562A5640020E064201D00F018FB14F178
S1230D80180000F014FB2461D5F10900A061646200202065002084F8540031BD10B50024B1
S1230DA008E0DFF86C03142101FB04F1084400F0EFFA641C092CF4D3DFF8600300F0E8FA2E
S1230DC0DFF85C0300F0E4FADFF8E40200F0E0FADFF8500300F0DCFA334800F0D9FADFF87F
S1230DE03C03DFF814130860DFF83403DFF80C13086010BD10B520E00024FFF7B2FC002C58
S1230E001BD100F026FADFF81C03C068C468201D00F0F7FADFF810030068401EDFF80813C8
S1230E200860DFF808030068401EDFF80013086000F02CFA200000F05EF8DFF8F00200689F
S1230E40002808D0FFF785FCDFF8D80200680028D2D10124D1E710BD10B50400DFF8B40233
S1230E6000684460DFF8A4020068844209D2DFF8A4020068011DDFF88402006800F0A6FA84
S1230E800EE0DFF890020068011DDFF86C02006800F09CFA87480068844201D2854804603D
S1230EA010BD000004ED00E070F3FF1F70B504000D00002D05D1A4B2A00000F011FD0500DD
S1230EC0FFE7002D0BD0582000F00AFD0600002E01D0356304E0280000F088FD00E000268D
S1230EE0002E06D0A4B2A100A522346B200000F027FE300070BD10B50400206B00F076FD44
S1230F00200000F073FD10BDDFF8EC0100680068002804D15FF0FF306649086007E0DFF89C
S1230F20D8010068C068C0684068624908607047DFF8FC010068002801D1012007E0DFF895
S1230F40F4010068002801D1022000E00020704710B50400002C4ED0E06ADFF8B8110968EF
S1230F60C96A884247D2A069002806D4DFF8A4010068C06AD0F10900A0616069DFF8901132
S1230F80E26A14235A43114488422FD1201D00F038FA002811D1DFF87801E16A1422514340
S1230FA04058002809D1DFF8600100680121E26A91408843DFF850110860DFF858010068B1
S1230FC0C06AE062DFF8400100680121E26A91400843DFF834110860211DDFF83401E26A7D
S1230FE014235A43104400F0E5F904E0DFF824010068C06AE06210BDF86A000010B504004B
S12310000020002C52D0DFF80C1109688C4207D0502080F31188BFF34F8FBFF36F8FFEE7B3
S1231020E16C002907D1502080F31188BFF34F8FBFF36F8FFEE7E16C491EE164E16AA26C6B
S1231040914233D0E16C002930D1201D00F0D9F9002811D1DFF8B800E16A142251434058FA
S1231060002809D1DFF8A00000680121E26A91408843DFF894100860A06CE062E06AD0F145
S12310800900A061DFF8800000680121E26A91400843DFF874100860211DDFF87400E26A61
S12310A014235A43104400F085F9012010BD000044F3FF1FA4F3FF1FDFF85800006880691E
S12310C0DFF850100968DFF84C201268D26AD2F109028A617047DFF83C000068002805D083
S12310E0DFF830000068C16C491CC164DFF824000068704794F3FF1F3CF3FF1F40F3FF1F69
S12311009CF3FF1F98F3FF1F8CF3FF1F88F3FF1F60F2FF1F5CF2FF1F04ED00E014F3FF1F6D
S123112028F3FF1F58F3FF1F84F3FF1F6CF3FF1F90F3FF1FA8F3FF1F001F5FF080730360D9
S1231140001F0160001F0FF21501016014380260001F7FF00201016020387047764800689F
S123116010F1010F07D0502080F31188BFF34F8FBFF36F8FFEE7502080F31188BFF34F8FD6
S1231180BFF36F8FFEE700B583B06C4800686C49884207D1502080F31188BFF34F8FBFF39D
S12311A06F8FFEE7654800686649884207D1502080F31188BFF34F8FBFF36F8FFEE7624897
S12311C001780191FF21017001788DF800109DF8001011F050015D4A117007215C4A116003
S12311E009E05B490968491E594A11609DF8001049008DF800109DF800100906F1D45449D9
S123120009680902524A11605149096811F4E0614F4A1160019901704E48006850F4700029
S12312204C4908604B48006850F070404949086000F09AF800204049086000F0FBFC4648C0
S1231240006850F040404449086000F0E7FC00200EBD502080F31188BFF34F8FBFF36F8FF3
S123126035480068401C344908603348006801280BD13A480068000607D0502080F3118819
S1231280BFF34F8FBFF36F8FFEE770472A480068002807D1502080F31188BFF34F8FBFF3D6
S12312A06F8FFEE724480068401E2349086022480068002802D1002080F31188704780B55C
S12312C0EFF31180502080F31188BFF34F8FBFF36F8FFFF7C8FA002803D05FF080501F49A1
S12312E00860002080F3118801BD0000EFF3058010280FD31A490968085C14490978C0B28F
S1231300884207D2502080F31188BFF34F8FBFF36F8FFEE70E4800681249096811F4E061B5
S1231320884207D2502080F31188BFF34F8FBFF36F8FFEE7704700000800FF1F00ED00E0BB
S123134071C20F4170C20F4100E400E0E4F3FF1FB0F0FF1F20ED00E034EF00E004ED00E04C
S1231360606C00000CED00E0064800684FF47A71B0FBF1F0401E0449086007200349086066
S1231380704700BF2C00FF1F14E000E010E000E010F1080141605FF0FF31816010F10801D0
S12313A0C16010F10801016100210160704700210161704742684A6093688B60936859603B
S12313C0916008610168491C0160704710B40B6813F1010F01D1026907E010F1080200E06F
S12313E0526854682468A342FAD253684B604B6899608A60516008610168491C016010BC25
S123140070470169826843689A60426883685A604A68824201D182684A60002202610868F8
S1231420401E0860086870471FB5002400F003FADFF888040068002810D000200390002030
S1231440029000200190082000900023B422DFF870140FF25110FEF7DBFF0400002C07D100
S1231460502080F31188BFF34F8FBFF36F8FFEE7200004B010BD2DE9F04104000D001600B8
S12314801F00002D02D15FF0000817E02C2000F027FA8046B8F1000F10D000F0CCF9C8F8AB
S12314A00040C8F81850C8F81C60C8F820700698C8F8240018F10400FFF779FF002D07D132
S12314C0502080F31188BFF34F8FBFF36F8FFEE74046BDE8F08130B585B004001D00002070
S12314E0002C07D1502080F31188BFF34F8FBFF36F8FFEE7DFF8C4331B68002B22D0009144
S123150001920294062915DAFFF712FD022808D10023089A6946DFF8A403006800F049FCE9
S123152010E0002300226946DFF89003006800F040FC07E000232A006946DFF88003006820
S123154000F0FEFC05B030BD70B582B004000D00DFF870030068C068C668301DFFF751FFF8
S1231560F06901281AD123002A00B0690119300000F086F8012811D10020009000232200DC
S123158000213000FFF7A7FF002807D1502080F31188BFF34F8FBFF36F8FFEE73000716AAE
S12315A0884773BD80B5684600F041F8009900F003F800F084F8F6E770B582B004000D00E7
S12315C0FFF7C7F8684600F047F80600009800282AD1002D08D1A64206D3FFF7C2F831000C
S12315E02000FFF7B1FF21E0002D08D0DFF8D80200680068002801D1012500E000252A004B
S1231600A11BDFF8B802006800F00EFFFFF7A9F800280BD15FF08050DFF8B0120860BFF3A7
S12316204F8FBFF36F8F01E0FFF79BF873BDDFF8941209680968002901D1012100E0002101
S1231640C9B201600068002804D19E480068C068006800E00020704738B50400FFF7FFF8D2
S123166005009B480068854204D200F0A5F80120206001E00020206095480560280032BD71
S123168010B50024416000618A420BD3D11A8269914201D3012410E0011D8B480068FFF7D0
S12316A095FE0AE09A4203D2994201D3012404E0011D84480068FFF789FE200010BD10B5BF
S12316C086B0FFE70023002201A97C48006800F0F8FC00286ED0019800280ED502AA002A0B
S12316E007D1502080F31188BFF34F8FBFF36F8FFEE7916850681268904701980028E1D4F5
S1231700039C6069002802D0201DFFF77AFE05A8FFF7A2FF0200019800280ED002280CD0CD
S12317200BD304282DD02BD3062806D03DD3082826D002D3092824D03BE0029B0298A16910
S123174009182000FFF79CFF0128BBD12000616A8847E0690128B5D10020009000230298DF
S1231760A1690A1800212000FFF7B5FE0028A9D1502080F31188BFF34F8FBFF36F8FFEE70C
S1231780A0E70298A061A069002807D1502080F31188BFF34F8FBFF36F8FFEE71300A0695D
S12317A081182000FFF76CFF8CE7200000F01EF988E787E706B010BD38B506E068602D61E8
S12317C0291D40480068FFF701FE3E4800680068002827D03B480068C068046839480068FD
S12317E0C068C568281DFFF70CFE2800696A8847E8690128E9D1A86900198442DED300208C
S123180000900023220000212800FFF764FE002807D1502080F31188BFF34F8FBFF36F8F92
S1231820FEE7D2E72748006827490968254A11602549086031BD80B5FFF70BFD1F480068A8
S1231840002827D12348FFF7A3FD2348FFF7A0FD20481C49086020481B49086000221021A9
S12318600A2000F03CFA1549086014480068002807D1502080F31188BFF34F8FBFF36F8FCE
S1231880FEE70E480068002804D014490B48006800F0A3FDFFF7FAFC01BD1FB51C007FF0F4
S12318A0010300930190029103920023220069460248006800F044FB04B010BDDCF3FF1F91
S12318C0006B0000D4F3FF1FD8F3FF1F04ED00E0E0F3FF1FACF3FF1FC0F3FF1F086B000008
S12318E070B505000024FEF734FF8E480068002801D100F0B6F88C480068054266D1002DB1
S123190015D08A480068451915F0070F0FD015F1080015F00701451A15F0070F07D0502070
S123192080F31188BFF34F8FBFF36F8FFEE7002D4CD07F480068A84248D37E487D490E68F3
S123194001E0300036687168A94202D231680029F7D1744909688E4238D00168734A12680C
S123196001EB0204316801607048006840007168491B884213D206EB050010F00701002904
S123198007D0502080F31188BFF34F8FBFF36F8FFEE77168491B4160756000F094F86448F0
S12319A000687168401A624908606148006862490968884203D25E4800685F4908607068B3
S12319C0594909680843706000203060FEF7C9FE14F00700002807D0502080F31188BFF331
S12319E04F8FBFF36F8FFEE7200070BD10B50400002C35D04D4800684042044460684A4907
S1231A000968084207D1502080F31188BFF34F8FBFF36F8FFEE72068002807D0502080F324
S1231A201188BFF34F8FBFF36F8FFEE760683E490968084214D02068002811D160683A4919
S1231A40096888436060FEF784FE394800686168081837490860200000F035F8FEF781FEA4
S1231A6010BD4FF47042354911F0070F05D0C91DC908C900501A314A121808002D490860C1
S1231A8000212C4B59601118284A1268891AC908C900244A11600022224B1B685A600022D2
S1231AA0204B1B681A60091A41601E49096801604168214A116040681D4908605FF0004033
S1231AC01949086070471B4900E009680A688242FBD30A004B681A44824204D14A684068BA
S1231AE0801848600800020043681A440B689A4211D10A680B4B1B689A4208D042680B6842
S1231B005B689A1842600A681268026005E0054A1268026001E00A680260814200D008609C
S1231B2070470000A0F0FF1FACF0FF1F406C0000A4F0FF1F98F0FF1FA8F0FF1F9800FF1F12
S1231B4062F30F2262F31F42401810F0030308D0C91A1FD3DB0748BF00F8012D28BF20F82C
S1231B60022D130030B414461546103928BF20E93C00FAD8490728BF20E90C0048BF40F8B4
S1231B80042D890028BF20F8022D48BF00F8012D30BC7047C91818BF00F8012DCB0728BFF2
S1231BA000F8012D7047FEE7EFF30980BFF36F8F244B1A681EF0100F08BF20ED108A20E9AF
S1231BC0F04F106008B44FF0500080F31188BFF34F8FBFF36F8FFEF7CAFE4FF0000080F34C
S1231BE0118808BC19680868B0E8F04F1EF0100F08BFB0EC108A80F30988BFF36F8F704727
S1231C00104B19680868B0E8F04F80F30988BFF36F8F4FF0000080F3118870470A4800682D
S1231C20006880F3088862B661B6BFF34F8FBFF36F8F00DFDFF81400016841F4700101608C
S1231C40704700005CF2FF1F08ED00E088ED00E038B505000C00002D07D1502080F31188B4
S1231C60BFF34F8FBFF36F8FFEE7FFF7F2FA2868E96B2A6C5143084468600020A86328687C
S1231C80A8602868E96B491E2A6C51430844E8605FF0FF3068645FF0FF30A864002C12D14C
S1231CA02869002817D015F11000FEF755FF012811D15FF08050DFF868170860BFF34F8FA9
S1231CC0BFF36F8F07E015F11000FFF761FB15F12400FFF75DFBFFF7D9FA012032BD2DE99A
S1231CE0F04104000D0016005FF00008002C07D1502080F31188BFF34F8FBFF36F8FFEE78C
S1231D00002D01D1002002E005FB04F0401C5430FFF7E6FD0700002F0FD0002D01D13F605E
S1231D2002E017F154003860FC633D6401213800FFF78EFF87F85060B846B8F1000F07D12F
S1231D40502080F31188BFF34F8FBFF36F8FFEE74046BDE8F08138B504005420FFF7C0FD2A
S1231D600500002D23D000206860002028600020A8600020E8600020A8630120E863002063
S1231D8028645FF0FF3068645FF0FF30A86485F8504015F11000FFF7FBFA15F12400FFF7B1
S1231DA0F7FA002300220021280000F002F8280032BDF7B504000D001E000027002C07D199
S1231DC0502080F31188BFF34F8FBFF36F8FFEE7002D02D1206C002801D1012000E00020B7
S1231DE0C0B2002807D1502080F31188BFF34F8FBFF36F8FFEE7022E02D1E06B012801D183
S1231E00012000E00020C0B2002807D1502080F31188BFF34F8FBFF36F8FFEE7FFF788F814
S1231E20002802D10298002801D1012000E00020C0B200280CD1502080F31188BFF34F8F6B
S1231E40BFF36F8FFEE7200000F075FAFEF789FCFFF7FFF9A06BE16B884201D3022E26D1E6
S1231E6032002900200000F00EFA616A00290FD014F12400FEF770FE012814D15FF080505F
S1231E80DFF89C150860BFF34F8FBFF36F8F0AE0002808D05FF08050DFF884150860BFF37B
S1231EA04F8FBFF36F8FFFF7F1F9012047E00298002803D1FFF7EAF9002040E0002F03D1B6
S1231EC06846FEF7CDFE0127FFF7E0F9FEF741FCFFF7BFF9606C10F1010F01D10020606426
S1231EE0A06C10F1010F01D10020A064FFF7CEF902A96846FEF7CAFE00281AD1200000F0D5
S1231F005DFA00289FD0029914F11000FEF765FD200000F010FAFEF724FC002898D15FF0B9
S1231F208050DFF8FC140860BFF34F8FBFF36F8F8EE7200000F0FFF9FEF713FC0020FEBDE2
S1231F402DE9F04105000E0014001F00002D07D1502080F31188BFF34F8FBFF36F8FFEE74A
S1231F60002E02D1286C002801D1012000E00020C0B2002807D1502080F31188BFF34F8F2F
S1231F80BFF36F8FFEE7022F02D1E86B012801D1012000E00020C0B2002807D1502080F3E0
S1231FA01188BFF34F8FBFF36F8FFEE7FFF79EF9EFF31188502080F31188BFF34F8FBFF399
S1231FC06F8FA86BE96B884201D3022F1BD13A003100280000F057F9A86C10F1010F0DD107
S1231FE0686A00280DD015F12400FEF7B5FD002807D0002C05D00120206002E0A86C401C42
S1232000A864012000E0002088F31188BDE8F08170B505000C00002D07D1502080F31188AE
S1232020BFF34F8FBFF36F8FFEE7286C002807D0502080F31188BFF34F8FBFF36F8FFEE743
S12320402868002802D16868002801D1012000E00020C0B2002807D1502080F31188BFF366
S12320604F8FBFF36F8FFEE7FFF740F9EFF31186502080F31188BFF34F8FBFF36F8FA86B72
S1232080E96B884219D2A86B401CA863A86C10F1010F0DD1686A00280DD015F12400FEF7C0
S12320A05BFD002807D0002C05D00120206002E0A86C401CA864012000E0002086F3118892
S12320C070BDF7B506000C001D000027002E07D1502080F31188BFF34F8FBFF36F8FFEE726
S12320E0002C02D1306C002801D1012000E00020C0B2002807D1502080F31188BFF34F8FA8
S1232100BFF36F8FFEE7FEF713FF002802D10298002801D1012000E00020C0B200280CD1F8
S1232120502080F31188BFF34F8FBFF36F8FFEE7300000F000F9FEF714FBFFF78AF8B06B4A
S1232140002839D0F7682100300000F0DFF8002D1BD1B06B401EB0633068002802D1FEF7A6
S1232160BAFF70603069002822D016F11000FEF7F3FC01281CD15FF08050DFF8A4120860FA
S1232180BFF34F8FBFF36F8F12E0F760706A00280ED016F12400FEF7DFFC002808D05FF088
S12321A08050DFF87C120860BFF34F8FBFF36F8FFFF76CF8012052E00298002803D1FFF705
S12321C065F800204BE0002F03D16846FEF748FD0127FFF75BF8FEF7BCFAFFF73AF8706C48
S12321E010F1010F01D100207064B06C10F1010F01D10020B064FFF749F802A96846FEF74C
S123220045FD002825D1300000F0CAF800288FD03068002806D1FFF71CF87068FEF798FEED
S1232220FFF734F8029916F12400FEF7D6FB300000F081F8FEF795FA00287FF47EAF5FF0B8
S12322408050DFF8DC110860BFF34F8FBFF36F8F73E7300000F06FF8FEF783FA0020FEBD10
S123226010B50400002C07D1502080F31188BFF34F8FBFF36F8FFEE7200000F0C0F8200004
S1232280FFF7B4FB10BDF8B5040016000025206C002809D12068002833D16068FEF7AEFE31
S12322A00500002060602CE0002E0FD1226CA668300000F0DBF8A068216C0844A060A068A3
S12322C0616888421DD32068A0601AE0226CE768380000F0CBF8E068216C49420844E06041
S12322E0E0682168884204D26068216C49420844E060022E05D1A06B002802D0A06B401E89
S1232300A063A06B401CA0632800F2BD10B50C00016C00290ED0C168026C1144C160C168FA
S12323204268914201D30168C160026CC168200000F09CF810BD10B50400FEF78AFF0AE085
S123234014F12400FEF708FC002801D0FEF7DEFCA06C401EA064A06C012802DB606A00281D
S1232360EED15FF0FF30A064FEF790FFFEF771FF0AE014F11000FEF7EFFB002801D0FEF763
S1232380C5FC606C401E6064606C012802DB20690028EED15FF0FF306064FEF777FF10BDCE
S12323A010B50400FEF755FFA06B002801D1012400E00024FEF76AFF200010BD10B50400C5
S12323C0FEF747FFA06BE16B884201D1012400E00024FEF75BFF200010BD002200E0521CF6
S12323E0082A0BD20F4B53F83230002BF7D10D4B43F832100B4901EBC20148607047002178
S123240000E0491C082909D2064A02EBC10252688242F6D10020034A42F831007047000093
S123242004ED00E0B4F0FF1F70B504000D001600FEF70FFF606C10F1010F01D10020606423
S1232440A06C10F1010F01D10020A064FEF71EFFA06B002805D13200290014F12400FEF7D1
S123246038FB2000FFF767FF70BDFEE762B38B0708D0521E11F8013B00F8013B00F024809B
S12324808B07F6D1830740F0208000BF103A07D330B4B1E83810103AA0E83810F9D230BC0C
S12324A0530724BFB1E80810A0E8081044BF51F8043B40F8043BD20724BF31F8022B20F85E
S12324C0022B44BF0B7803707047083A07D3B1E80810083A40F8043B40F804CBF7D253076B
S12324E0E4E7FEE7012110F01F029140DFF8C02940B2400942F820107047010C01F1804138
S123250011F58E210A68012313FA00F010430860704780B540B2FFF7E5FF01BDEFF31080CC
S123252072B6704780F31088704710B50621002400E0641C8C4205D2DFF8582952F82420FB
S12325408242F6D18C4208D3A722DFF86819DFF8680900F0E1FCAFF30080200010BD10B539
S12325600400002C08D1AF22DFF84819DFF84C0900F0D2FCAFF30080208C618C80B28842A4
S123258006D2208CE16911FA80F0618C401A03E0208C80B2618C401A10BD10B50400002CDD
S12325A008D1C122DFF80C19DFF8100900F0B4FCAFF300802000FFF7D2FFE169491E88424B
S12325C001D1012000E00020C0B210BD2DE9F04104000D001600002D08D1D322DFF8D41899
S12325E0DFF8DC0800F098FCAFF300802868002808D1D422DFF8BC18DFF8C80800F08CFC25
S1232600AFF30080DFF8C008844201D108201FE0DFF8B808844201D1082019E0DFF8B00857
S1232620844201D1012013E0DFF8A808844201D101200DE0DFF8A008844201D1012007E09E
S1232640DFF89808844201D1012001E05FF0FF30A979884208DAD622DFF85818DFF880087B
S123266000F05AFCAFF30080DFF85C08844201D108201FE0DFF85408844201D1082019E008
S1232680DFF84C08844201D1012013E0DFF84408844201D101200DE0DFF83C08844201D1E3
S12326A0012007E0DFF83408844201D1012001E05FF0FF30E979884208DAD722DFF8F417FA
S12326C0DFF8200800F028FCAFF3008000270020002028680001B6FBF0F7BFB2002F00D1C0
S12326E00127700129680901B0FBF1F0BFB2B0EB47187000BFB2790111FA88F1B0FBF1F040
S12327002968401A29686422B1FBF2F103225143814202D240F2F53049E02000FFF705FF3A
S1232720DFF8C41751F82000FFF7E7FEE07810F0F300E070207810F0E001380080B2000A17
S1232740084320706770A07A10F0E00018F01F010843A072A07810F0EC002979002903D0A2
S1232760297951F010010843A070207810F0DF006979490111F0200108432070A879E074F1
S1232780E8796075207C50F088002074607C50F0C0006074E078297A002901D050F008001A
S12327A0697A002901D050F00400E0700020BDE8F08110B50400002C09D14FF4AA72DFF869
S12327C0F416DFF8FC0600F0A7FBAFF300805FF4E130206000202071002060710020A071A7
S12327E00120E071002020720020607210BDDFF8FC26114002780A430270C2780B0A1A43C3
S1232800C27082790B0C1A438271427C090E114341747047DFF8D426114002788A430270B0
S1232820C2780B0A9A43C27082790B0C9A438271427C090E32EA0101417470470179C9B200
S1232840427951EA0221027B51EA0241807C51EA00610800704710B50C00417911F03F013D
S1232860220A11434171210E817414F0170F01D00179C179210705D50179C179417C51F09B
S123288040014174FFF7DAFF044202D040F2EE3000E0002010BD05E003791B06FCD50B7864
S12328A0C371491C13005A1E002BF5D1704770B504000D001600002D09D14FF40972DFF860
S12328C0F415DFF82C0600F027FBAFF30080002002E0295CE171401CB042FAD370BD70B568
S12328E004000D001600002D09D140F23222DFF8C415DFF8FC0500F00FFBAFF3008002E09A
S1232900E07928706D1C3000461E002819D0A07D0028F5D12000FFF791FF010702D540F2D2
S1232920F1300FE0410702D540F2F2300AE0810702D540F2F33005E0C007E8D54FF47D70D9
S123294000E0002070BD70B504000D001600002D09D14FF41772DFF85C15DFF8940500F07F
S1232960DBFAAFF30080002002E0E1792954401CB042FAD370BDF8B504000D0016001F0048
S1232980002D09D140F26D22DFF82815DFF82C0500F0C2FAAFF30080302100222800FFF7F0
S12329A0CFF8022085F82D00002085F82C006E62AF62012060752000FFF7B7FDDFF83415F6
S12329C041F820500FF27D21DFF82C251160DFF82C150856FFF79DFDF1BDF8B504000D00A0
S12329E016001F00002D09D140F29622DFF8C414DFF8C80400F090FAAFF30080002E09D1B7
S1232A0040F29722DFF8AC14DFF8F40400F084FAAFF30080AE61EF6100202884002068849A
S1232A205FF402212000FFF7E2FEF1BD70B504000D001600002D09D14FF42D72DFF87414E4
S1232A40DFF8780400F068FAAFF30080002E09D140F2B522DFF85C14DFF8A80400F05CFA8A
S1232A60AFF300807068002809D140F2B622DFF84414DFF8940400F04FFAAFF300803068BB
S1232A80002809D140F2B722DFF82814DFF87C0400F042FAAFF3008095F82C00012802D1B8
S1232AA04FF47A700EE030682860706868607068A860012085F82C004FF400412000FFF7F3
S1232AC096FE002070BD2DE9F04704000D0016001F00002D09D140F2EE22DFF8D813DFF89C
S1232AE0DC0300F019FAAFF30080002E09D140F2EF22DFF8C013DFF80C0400F00DFAAFF359
S1232B0000803068002809D14FF43C72DFF8A413DFF8F80300F000FAAFF30080706800283A
S1232B2009D140F2F122DFF88C13DFF8DC0300F0F3F9AFF3008000205FF0000995F82D0016
S1232B40032802D140F2E9305EE0D6F804A05FF00008A869002843D0FFF7E0FC8146280014
S1232B60FFF7FDFC00281DD0824501D25046FFE7BAEB000A002103E06A8C521C6A84491CCD
S1232B8081420FD2AA696B8CD25C336803F8082018F101086A8C521CEB699A42ECD1002212
S1232BA06A84ECE7BAF1000F09D030684044E860C5F810A0C5F814A0032085F82D00484620
S1232BC0FFF7B0FCBAF1000F19D1686A002816D0AB6A40F2EB32290020006C6AA0470EE073
S1232BE030684044E860C5F810A0C5F814A0032085F82D005FF402212000FFF7F8FD002F12
S1232C0001D0C7F800800020BDE8F08738B504000D00002D07D14FF45872A649A74800F086
S1232C207BF9AFF30080A869002804D15FF402212000FFF7EFFD00202861022085F82D00FF
S1232C4031BD0000F8B504000D00002D07D140F283329849994800F05FF9AFF30080207913
S1232C6000070ED5E079607C50F040006074686A002806D0AB6A40F2F132290020006E6A82
S1232C80B047207980063BD5E078800638D5A67D1FE03700FFB23A00E9682000FFF753FE23
S1232CA0E868FFB23844E8602869FFB2C01B2861F61B286900280CD1022085F82D00686A60
S1232CC0002806D0AB6A40F2EB32290020006F6AB847F6B2002E08D02869002805D02869A0
S1232CE0F6B2B042D5D22F69D4E7A869002816D12869002804D15FF402212000FFF78AFD7B
S1232D002079000640F18B80E078000640F187806D48844235D108204EE00020288430006B
S1232D20461EC0B20028EBD02800FFF736FC002809D0686A002806D0AB6A4FF47C72290046
S1232D4020006F6AB8472800FFF727FC00280AD0688C401CE969884202D10020688402E007
S1232D60688C401C6884288CE179AA6980B21154288C401CE9698842CFD0288C401C2884D4
S1232D80CDE75248844201D1082015E05048844201D1012010E04F48844201D101200BE0B0
S1232DA04D48844201D1012006E04C48844201D1012001E05FF0FF30217D461A23E03700F7
S1232DC0FFB23A0029682000FFF771FD2868FFB2384428606868FFB2C01B6860F61B6868A5
S1232DE0002810D1002085F82C00E07810F07F00E070686A002806D0AB6A40F2EA3229007A
S1232E0020006F6AB847F6B2002E08D06868002805D06868F6B2B042D1D26F68D0E7F1BDF2
S1232E2080B5344801682848334A1268904701BD80B5FFF7F5FF01BD80B52E4841682348DC
S1232E402D4A1268904701BD80B5FFF7F5FF01BD80B5284881681E48274A1268904701BD97
S1232E6080B5FFF7F5FF01BD80B52248C1681948214A1268904701BD80B5FFF7F5FF01BDF1
S1232E8080B51C48016914481B4A1268904701BD000000007C68000080B5FFF7F1FF01BD9E
S1232EA080B5144841690D48134A1268904701BD00E100E0B063000004680000C06A0000A8
S1232EC0C86A00006468000000A0064000B0064000C0064000D0064000A00E4000B00E400C
S1232EE074640000B464000094680000C0F00F07D06A00006000FF1F7800FF1FE06A000084
S1232F00646A0000D86A0000006A0000706A000080B5FFF7C5FF01BD80B513000A00010059
S1232F20024800F04DF800BEFDE70000CC650000C9B2002904D0C17851F00801C17003E02C
S1232F40C17811F0F701C1707047C9B2002904D0C17851F00401C17003E0C17811F0FB0112
S1232F60C17070473EB50C001D0027490978002901D0012023E024490A70D2B2012A1DD1B6
S1232F80214948606846FFF714FC00942A0069461D484068FFF71AFB01211B484068FFF7BF
S1232FA0C7FF012118484068FFF7CFFF17481649886017481449C860002000E004203EBDB0
S1232FC00EB400B510490978002902D15FF0FF3005E001AA01000FF20D0000F070F85DF8D6
S1232FE010FB000001B508480078002802D15FF0FF3007E00122694603484068024B9B68CF
S12330009847012002BD00003C00FF1F97280000DF2800002DE9F04104000D0016001F0040
S1233020DDF8188006E0E4B22000C0473868401C38606D1CB542F6DBBDE8F08170B4040059
S1233040002000252570641C002A17D00968002908D130212170401C2DE030351100257038
S1233060641C401C002926D091FBF3F203FB1215002DF2D5E94311F13105EFE70A68002AF1
S12330801BD130212170401C15E061220A3A551932002570641C401C002A0CD0B2FBF3F699
S12330A003FB16250A2D01D23035F1E7C9B20029EBD04122EAE770BC70470399ECE72DE991
S12330C0F04F8FB0050091465FF000080027002002900026002003900C0005E05046A84713
S12330E00298401C0290641C94F800A0BAF1000F00F02581BAF1250F05D05046A847029875
S1233100401C0290EFE701208DF804005FF0000B002004E00A21BAF1300201FB0B2B00287D
S123312009D1641C94F800A0BAF130010A29F1D3641E0120F3E70621641C20782E2813D13C
S12331400021002004E00A22BAF1300302FB013100280AD1641C94F800A0BAF130020A2A4D
S1233160F1D3641E0120F3E7641E641C94F800A0BAF1640F1BD0BAF1690F18D0BAF1660FA8
S123318015D0BAF1460F12D0BAF1780F0FD0BAF1580F0CD0BAF16F0F09D0BAF1620F06D071
S12331A0BAF1700F03D0BAF1750F40F09680BAF1640F02D0BAF1690F11D1D9F8000019F1C9
S12331C0040904909DF8040000900A23012204A905A8FFF733FF070005A800EB0708BAF1F6
S12331E0580F02D0BAF1780F17D1BAF1780F02D100208DF80400D9F8000019F1040903904F
S12332009DF8040000901023002203A905A8FFF715FF070005A800EB0708BAF16F0F05D11C
S1233220D9F8000019F1040903900826BAF1620F08D1D9F8000019F104090390022605A89C
S123324000EB0708BAF1700F08D1D9F8000019F104090390102605A800EB0708BAF1750FE6
S123326008D1D9F8000019F1040903900A2605A800EB0708BAF16F0F08D0BAF1620F05D02D
S1233280BAF1700F02D0BAF1750F0DD19DF804000090F6B23300002203A905A8FFF7CEFEE0
S12332A0070005A800EB0708009502AB5A4639002020FFF7AFFEB8F1000F3FF414AF98F820
S12332C0000000283FF40FAF98F80000A847B8F101080298401C0290F1E7BAF1630F09D149
S12332E0D9F8000019F10409C0B2A8470298401C0290F8E6BAF1730F7FF4F0AED9F800A06C
S123330019F10409BAF1000F3FF4EDAE504600F01BF80700009502AB5A4639002020FFF719
S123332079FE9AF8000000283FF4DDAE9AF80000A8471AF1010A0298401C0290F1E7029809
S12333400FB0BDE8F08FFEE700F10103810704D010F8011B89B18107FAD10268B2F1013160
S1233360914311F0803F04BF50F8042FF6E710F8011B11B110F8011BFBE7C01A7047FEE738
S1233380012110F01F029140DFF8442640B2400942F820107047010C01F1804111F58E2103
S12333A00A68012313FA00F010430860704780B540B2FFF7E5FF01BDC9B2002904D0016864
S12333C031F48041016003E0016851F4804101607047C06A7047C1627047026B32EA0101F2
S12333E001637047026822F00042C9B252EAC171016070470068C00FC0B2704701684908D5
S1233400490001607047016851F0010101607047036833F44063C9B253EAC121D2B251EAF5
S123342082210160704701784278120712F0E04252EAC1718278120412F47C121143C278BD
S123344051EAC261007951EA80607047806B704710B5002400E0641C032C05D2DFF87C1665
S123346051F824108142F6D1032C08D39A22DFF87016DFF87006FFF74FFDAFF3008020004D
S123348010BD70B582B004000D0016002000FFF7DFFFDFF8541651F82000FFF77CFF0121AC
S12334A02000FFF789FF2000FFF7ADFF01212000FFF798FF2068DFF834160140A87F51EA8D
S12334C0807095F8201050EA8160E97F50EA016095F82110090211F44071084320606A7FEA
S12334E0297F200000F04CF833006A682978200000F057F8002808D1B622DFF8E415DFF847
S1233500D006FFF709FDAFF30080287804EB8000C06830F0FE41287804EB8000AA68521E8C
S1233520D20612F0F04211432A7B920612F0806211436A7B520612F000721143AA7B120670
S123354012F080721143C16028690090330001222978200000F0D2F8686900903300022254
S12335602978200000F0CAF8A8690090330003222978200000F0C2F82000FFF73FFF73BDEC
S12335800368D2B2012A05D1C9B2090411F47C110B4304E0C9B2090411F47C118B430360A0
S12335A070472DE9F24F050014001E002800FFF721FF002801D100204FE05FF0FF37002195
S12335C00022012300205FF0000C01E01CF1010CBCF1040F2ED2002F2CD05FF0000E21E0E2
S12335E008FB06F9DFF8ECA55AF82CA0DFF8E8B55BF82EB00BFB0AFAB9FBFAF94C4508D37D
S1233600B4EB090ABA4504D25746614672464846434618F10108B8F1030F01D2002FDFD18D
S12336201EF1010EBEF1100FD0D2002FCED05FF00108F0E79DF8004005EB8404E468DFF88C
S12336409C6534405B1E54EAC37353EA014111439DF8002005EB8202D160BDE8F28FF8B504
S123366004000D0016001F002000FFF7C3FE002843D00698012804D03FD3032829D014D336
S12336803BE0EDB204EB8500C068DFF854150840B10511F440010843390311F470410843C4
S12336A0EDB204EB8501C86027E0EDB204EB8500C068DFF830150840310511F4401108434D
S12336C0390211F470610843EDB204EB8501C86013E0EDB204EB8500C068DFF80C150840E0
S12336E0B10411F440210843390111F0F0010843EDB204EB8501C860FFE7F1BD2DE9F047CC
S123370082B004000D0016001F002000FFF772FE002801D1002061E05FF0FF3003220F2377
S1233720DFF8C814B1FBF7F1DFF8C4C45CF822C00CFB01F1DFF8BCC45CF823C00CFB01F129
S12337405FEA9108DFF8B014B1FBF7F15FEA41090A9989450AD3F6B20096002300222900C7
S1233760C9B22000FFF77BFF484637E05FF0000C24E0DFF87894B9FBF7F9DFF874A45AF86E
S12337802CA00AFB09F9DFF86CA45AF82EA00AFB09F95FEA9909894507D3B9EB010A82453B
S12337A003D2504662467346C8461EF1010EBEF1100F01D20028DCD11CF1010CBCF1040FBD
S12337C004D2002802D05FF0000EF0E7F6B200962900C9B22000FFF742FF4046BDE8F68700
S12337E08A0103D5026B32F0807202638A0303D5026B32F480320263026B11430163704791
S1233800F8B504000D0016001F00002D09D14FF40972DFF8CC12DFF85C04FFF77DFBAFF3F0
S12338200080302100222800FEF78AF92000FFF70FFEDFF86C1441F82050AE62EF62F1BDBF
S12338407CB504000D0016002000FFF7DCFD012201212000FFF7DCFDDFF848142000FFF7A0
S1233860BAFD0120F168C1F3031188408DF8020000208DF8030000208DF80400307B10F000
S12338800F008DF80100F068000D10F001008DF800006846FFF7C7FD686001208DF80300CB
S12338A0F068400D10F001008DF800006846FFF7BAFDA8609DF8010004EB8000C068C0F396
S12338C0C360401C28602068C00402D42068800402D50120287313E0DFF8CC03844201D1EB
S12338E004200CE0DFF8C403844201D1012006E0DFF8BC03844201D1012000E0FF2028738E
S12339003068286170686861B068A861B068E861B068286273BD70B504000D001600002D14
S123392001D0002E08D140F27B326D49DFF88403FFF7F2FAAFF30080B068002801D104207E
S123394028E095F82400012802D14FF4167021E0012085F82400320029002000FFF770FF42
S12339602000FFF74BFD2000FFF772FDDFF848130856FFF71CFD2900200000F02BF80FF264
S12339807110DFF8381308605FF400312000FFF727FF002070BD38B504000D00DFF8201303
S12339A02000FFF71AFD002295F82400022802D140F2592200E00022A86A002804D0EB6AF4
S12339C029002000AC6AA047002085F8240031BD00E100E070B504000D0000200026286821
S12339E009284CD32000FFF7F4FC800174D5E869A969401A4008297B88426DD2A8690328B5
S1233A001BD2286900280FD0A869012802D1286900780BE0286900782969491C2961296900
S1233A20097850EA012001E0F6B230000021A961A96880B20843606318E0286900280CD0E4
S1233A40286900782969491C29612969097850EA01202969491C296101E0F6B23000A9691E
S1233A60891EA961696880B2084360635FF000712000FFF7B0FCA8690028B3D12CE0200015
S1233A80FFF7A7FC800127D5E869A969401A297B884221D22869002805D0286900782969C5
S1233AA0491C296101E0F6B23000A969012904D1A96880B20843606303E0696880B20843C7
S1233AC060635FF000712000FFF785FCA869401EA861A8690028D2D170BD00004C6A000091
S1233AE02863000024660000586A0000FFCCFFBA70B504000D00E869002856D028680928D1
S1233B0037D32000FFF765FC80034ED52000FFF79DFC06005FF400312000FFF75CFC686902
S1233B20002818D0E869012805D168690670E869401EE86119E0686906706869401C6861AC
S1233B40B6B2300A696908706869401C6861E869801EE86109E0E869012803D1E869401E61
S1233B60E86102E0E869801EE861E8690028C8D11BE02000FFF72DFC800316D52000FFF70E
S1233B8065FC06005FF400312000FFF724FC6869002804D0686906706869401C6861E869A5
S1233BA0401EE861E8690028E3D1A869002803D029002000FFF70EFFA869002806D1E86974
S1233BC0002803D129002000FFF7E5FE70BD0000A86A0000E0690000F4630000F0FFFC7F7A
S1233BE0FF0F3FFFFFF0CFFF0FFFF3FF00286BEEF06900003464000000CA9A3B38B50400B6
S1233C000D002000FFF7F6FB002805D0290020002A4A1268904704E0290020002A4A126866
S1233C20904731BD80B51E480068002807D140F24E6224492548FFF76FF9AFF3008018481C
S1233C4001681948FFF7DAFF01BD80B514484068002807D140F256621A491D48FFF75CF9D3
S1233C60AFF300800E4841681048FFF7C7FF01BD00000000B06A000080B50948806800289D
S1233C8007D140F25E620F491248FFF745F9AFF30080034881680648FFF7B0FF01BD000069
S1233CA04C00FF1F00000ADA00C0024000D0024000C00A401C6900003C6C00005800FF1FF1
S1233CC000000202286300005C00FF1FB0690000C0690000D0690000DFF85C16096831F47D
S1233CE04021800410F440200843DFF84C1608607047DFF84816096831F44031000410F490
S1233D0040300843DFF8341608607047DFF82C16096831F01001000110F010000843DFF8B5
S1233D201C1608607047027812F05F0209780A4302707047027812F0F0020A430270704776
S1233D4080B5DFF8C8050078C0B210F00300002803D0022825D012D326E0DFF8B40500689C
S1233D60002808D1D422DFF8AC15DFF8AC05FFF7D3F8AFF30080DFF89805006815E0DFF89D
S1233D809C050068002808D1D922DFF88815DFF89005FFF7C1F8AFF30080DFF880050068A5
S1233DA003E0DFF8A00500E0002002BD80B5FFF7C7FF00282CD0DFF86C150978C1F3C2017C
S1233DC0C840DFF864251278C2F30112DFF83C351B7813F00303D2B2002A02D0DBB2002B09
S1233DE002D0DBB2022B13D1C9B20029052904D9891F04D0491E06D009E0400908E0142198
S1233E00B0FBF1F004E00C21B0FBF1F000E0002002BDDFF818050078C00703D4DFF81005C0
S1233E20006808E0DFF80C050068DFF88C150978C1F34201C840704780B5DFF8F0040078B7
S1233E40C0F30010C0B2002802D1FFF7AFFF02E0DFF8DC04006802BD80B5FFF771FF02BD70
S1233E6049F69801884201D2002006E0DFF84C15884201D2012000E00220C0B2704780B56D
S1233E80DFF8BC040078000612D5DFF884040068002809D140F26512DFF87814DFF87804FA
S1233EA0FFF73AF8AFF30080DFF86404006800E0002002BD80B5DFF880040068800C10F0CA
S1233EC00300002804D002280CD003281DD01FE0FFF7D5FFB0F5004F02D14FF4004000E0CE
S1233EE0002016E0DFF834040068002809D14FF4BD72DFF82014DFF82804FFF70DF8AFF312
S1233F000080DFF81804006803E04FF47A7000E0002002BD80B5DFF824040068000C10F04B
S1233F200300002804D0012805D0032806D008E000F099F806E000F0D5F803E0DFF8840431
S1233F4000E0002002BD80B500F071F8DFF870140968C1F30361491CB0FBF1F002BD80B547
S1233F60C0B2002816D002281ED0042827D0062830D0072831D0082844D00B2830D00C2879
S1233F8031D00D2832D00E2833D0122834D0132835D03AE000F04BF8DFF824140968090F49
S1233FA0491CB0FBF1F031E000F041F8DFF810140968C1F30361491CB0FBF1F026E000F067
S1233FC036F8DFF8FC130968C1F30341491CB0FBF1F01BE0FFF79EFF18E0FFF76BFF15E094
S1233FE000F071F812E000F063F80FE000F03BF80CE000F077F809E0DFF8C80306E04FF416
S12340007A7003E0FFF73BFF00E0002002BD10B504006068DFF8A81308600120FFF776FECA
S12340202078FFF766FE6078FFF756FE10BD80B5DFF8F8020078C0F38100C0B2002807D078
S123404002280BD007D303280BD100F04BF809E000F009F806E0FFF7DCFE03E0FFF770FE6C
S123406000E0002002BD80B5DFF8BC020078800704D4DFF8B8020078800601D5002016E061
S1234080FFF7DAFE002812D0DFF88C130978C1F34111DFF884231278D2B2D209DFF8843352
S12340A0C9B203EB8101D2B231F81210484302BD80B5DFF874030078800701D4002001E0A0
S12340C0FFF7A7FE02BD10B5FFF7B6FE0400002C06D0FFF7ACFFC008A04201D3200000E0EE
S12340E0002010BD10B5DFF844020078400601D4002020E0FFF7B0FE0400002C09D140F25A
S12341007122DFF81012DFF81403FEF705FFAFF30080DFF80C030078C0B210F01F00401CBB
S1234120B4FBF0F4DFF804030078C0B210F01F0018304443200010BDDFF8D0110978C9B291
S123414011F00301C0B2814201D0012100E00021DFF8B821127812F0FC0210F003031A4390
S1234160DFF8A8311A70C0B2002809D1DFF8B8010078400704D5DFF8B80200788007FAD506
S1234180C9B2002907D040F2DC5000E000BF0100481E0029FAD10020704770B4DFF89032B4
S12341A01B78C3F38103DBB2DFF88442247814F00104DFF804522D78C5F342051600F6B2D0
S12341C0EDB2AE4222D0E4B2012C13D1012B04D0DFF850412478A4070CD5DFF84C41247823
S12341E014F0FE04DFF840512C70DFF844422478E407FAD4DFF8C041247814F0D004520061
S123420012F00E022243DFF8B0412270DFF81821127812F0FE0211F001042243DFF80841A2
S12342202270DFF80021127812F0FC020243DFF8F4402270012B01D0800708D5DFF8F0015B
S12342400078C0B210F00100C9B28842F6D1002070BC704710B50400002C09D140F23B32F2
S1234260DFF8B010DFF8CC01FEF756FEAFF300800020617811F01F010843DFF8A41108702B
S1234280DFF8A801007810F0E000A17811F01F010843DFF898110870DFF884010078217858
S12342A051F040010843DFF878110870DFF8800100784006FAD510BD38B504002068FFF734
S12342C0CFFD05002179DFF87800FFF733FDA11DDFF86C00FFF727FD1348007810F0C30049
S12342E0290111F030010843617908430E4908706079002808D012480078000604D5DFF8BE
S1234300300100788007FAD531BD00000C4006403400FF1FE4620000346A00003800FF1F8E
S1234320906900000040064001400640064006400000FF1F0400FF1F00700440048004402B
S123434000500640006CDC0280B5DFF8EC00007810F0FD00DFF8E0201070DFF8CC0000789A
S123436010F03B0050F08000DFF8BC201070DFF8C0000078C0B210F01C000828F7D1DFF89F
S1234380AC00007810F0BF00DFF8A0201070DFF8A00000788006FAD40800FFF75BFF234819
S12343A0007850F0400021490870214800788006FBD5002002BD00000840064001127A00EE
S12343C044800440006CDC0270B504000D001600002E07D140F24B6218491648FEF79CFD09
S12343E0AFF300802000C0B2FFF7A6FE31002800C0B2FFF7A9FF0C48007810F03F000A49A4
S123440008700B480078C0F38100C0B20328F8D1002070BD0000000003400640406A00003B
S123442004400640A0690000004006400540064006400640A06A000001400640E462000071
S123444001B582B0080080B2000A8DF800008DF801109DF808008DF808000123012202A9F5
S1234460DFF8FC0300F07CFA002302226946DFF8F00300F075FA07BD01B582B09DF8080094
S123448050F080008DF808000123012202A9DFF8D00300F065FA02226946DFF8C40300F07F
S12344A074FA9DF800009DF8011051EA002080B20EBD10B50C00C0B2DFF8A013C98951EA9D
S12344C00030010089B20720FFF7BAFF210089B20820FFF7B5FF10BD10B50C00C0B2DFF881
S12344E07C13C98951EAC010010089B20720FFF7A7FF210089B20920FFF7A2FF10BD10B51F
S1234500002409E0DFF85403E4B230F814102000C0B2FFF795FF641CE4B2022CF2DBDFF876
S12345203C0381882000C0B2FFF78AFF032409E0DFF82803E4B230F814102000C0B2FFF7A2
S12345407FFF641CE4B2072CF2DB0A2409E0DFF80C03E4B230F814102000C0B2FFF770FFED
S1234560641CE4B2102CF2DB002409E0DFF8E802E4B230F814102000C0B2FFF79AFF641CC7
S1234580E4B2102CF2DB002409E0DFF8D802E4B230F814102000C0B2FFF79EFF641CE4B29D
S12345A0052CF2DB10BD80B5162000F059F8DFF8AC02C08B40F60201014389B20F20FFF7D3
S12345C03FFF0F20FFF758FF40F602010842F8D10E20FFF751FFC0F30010C0B2002801D02F
S12345E004203CE04FF498410C20FFF729FFDFF86C02C08B50F4805189B20F20FFF720FFED
S12346000F20FFF739FFC004FAD4DFF85002018B0C20FFF715FFDFF8440241880120FFF7BF
S12346200FFFDFF83802C08B50F0040189B20F20FFF706FF0F20FFF71FFF4007FAD40E20DC
S1234640FFF71AFF80B2001210F00100C0B2002801D0042003E0142000F002F8002002BD93
S123466001B50023012269467D4800F079F901BD10B50400FF20FFF7F3FF0A20FBF783FF38
S1234680200080B2FFF73BFF0A20FBF77CFFFFF78AFF10BD00B583B020218DF80010010EE4
S12346A08DF80110010C8DF80210010A8DF803108DF80400002305226946694800F050F9AD
S12346C000200EBD00B583B0A0208DF804000123012201A9624800F043F904226946604876
S12346E000F053F900980EBD10B504001420FFF7B7FF5948408B10F47F402100491E01F0C6
S1234700FF010143412C02D351F4404101E08904890C89B20D20FFF7CCFE4F48808A4CF23F
S1234720FF010840611E11F47C51014389B20A20FFF7BFFE10BD38B504000D0040208DF8D0
S12347400000012301226946454800F009F900232A002100424800F003F931BD38B504001D
S12347600D00C0208DF800000123012269463C4800F0F6F82A002100394800F006F931BDC2
S123478080B53549098AC0B2000210F47060014389B20820FFF78DFE01BD80B5012823D14F
S12347A01620FFF75DFF2C48808A4CF2FF0101400A20FFF77EFE2848408B10F47C5040F495
S12347C0404151F0140189B20D20FFF772FE2348408B50F4007189B20D20FFF731FE5FF069
S12347E05530FFF757FF16E0002814D11E48FFF751FF1A48418B0D20FFF722FE0E20FBF7A4
S1234800C2FE1548818A0A20FFF753FE1248418B0D20FFF74EFE01BD10B590B0040000207F
S123482003E055216A461154401C4028F9DB0120FFF7B3FF6020FFF713FF40216846FFF718
S12348407AFF1A20FFF70CFF2000FBF79CFE0020FFF7A3FF10B010BD4C6700002C67000069
S123486010F2FF1F106A00008778877880B56946D86BFDF7CDFB0098002807D05FF0805003
S12348801E490860BFF34F8FBFF36F8F01BDF8B504000D0016001F00002C01D104202CE026
S12348A0002D01D1042028E0402100222000FDF747F90120FDF74FFAA063A06B002801D18C
S12348C001201AE0032200210120FDF708FAE063E06B002804D1A06BFDF7C2FC01200CE007
S12348E025603A0031002068FEF7CBFD2300044A211D2068FEF784FF0020F2BD04ED00E030
S12349006D48000038B504000D0000235FF0FF320021A06BFDF7D5FB012802D04FF4167089
S12349201DE02A00211D2068FEF7F5FF0500002D07D0002300220021A06BFDF73AFA2800D3
S12349400DE000235FF0FF320021E06BFDF7B9FB002300220021A06BFDF72BFA606B32BD6B
S123496000B585B00091002101910292DBB2002B03D05FF44011039102E05FF48011039154
S12349806946FFF7BFFF05B000BD00B585B000230093019102925FF4801103916946FFF75B
S12349A0B1FF05B000BDFEE7010C01F1804111F58E210A68012313FA00F010430860704772
S12349C070B504000D001600002E06D1D122CA49CA48FEF7A1FAAFF3008004EB850031888B
S12349E0018070BD50F8213033F4E063D2B2120212F4E0621A4340F82120704700B587B0A9
S1234A00BF48FFF7D1FFBF48FFF7CEFFBE48FFF7CBFFBE48FFF7C8FFBD48FFF7C5FF03228E
S1234A200E21BC48FFF7DEFF03220F21B948FFF7D9FF03220321B848FFF7D4FF03220421EC
S1234A40B548FFF7CFFF03220221B448FFF7CAFF03220321B148FFF7C5FF03220A21B0484A
S1234A60FFF7C0FF03220B21AD48FFF7BBFF03221821AC48FFF7B6FF03221921A948FFF744
S1234A80B1FF03220821A548FFF7ACFF03220921A248FFF7A7FF02220021A048FFF7A2FFED
S1234AA0022205219C48FFF79DFF022206219A48FFF798FF022207219748FFF793FF9A48E3
S1234AC0006805900220BDF8141060F30101ADF814100120BDF8141060F30A21ADF814107B
S1234AE005AA13218C48FFF76BFF072204218B48FFF778FF072205218848FFF773FF07225D
S1234B0006218648FFF76EFF072207218348FFF769FF012201217F48FFF764FF0122022114
S1234B207C48FFF75FFF012205217A48FFF75AFF7E480068069006AA05217D4800F027F990
S1234B4001220A217348FFF74DFF01220B217148FFF748FF01220C216E48FFF743FF012260
S1234B600D216C48FFF73EFF012210216948FFF739FF012211216748FFF734FF6D4800689F
S1234B800490BDF8100050F00300ADF810000120BDF8101060F30A21ADF8101004AA1D219B
S1234BA05C48FFF70DFF6448006803900220BDF80C1060F30101ADF80C100120BDF80C10A9
S1234BC060F30A21ADF80C1003AA02215548FFF7F7FE012206215348FFF704FF01220E210A
S1234BE04E48FFF7FFFE01220F214C48FFF7FAFE01220C214948FFF7F5FE01220D214748A9
S1234C00FFF7F0FE012215214548FFF7EBFE012200214148FFF7E6FE012214214048FFF76A
S1234C20E1FE012206213E48FFF7DCFE002200213B48FFF7D7FE414800680290BDF8080020
S1234C4050F00300ADF808000120BDF8081060F30A21ADF8081002AA0C213148FFF7B0FE41
S1234C60374800680190BDF8040050F00300ADF804000120BDF8041060F30A21ADF80410F2
S1234C8001AA0D212648FFF79BFE012210212448FFF7A8FE012209212148FFF7A3FE01226E
S1234CA007211F48FFF79EFE012208211C48FFF799FE2448006800900220BDF8001060F3F4
S1234CC00101ADF800100120BDF8001060F30A21ADF800106A4612210E48FFF771FE06223A
S1234CE013210C48FFF77EFE072200210D48FFF779FE07B000BD00005C620000F06A00001E
S1234D00090038100B0038100C0038100D0038100A0038100090044000B0044000C0044024
S1234D2000A0044000D00440446C0000486C000000F00F404C6C0000506C0000546C0000A0
S1234D40586C00005C6C0000D2B2002A04D1012212FA01F1816003E0012212FA01F1416099
S1234D60704710B5002400E0641C052C04D21E4951F824108142F7D1052C06D344221B49E5
S1234D801B48FEF7C9F8AFF30080200010BD70B504000D001600002E06D14B221349154870
S1234DA0FEF7BAF8AFF300803078002805D160690121A9408843606109E072782900200004
S1234DC0FFF7C2FF60690121A9400843606170BD10B50C00FFF7C5FF0749C0B251F8200055
S1234DE0C0F8A04010BD0000446900006C6300004C660000B86A000030690000C9B20029BD
S1234E0004D0C17851F00801C17003E0C17811F0F701C1707047C9B2002904D0C17851F017
S1234E200401C17003E0C17811F0FB01C170704710B582B01C0000210091002140F2EB3301
S1234E409A4206D16A460121E06900F0A3FA010021E040F2EA339A4206D16A460121206A93
S1234E6000F098FA010016E0B2F57C7F06D16A460221E06900F08EFA01000CE040F2F13365
S1234E809A4208D10821FDF7E6FC6A460421E06900F080FA010000290BD00098002808D035
S1234EA05FF08050DFF854120860BFF34F8FBFF36F8F13BD3EB504001500002C01D10420EC
S1234EC072E0002901D104206EE0002D01D104206AE02868002801D1042065E068680028B7
S1234EE001D1042060E0A868002801D104205BE02868206061620120FCF72DFFA061A069F2
S1234F00002801D101204FE00120FCF724FF60616069002804D1A069FDF7A2F9012043E0A9
S1234F2000F0F0F82062206A002807D16069FDF797F9A069FDF794F9012035E000F0E2F8B2
S1234F40E061E06900280AD1E06900F0F1F96069FDF786F9A069FDF783F9012024E0684615
S1234F60FDF727FCA8680090287B8DF80400687B8DF805006A6869462068FDF727FB23009B
S1234F805F4A616A2068FDF7F6FC6B692A69616A2068FDF722FD01212068FFF72FFF01216E
S1234FA02068FFF738FF00203EBDF8B504000D00160000272068002801D101202EE0002E43
S1234FC001D100202AE0002D01D1042026E0002364220021A069FDF774F8002801D101205A
S1234FE01CE06560A660221D616A2068FDF71EFD5FF0FF300090002301220121206A00F055
S12350008FF8C00700D40127002300220021A069FCF7CFFE002800D101273800F2BD2DE9F5
S1235020F04383B004000D0016001F00002001905FF001085FF000092068002801D10120BC
S12350405AE0002E05D1002F01D001983860002052E0002D01D104204EE000235FF0FF3297
S123506000216069FDF72DF8002801D1012043E0E560266101AB14F10C02616A2068FDF719
S123508022FD5FF0FF300090002301220721E06900F046F841070CD5616A2068FDF7B6FDD7
S12350A00121E06900F0CEF840F2F1385FF0000913E081070CD5616A2068FDF7A7FD0121AF
S12350C0E06900F0BFF84FF47C785FF0000904E0C00702D55FF00008B146002F01D0C7F8BE
S12350E000900023002200216069FCF762FE002801D15FF001084046BDE8FE8304ED00E0CB
S1235100314E000010B51C20FCF7EAFB0400002C04D000202060201DFCF73AF9200010BD3F
S12351202DE9F04704000D0016001F005FF000090020002C07D1502080F31188BFF34F8F50
S1235140BFF36F8FFEE715F07F4F07D0502080F31188BFF34F8FBFF36F8FFEE7002D07D166
S1235160502080F31188BFF34F8FBFF36F8FFEE7DDF820A0FBF7DCFE002802D1BAF1000F74
S123518001D1012000E00020C0B2002807D1502080F31188BFF34F8FBFF36F8FFEE7FBF713
S12351A0D8FAD4F800803A002900404600F0E5F8002807D05FF0000A002E16D02068A84338
S12351C0206012E0BAF1000F0FD0002E01D059F08079002F01D059F08069524659EA05016C
S12351E0201DFBF72FFC5FF00008FBF7BAFABAF1000F24D0002807D15FF080506A4908606C
S1235200BFF34F8FBFF36F8FFBF756FF80465FEA881012D4FCF71DF8D4F800803A002900BF
S1235220404600F0AAF8002804D0002E02D02068A8432060FCF72AF8002028F07F484046C9
S1235240BDE8F08770B504000D00002C07D1502080F31188BFF34F8FBFF36F8FFEE715F04E
S12352607F4F07D0502080F31188BFF34F8FBFF36F8FFEE7FBF7EDFF26682068A843206085
S1235280FCF704F8300070BD2DE9F04104000F0000250023002C07D1502080F31188BFF3EA
S12352A04F8FBFF36F8FFEE717F07F4F07D0502080F31188BFF34F8FBFF36F8FFEE714F125
S12352C0040818F10806FBF744FAD8F80C0021683943216011E0D4F800C01CEA010C8C45B4
S12352E000D10123002B07D0D20100D50D43216851F00071FBF771FC3800B04210D0476868
S12353000168002311F07F4221F07F415FEA421CE1D4D4F800C011EA0C0FE3D00123E1E7CD
S12353202068A8432060FBF71CFA2068BDE8F08138B50400251DFBF70CFA04E05FF0007101
S1235340E868FBF74AFC286800280CD0E86815F108018842F2D1502080F31188BFF34F8F35
S1235360BFF36F8FFEE72000FCF740FBFBF7F9F931BD80B5FFF788FF01BD0023002A03D1E3
S1235380084205D0012303E00840884200D101231800704780B513000A0001000348FCF77C
S12353A07CFA02BD0000000004ED00E07353000040B2002809D50901DFF8902240B210F0A0
S12353C00F00104400F8041C04E00901DFF8802240B21154704780B50023012269469D48CA
S12353E0FFF71DFE002802D19DF80000FFE702BD01B5012269469748FFF7D7FD01BD10B5AF
S1235400040003E02078FFF7F3FF641C20780028F8D110BD2DE9F04107000E0014001D00BE
S12354202868002801D130000DE0761E3078092830D08948FFF7E3FF2068401E20602868B5
S1235440401E28603000BDE8F0818348FFF7D7FF2068401E206020688045F6DB06E0206893
S1235460401C20603878FFF7C3FF7F1CB742E6D238780928F3D17948217811F00701084444
S1235480FFF7BDFF20680830217811F00701401A2060EAE7DDF81880DDE770B584B00600B9
S12354A03400002002900025FFE70195FFF793FFC0B201000029F8D0032914D008293CD028
S12354C00A2908D00D2906D0152917D017291CD07F2932D03AE0002030705BA0FFF78FFF5D
S12354E0301B04B070BD002020705FF0FF30F8E75948FFF784FF0198401E0190019885426D
S1235500F6DB260000200290CFE7009502AB01AA31002000FFF77EFF060007E0009502AB48
S123552001AA31002000FFF775FF06000298012802DB30782028F1D1B7E7009502AB01AA1E
S123554031002000FFF766FF0600AEE702993E2910DA3070761C0299491C02910199491C50
S123556001918DF8000000208DF801006846FFF746FF9AE70720FFF73BFF96E7002100E02B
S1235580401C0278002A0ED0491C0278303A0A2AF6D30278613A062AF2D30278413A062AB4
S12355A0EED3012004E0082901D0012000E00020704710B50220FEF7D2FC29494860294812
S12355C02749086008214420FFF7F2FE244A26492048FFF76FFC002809D52448FDF7F0FC84
S12355E00020FBF710F802E02148FDF7E9FC21480068FFF704FF2048FFF74FFF0128F6DBF9
S12356001D48FFF7BBFF0028EED1102200211A4800F03AF804001948201AB0F5803F03D3DA
S12356201348FDF7CDFCE2E7200000F09AF8002803D01348FDF7C4FCD9E721001148FDF7AB
S1235640BFFCD4E7000000000D0A000018ED00E000E400E038F1FF1F646C0000886A000007
S12356601000FF1F00B00E4060F1FF1F9C660000AC6700000C00FF1FF4F0FF1F0000044006
S1235680DC6800006C69000000F048B91FB582B0002408A800F0DDF9012147480068FFF74D
S12356A0D1FD002403E008A800F0D3F9641C032C33DA4FF4FA6000900123012201213E48CD
S12356C00068FFF72DFD0128EDD112213B4800F071F93B49498B80B281421AD13848007D12
S12356E0022816D1364880680B99884211D13448C0680A9988420CD102983149897D88420D
S123570001D100200AE002992E48FDF759FC012004E008A800F09DF9C8E7012006B010BDC1
S12357200FB587B08A208DF844000CA800F091F90A20FAF728FF07A80FC800F017FA4FF4BD
S12357407A70FAF720FF01208DF844000CA968461C22FCF79BFE07A80FC8FFF797FF0BB067
S123576000BD10B596B004000EA817492022FCF78DFE07A815491C22FCF788FE09941448C6
S12357800A90002403E06420FAF7FDFE641C022C0EDA07A968461C22FCF778FE0EA8210181
S12357A008440FC8FFF7BCFF0028ECD0012000E0002016B010BD000054F2FF1F8400FF1F73
S12357C07C00FF1F1C6A00008C670000CC670000EFEDAB002DE9F04F85B004461E000D46B3
S12357E090461CBF00203060A14601E009F1010999F80000A0F109010529F7D32028F5D047
S12358002D2816BF2B2819F8017B2B27B8F1000F57D4B8F1010F54D0B8F1250F51DAB8F1B7
S1235820010F0DDBB8F1100F04BF99F80000302802BF99F8010040F02000782814D10EE0E2
S123584099F80000302818BF4FF00A080CD199F8010040F02000782804D14FF0100809F1AE
S1235860020901E04FF00808CDF8109001E009F1010999F800003028F9D00FF2A40B4FF0FE
S1235880000ACDF80C908DF808B00AE09DF80810CDF804A0401AC0B2009008FB0A0A09F1EF
S12358A0010999F80010A1F141001A2838BF20314246584600F0BCF90028E7D10498484508
S12358C003D105B12C60002025E00FF27C01039811F80810A9EB0000401A14D4012808DA6E
S12358E00098BAEB000004D30199B0FBF8F0884209D000F0C9F9222101600EB101203060FA
S12359004FF0FF3A03E02D2F08BFCAF1000A0DB1C5F80090504605B0BDE8F08F002359E763
S1235920303132333435363738396162636465666768696A6B6C6D6E6F7071727374757619
S12359407778797A0000000000002115110E0D0C0B0B0A0A09090909090808080808080864
S1235960070707070707070707070707070000000069C84010F00100704780B500F00FFA71
S12359805520FEF76DFE40F26130FEF771FEDFF87C02FEF77FFEFEF795FE1420FEF760FE31
S12359A00A20FAF7F0FD0120FEF7EAFE1820FEF757FE01BD30B400220BE0DFF8543214003B
S12359C0A4B2057895EA242433F8143093EA0222401C0B00591E002BEFD1100080B230BC22
S12359E0704780B5FAF7CFFD01BD38B504000D004FF4D770FEF710FF1420FEF731FE022036
S1235A00FFF7EFFF6020FEF72BFE29002000FEF792FE0020FEF7B4FE2800FEF765FE0120CA
S1235A20DFF8F01108600020DFF8EC1108601A20FEF716FE31BD80B51420FEF711FE022006
S1235A40FAF7A1FD0120FEF79BFE1820FEF708FE01BD10B504006F480068012803D16F4877
S1235A60FDF7AEFA23E001206A49086000206A490860122114F10800FFF79CFF6083152122
S1235A80E01DFFF7B2FF02E00320FAF77CFD614800680128F8D05F480068022807D10320B9
S1235AA05C49086000205C490860FFF7C4FF10BD7CB504004FF48160FEF716FE0D20FEF79E
S1235AC05FFE684600210022C0E9001200250CE04FF480714FF4807000FB05F02044FFF7F7
S1235AE069FF694621F815006D1C042DF0DB6020FEF7B6FD40212000FEF71DFE40341A2071
S1235B00FEF7AEFDFAF7ABFE0500002614E013214348FFF72DFF002808D1FAF7A0FE401B5C
S1235B20B0F5FA7FF3D33F48FDF74AFA30212000FEF701FE3034761C142EE8DBFAF78FFEE0
S1235B40050013213648FFF713FF002808D1FAF786FE401BB0F5FA7FF3D33348FDF730FA34
S1235B6008216846FEF7E7FD002076BDFFB581B00198032801D1002400E0322400F005F95B
S1235B80082103A8FFF716FFADF800000A20FEF7ABFD6020FEF764FD082103A8FEF7CBFD4F
S1235BA002216846FEF7C7FD0020FEF7E9FD1A20FEF756FD6420FFF714FF049800F2FF3090
S1235BC0850A029E002715E03000FFF771FF4FF4806006446420FFF704FF3220B0FBF5F014
S1235BE00419E4B221001148FDF7EAF906A0FDF7E7F97F1CAF42E7D300F0CCF81520FEF7FF
S1235C0073FD05B0F0BD00000808080087788778705E00002800FF1F58F2FF1F586900005B
S1235C2080F00F40AC680000C4680000E86A0000C9B2830706D0521E22D310F8013B9942B0
S1235C40F7D11FE0083A13D302F1040241EA012141EA014150F8043B121F21BF4B40A3F1E7
S1235C60013C2CEA030C1CF0803FF3D0C9B2001F083210F8013B521E28BF91EA030FF8D864
S1235C8018BF0120401E7047014800F0EFB800003000FF1F012110F01F029140644A40B211
S1235CA0400942F820107047012110F01F029140604A40B2400942F82010704740B2002842
S1235CC008D509015C4A40B210F00F00104400F8041C03E00901594A40B21154704780B5F3
S1235CE040B2FFF7D7FF01BD80B540B2FFF7DCFF01BD50F8213033F47023D2B2120412F47B
S1235D0070221A4340F82120704780B5002000905FF400214A48FFF75BF84A480068032807
S1235D2015D10120484908606A46012147480068FFF730FB00280AD00098002807D05FF08D
S1235D40805043490860BFF34F8FBFF36F8F3D480068012802D102203A49086001BD80B552
S1235D600A2213213B48FFF7C4FF07213D20FFF7A5FF3D20FFF7B3FF3748006800906A4638
S1235D8013212F48FFF703F801BD80B53D20FFF7ABFF01BD80B53D20FFF7A1FF01BD00B51A
S1235DA089B000208DF800002C4801900820029000208DF80C0000208DF80D0000208DF83A
S1235DC00E0064200490642005903220069001208DF81C0001208DF81D0000208DF81E0050
S1235DE000208DF81F0000208DF8200000208DF8210005211A20FFF761FF0220FEF7AFF8DC
S1235E0003006A4616491748FEF741FD002802D01548FDF7D5F8FFF775F90C49086001217F
S1235E200A480068FFF730FAFFF799FF09B000BD00E100E080E100E018ED00E000E400E0D5
S1235E4080F00F402800FF1F58F2FF1F50F2FF1F04ED00E000B00440686C0000809698002A
S1235E6000C0024010F2FF1F9C6500007047000000002110422063308440A550C660E770E8
S1235E80088129914AA16BB18CC1ADD1CEE1EFF13112100273325222B5529442F772D6626E
S1235EA0399318837BB35AA3BDD39CC3FFF3DEE36224433420040114E664C774A44485542E
S1235EC06AA54BB528850995EEE5CFF5ACC58DD55336722611163006D776F6669556B446EE
S1235EE05BB77AA719973887DFF7FEE79DD7BCC7C448E5588668A7784008611802282338AE
S1235F00CCC9EDD98EE9AFF9488969990AA92BB9F55AD44AB77A966A711A500A333A122A6D
S1235F20FDDBDCCBBFFB9EEB799B588B3BBB1AABA66C877CE44CC55C222C033C600C411C2D
S1235F40AEED8FFDECCDCDDD2AAD0BBD688D499D977EB66ED55EF44E133E322E511E700EED
S1235F609FFFBEEFDDDFFCCF1BBF3AAF599F788F8891A981CAB1EBA10CD12DC14EF16FE1E5
S1235F808010A100C230E3200450254046706760B9839893FBA3DAB33DC31CD37FE35EF36D
S1235FA0B1029012F322D2323542145277625672EAB5CBA5A89589856EF54FE52CD50DC52D
S1235FC0E234C324A01481046674476424540544DBA7FAB79987B8975FE77EF71DC73CD7ED
S1235FE0D326F2369106B01657667676154634564CD96DC90EF92FE9C899E9898AB9ABA9AD
S12360004458654806782768C018E1088238A3287DCB5CDB3FEB1EFBF98BD89BBBAB9ABB6C
S1236020754A545A376A167AF10AD01AB32A923A2EFD0FED6CDD4DCDAABD8BADE89DC98D2C
S1236040267C076C645C454CA23C832CE01CC10C1FEF3EFF5DCF7CDF9BAFBABFD98FF89FEC
S1236060176E367E554E745E932EB23ED10EF01E416070478160704780B54FF4804145481A
S1236080FFF7F8FF0A20FAF77EFA4FF480414148FFF7EEFF01BD00B583B000200020FFF730
S12360A06CFC3D480068019001AA0E213948FEF76EFE4FF480413748FFF7DCFF4FF4FA7039
S12360C0FAF761FA4FF480413248FFF7D1FF334800900023002232213148FBF7CCF95FF00A
S12360E0FF3000900123012201212E480068FFF717F82D4800680328F1D12C4800680028C3
S1236100EDD00A20FAF73FFA002028490860E020FEF7A6FA15212648FEF720FB1820FEF7FB
S12361209FFA012123480068FFF7AEF8D7E700B585B0FEF763FC00F053F800F081F81E482B
S1236140FCF73EFFFEF7DEFF1A49086000200390002002900020019003200090002340F64C
S12361608C2216491648FAF753F90020039000200290002001900820009000239A2211496C
S12361801148FAF745F91148FCF71AFFFAF7A7FAFEE70000C0F00F40386C0000796000001B
S12361A08069000050F2FF1F2800FF1F58F2FF1F8300FF1F54F2FF1FE8670000286A0000FE
S12361C0B3550000F468000097600000086900005FF09270124908607047124908607047AA
S12361E080B5FFF7F5FF1148FEF766F81048FFF7F4FF104A00211048C079FEF7E5F80E485B
S1236200C2780D4881780C484078FDF7C6FF0B48FDF7FDFE0848C0690349086001BD000000
S1236220448004403400FF1F2C00FF1F80670000006CDC02746700006C67000078670000F8
S123624080B5FDF780FE030001225FF461210248FCF788FE01BD00BF00B00E40443A5C730D
S1236260775C6272616E636865735C62726F6E7A655F73626F785C626F617264735C7477DC
S1236280726B3234663132306D5C72746F735F6578616D706C65735C6672656572746F73A9
S12362A05F647370695F72665C6961722F2E2E2F2E2E2F2E2E2F2E2E2F2E2E2F646576696E
S12362C06365732F4D4B32344632353631322F647269766572735C66736C5F706F72742EEB
S12362E068000000443A5C73775C6272616E636865735C62726F6E7A655F73626F785C6405
S12363006576696365735C4D4B32344632353631325C647269766572735C66736C5F636C30
S12363206F636B2E63000000443A5C73775C6272616E636865735C62726F6E7A655F736205
S12363406F785C646576696365735C4D4B32344632353631325C647269766572735C6673E3
S12363606C5F647370692E6300000000443A5C73775C6272616E636865735C62726F6E7A20
S1236380655F73626F785C646576696365735C4D4B32344632353631325C647269766572B2
S12363A0735C66736C5F6770696F2E6300000000443A5C73775C6272616E636865735C6202
S12363C0726F6E7A655F73626F785C646576696365735C4D4B32344632353631325C64725F
S12363E069766572735C66736C5F756172742E630000000002000000040000000600000017
S1236400080000001000000020000000400000008000000000010000000200000004000079
S1236420000800000010000000200000004000000080000002000000040000000800000052
S1236440100000002000000040000000800000000001000000020000000400000008000039
S1236460001000000020000000400000008000000000010046534C5F464541545552455F78
S1236480554152545F4649464F5F53495A456E286261736529203E3D20636F6E6669672DE7
S12364A03E74784669666F57617465726D61726B0000000046534C5F464541545552455FCD
S12364C0554152545F4649464F5F53495A456E286261736529203E3D20636F6E6669672DA7
S12364E03E72784669666F57617465726D61726B0000000019E050F8041BCB0744BFA9F16F
S123650001035918121F0023042A41F8043BF9D25FEA827C0B4604D54FF0000CA1F800C028
S12365209B1CD10744BF0021197050F8042B002AE1D170470948006850F4700007490860EC
S12365404CF22050064908804DF62810044908804FF4E970034908807047000088ED00E0E6
S12365600E200540002005400080000000093D00AAAAAAAA7C6A00000000000000000000EB
S123658000100E000000000090F1FF1F800000000300000000004001000000004453504946
S12365A0206D61737465723A206572726F7220647572696E6720696E697469616C697A61B0
S12365C074696F6E2E200D0A00000000415353455254204552524F52202220257320223AA6
S12365E02066696C652022257322204C696E652022256422200A000010B450F8041B79B1C7
S12366000268436802440830DC0744BFA9F10104E31852F8044B43F8044B091FF9D1ECE77B
S123662010BC7047696E7374616E6365203C2046534C5F464541545552455F534F435F44CB
S12366405350495F434F554E54000000696E7374616E6365203C2046534C5F4645415455D8
S123666052455F534F435F4750494F5F434F554E5400000010B5074979441831064C7C4498
S1236680163404E00A68081D114488470146A142F8D110BD74000000940000004572726FAD
S12366A07220647572696E67205541525420696E697469616C697A6174696F6E2E0D0A0012
S12366C072B60448044901600448804762B604480047000008ED00E0000000003565000067
S12366E0956A00004EF68851CEF20001086840F470000860BFF34F8FBFF36F8F4FF000704E
S1236700E1EE100A70470000EDFDFFFFB4F300003400FF1F00000000E1FEFFFF34000000E3
S123672048FEFFFF0000FF1F00000000C402430A05940000201048000000130000000000BC
S1236740D418097000C40008454CC020CDF1386000F80719701901020F40C06A59C103E221
S1236760E400430344001400071500000702000007000002000B060001020000000014013C
S1236780006CDC0200008000000E27070300000000200300004400007034000002000000DF
S12367A000980300000800007034000076616C69642049443A343030343030303020746F0C
S12367C02034303034464646460D0A0000000000000000140000000000000000000000008A
S12367E0000000000000000050495220656D657267656E6379204F54412073746172742E4B
S12368000D0A0000696E7374616E6365203C20756172744172726179436F756E74000000C8
S123682000F00BF8002801D0FFF724FF0020AFF30080FFF77CFC00F002F80120704700F0ED
S123684001B800000746384600F002F8FBE7000080B5AFF30080024A11001820ABBEFBE7AD
S123686026000200636F6E6669672D3E62617564526174655F4270730000000000A0064079
S123688000B0064000C0064000D0064000A00E4000B00E400A0034100B0034100C00341009
S12368A00D0034100A0028100B0028105246204D534720424C4F434B2054494D454F55548D
S12368C0300D0A005246204D534720424C4F434B2054494D454F5554310D0A004661696C38
S12368E02E506C656173652072657472792E0D0A0000000052665F6765745F6D65737361A2
S123690067655F7461736B00496E697469616C697A6520646F6E652E0D0A000068616E64DD
S12369206C65202626207472616E7366657200000090044000A0044000B0044000C00440E1
S123694000D0044000F00F4040F00F4080F00F40C0F00F4000F10F4053656E642052462001
S123696042757379204E6F770D0A0000255820757064617465207375636573732E0D0A00EA
S123698064656C61795F626C696E6B5F72660000675F7874616C33324672657100000000CC
S12369A08002DC020005B80580079508000A710B675F6473706948616E646C655B305D005D
S12369C0675F6473706948616E646C655B315D00675F6473706948616E646C655B325D005C
S12369E0020000000300000005000000070000000100000003000000050000000700000072
S1236A00786665722D3E6461746153697A6500000FD3128300000000000000006677202584
S1236A206432080800000000756172745F7461736B000000675F7874616C304672657100A1
S1236A406D6367706C6C30636C6B000000C0024000D0024000C00A400C003C100D003C107A
S1236A600C00301072696E674275666665720000786665722D3E6461746100005570646178
S1236A8074652049443A2000202020202020202000000000AFF30080FFF724FEFFF7C0FE24
