S019000068625F626F6F746C6F616465725F6B32342E7372656387
S11300000000032069050000C9050000CD050000BB
S1130010C5050000C5050000C5050000000000007E
S1130020000000000000000000000000D1050000F6
S1130030C505000000000000D5050000D90500003A
S1130040DD050000E1050000E5050000E90500000C
S1130050ED050000F1050000F5050000F9050000BC
S1130060FD05000001060000050600000906000069
S11300700D06000011060000150600001906000018
S11300801D060000C5050000C5050000C5050000EB
S1130090C5050000C5050000C5050000C505000034
S11300A02106000025060000290600002D06000098
S11300B03106000035060000C505000039060000C1
S11300C03D06000041060000450600004906000008
S11300D04D0600005106000055060000C50500004D
S11300E0C5050000C5050000C5050000C5050000E4
S11300F0C5050000C5050000C5050000C5050000D4
S1130100C5050000C5050000C5050000C5050000C3
S1130110C5050000C5050000C5050000C5050000B3
S1130120C5050000C5050000C5050000C5050000A3
S1130130C5050000C5050000C5050000C505000093
S1130140C5050000590600005D06000061060000B8
S11301506506000069060000C5050000C50500002D
S1130160C5050000C50500006D060000C5050000BA
S1130170C5050000C5050000C5050000C505000053
S1130180C5050000C5050000C5050000C505000043
S1130190C5050000C5050000C5050000C505000033
S11301A0C5050000C5050000C5050000C505000023
S11303F0C5050000C5050000C5050000FFFFFFFF9F
S1130400FFFFFFFFFFFFFFFFFFFFFFFFFEFFFFFFF9
S11304200101000100000101532D426F782D324774
S11304302030320000000000000000000000000036
S1130440000001012040202C204A756E2031392003
S1130450323031372C2031343A35333A35350000D7
S11304600000000000000000000000000000000088
S11304700000000000000000000000000000000078
S11304800000000000000000000000000000000068
S11304900000000000000000000000000000000058
S11304A010B5054C237833B9044B13B10448AFF3AA
S11304B000800123237010BD8000FF1F0000000096
S11304C0648A000008B5064B1BB106480649AFF321
S11304D000800648036813B1054B03B1984708BD73
S11304E000000000648A00008400FF1F7800FF1FE2
S11304F000000000154B002B08BF134B9D46A3F5CD
S1130500803A00218B460F461348144A121A05F00C
S11305107CFB0F4B002B00D098470E4B002B00D0D8
S113052098470020002104000D000D48002802D047
S11305300C48AFF3008005F039FB2000290000F0DF
S113054013FF05F01FFB00BF00000800000003209C
S113055000000000000000008000FF1F005C02207B
S1130560000000000000000072B60D480D49016053
S11305700D4880470D490E4A0E4B9A42BEBF51F8B2
S1130580040B42F8040BF8E70B490C4A0020914293
S1130590BCBF41F8040BFAE762B609488047000083
S11305A008ED00E000000000310A00008C8A000021
S11305B00000FF1F7C00FF1F8000FF1F005C022063
S11305C0F5040000FFF7FEBF29480047294800470B
S11305D02948004729480047294800472948004737
S11305E02948004729480047294800472948004727
S11305F02948004729480047294800472948004717
S11306002948004729480047294800472948004706
S113061029480047294800472948004729480047F6
S113062029480047294800472948004729480047E6
S113063029480047294800472948004729480047D6
S113064029480047294800472948004729480047C6
S113065029480047294800472948004729480047B6
S113066029480047294800472948004729480047A6
S1130670C9050000CD050000D1050000D505000026
S1130680D9050000C5050000C5050000C50500002A
S1130690C5050000C5050000C5050000C50500002E
S11306A0C5050000C5050000C5050000C50500001E
S11306B0C5050000C5050000C5050000C50500000E
S11306C0C5050000C5050000C5050000C5050000FE
S11306D0ED23000001240000C5050000C50500004D
S11306E0192A0000C5050000392A0000C5050000CC
S11306F0592A0000C5050000792A0000C50500003C
S113070015240000992A0000C5050000B92A00003C
S1130710C5050000C505000013B5074B01901A7804
S113072032B158689C6801A90122A047012001E068
S11307304FF0FF3002B010BD9C00FF1FF0B5134C0A
S1130740257885B00E461F46DDB9012A22701AD1DC
S1130750606001A802F00AF93A466068019601A9AE
S113076002F08EF86368DA7842F00802DA70DA7818
S113077042F00402DA70064BA360064BE36028469D
S113078002E0012000E0042005B0F0BD9C00FF1F42
S11307909B290000B12900000FB42DE9F04FA34BB1
S11307A01B788DB0002B00F03581002517AC029426
S11307B0AA46A8462E46A946169B93F9000000288F
S11307C000F02681252840F01781169A4FF0000B7F
S11307D092F90100A0F13007092F02F1010106D8B6
S11307E00A2202FB0B0BABF1300B0A46F0E72E2872
S11307F006D10A46013192F9010030380928F8D9A6
S1130800531C5278169350B2642812D0692810D021
S113081002F0DF0149B246292BD0582929D06F3A7A
S1130820012A26D9622852D0752840F0B5800122C9
S113083067E021680CAA271D002402F8244D21B981
S113084030218DF80D10012610E001240A2691FBB9
S1130850F6F306FB13110029B4BFC1F130013031A6
S11308601155264601340BB11946EFE702EB060990
S11308703C46582803D078282BD1002200E00122DE
S113088025680CA9271D002401F8244D25B930241E
S11308908DF80D40012616E02E4601243309A6EBFF
S11308A00316092E01D8303607E0002A14BF4FF092
S11308B041094FF061090A3E4E440E552646013463
S11308C00BB11E46EAE701EB06093C4602E00122B1
S11308D009E001226F2804D1271D25684FF008087C
S11308E01AE0622804D1271D25684FF0020813E09E
S11308F0702804D1271D25684FF010080CE07528D6
S113090004D1271D25684FF00A0805E06228274610
S113091002D0702840F081800CA9002001F8240D39
S113092025B930228DF80D20012615E02C46012032
S1130930B4FBF8F308FB1344092C01D8303405E068
S1130940002A0CBF612641260A3C34440C54064656
S113095001300BB11C46EBE701EB06095446CAEB28
S1130960060222445A4504DA2020FFF7D5FE01345A
S1130970F5E7B9F1000F45D04A46CB461319CBEB46
S1130980030AD9461BF8010900283CD040B2009262
S1130990FFF7C2FE009AF1E7632807D194F900003B
S11309A0271DFFF7B9FE0AF1010A2CE0732823D1B1
S11309B0271D24683CB3204605F02FF95246014612
S11309C00646CAEB01001044584508DA202001917C
S11309D00092FFF7A1FE009A01990132F1E79246D5
S11309E0A11A11F80A0070B140B200920AF1010A8A
S11309F0FFF792FE009AF3E7FFF78EFE0AF1010A71
S1130A00274600E0A246169B013316933C46D3E6E4
S1130A10504605E04FF0FF3002E075289ED17BE799
S1130A200DB0BDE8F04F04B0704700BF9C00FF1F3D
S1130A30084BD3F8882042F47002C3F88820064B90
S1130A404CF22052DA814DF62812DA814FF4E97221
S1130A501A80704700ED00E00020054070B537486B
S1130A60374C86B0FFF798FE364B37481B88ADF8F5
S1130A7000300F216A4601F0DDFE03A800F05EFE9F
S1130A80204603A900F0FEFD236A23F040032362FD
S1130A90204600F06BFE08B92C4800E02C48FFF714
S1130AA07BFE0823019300238DF808308DF809306C
S1130AB00A242348002101AA00F0AAFE204D0021A7
S1130AC0284600F0B4FE0306F8D52D69214840F607
S1130AD0E44240F6FF736A43B2FBF3F240F2BE53C2
S1130AE05A434FF47A73B2FBF3F22946FFF754FEEC
S1130AF0194B1A491E691A4B1A48C6F38016002E60
S1130B0018BF1946FFF748FE40F60C439D4212D821
S1130B105EB1012C06D11448FFF73EFE0A4B4FF498
S1130B2000429A604FF4967001E040F6B83004F049
S1130B3093FF013CBDD106B070BD00BF7A5C0000DC
S1130B4000B00340305C0000C0F00F40995C00002E
S1130B50BB5C0000DF5C000040F00F40765C0000EE
S1130B606E5C0000005D00000D5D00000148FFF7B1
S1130B7013BE00BF1B5D0000891A10B54C424C41E6
S1130B8003461CB902481946FFF706FE204610BD6D
S1130B903C5D000030B589B003AD00211422284625
S1130BA005F033F81C481D4CFFF7F6FD4FF47C3379
S1130BB023601B6C1A48DAB2190E0092C3F3074281
S1130BC0C3F30723FFF7E8FD236816485B6ADAB22C
S1130BD0190E0092C3F30742C3F30723FFF7DCFDAA
S1130BE0114B12481A6823681B6C53604FF47E61E2
S1130BF02A4604F00FFF22680023E85CD15C884297
S1130C0001D00B4803E00133142BF6D10948FFF758
S1130C10C3FD09B030BD00BF555D00000452022081
S1130C20775D0000975D00000C00FF1F20F00300BB
S1130C30B75D0000D45D00002DE9F04188B003AE3B
S1130C401422074688463046002104F0DEFF31486E
S1130C50314DFFF7A1FD3048FF214FF48A5204F0D3
S1130C60D4FF002400211422304604F0CEFF2B468A
S1130C7057F824102948424600F086FCFF214FF41F
S1130C805032274804F0C1FF29464FF4B862244883
S1130C9004F0B2FF2B6C2348C3F307220092DAB2AC
S1130CA0019221461A0EC3F30743FFF775FD6B6AE1
S1130CB01D48C3F307220092DAB2019221461A0EAC
S1130CC0C3F30743FFF768FDD5F8A03001330ED016
S1130CD016484FF47E61324604F09CFE0023F15C1A
S1130CE0EA5C91420BD012482146FFF755FD0134CE
S1130CF0032C05F5B865B5D108B0BDE8F081013322
S1130D00142BECD10B482146FFF746FD0A4B012278
S1130D101A55ECE7F45D0000C04002200C5202209A
S1130D20C000FF1F165E0000335E0000E000FF1FDE
S1130D30505E0000735E000000520220204B2DE93B
S1130D40F7431A681F4F204D166C00223A70022494
S1130D509846A9461D4BE35C93B1D5F8202C01328B
S1130D600ED0D8F800202046516AD5F8A42BFFF7FE
S1130D7003FF28B1721CD5F8C03B1BD0B34219D86D
S1130D80013CA5F5B865E5D1397889B14FF4B8636C
S1130D9003FB01930E481B6CC3F307220092DAB2E3
S1130DA001921A0EC3F30743FFF7F6FC012004E097
S1130DB0204602E03C701E46E2E703B0BDE8F08343
S1130DC0045202200400FF1FC040022000520220EF
S1130DD0995E00002DE9F04F824695B053480C46C9
S1130DE017469846FFF7D8FC07A80021342204F0E0
S1130DF00CFF07A801F0A2FB20B14D48FFF7CCFC83
S1130E00002090E04B48FFF7C7FC0A9D6B1E1C4472
S1130E10240B654307A84FF410412A46464B01F0C2
S1130E2073FC08B145481BE04FF410412246444886
S1130E30FFF7B2FC07A84FF410412A46012301F042
S1130E40B9FB08B13F48D9E73F48FFF7A5FC07A81D
S1130E504FF4104152462B4601F09AFC30B13B4806
S1130E604FF410412246FFF797FCC9E722464FF49E
S1130E70104137484FF0010B05AE06ACFFF78CFC70
S1130E80CDF800B00196029407A84FF410412A4609
S1130E90534601F0D5FB08B12E48AFE72E48FFF7C3
S1130EA07BFC07A84FF47C310A9A234B01F02CFCFD
S1130EB008B12A482CE04FF47C312948FFF76CFC38
S1130EC007A84FF47C310A9A5B4601F073FB0028B3
S1130ED0B8D11D48FFF760FC07A84FF47C313A46AF
S1130EE0434601F055FC08B11E4811E04FF47C3133
S1130EF01D48FFF751FCCDF800B00196029407A8F5
S1130F004FF47C3142463B4601F09AFB28B1174826
S1130F104FF47C31FFF740FC72E715484FF47C3105
S1130F20FFF73AFC584615B0BDE8F08FD95E0000D3
S1130F30FD5E00000F5F00006B66656B225F0000C2
S1130F404E5F00007A5F0000945F0000AE5F000017
S1130F50DC5F00000A6000002560000041600000C2
S1130F605F6000007E6000009E600000C0600000C2
S1130F70E6600000F8B51748174E184CFFF70CFC54
S1130F804FF0FF33336000270225154BEB5C83B130
S1130F90D4F8A03001330CD0124B616A1B68284688
S1130FA05A6AFFF7E9FD20B17A1C236C0ED0BB42CC
S1130FB00CD8013D6B1CA4F5B864E6D13168002956
S1130FC002DB0948FFF7E8FB3068F8BD35602746C7
S1130FD0EFE700BF0D6100000800FF1F404C022036
S1130FE000520220045202202061000070B588B033
S1130FF003AC1E4D14220021204604F006FE2B688B
S11310001B48D3F8A46006F6FF76360B3146FFF78B
S1131010C3FB22464FF41040310304F0FBFC2A6862
S11310200023D118E05C91F8A015884204D011483F
S1131030FFF7B2FB002017E00133142BF1D10E4867
S1131040FFF7AAFB2B680D481B6CDAB20092190E4D
S1131050C3F30742C3F30723FFF79EFB084B1A6849
S11310602B681B6C9360012008B070BD04520220F1
S1131070396100005661000070610000775D000076
S11310800C00FF1F2DE9F04FADF5065D85B0074656
S113109088467A48079239469B46FFF77DFB784A93
S11310A009AB02F11005106851681C4603C40832EC
S11310B0AA422346F7D1127822700DF1350003229B
S11310C0002104F0A2FD6F4A1DAB02F12005106857
S11310D051681C4603C40832AA422346F7D1127849
S11310E02270002107220DF1950004F08EFD0021ED
S11310F04FF4805264A804F088FD0DF58C50002153
S11311004FF48052103004F080FD18AE00211422F8
S11311100EA804F07AFD00211422304604F075FD77
S113112027AA4FF480711DA803F0ECF90024564857
S1131130089408A900F026FA544B4FF4B86202FB55
S113114007330BF6FF7BA8334FEA1B3B0693454658
S1131150079AC8EB0203069A4FF0140A5C452B4425
S11311600AFB042C5FDAFF214FF4805264A8CDF807
S113117010C0059304F049FD0DF58C50FF214FF488
S113118080520DF14C09103004F03FFD524600210D
S1131190484604F03AFD524609A90EA804F02CFD75
S11311A0059B394819464FF4805264AB00F0ECF9C2
S11311B064A84FF480514A4604F02CFCDDF810C0BA
S11311C04FF0000A19F80A201CF80A309A420AD093
S11311D02F48611CFFF7E0FA2E4B1B6802221A60AD
S11311E083F80CA03BE00AF1010ABAF1140FE9D12B
S11311F00EAB0093002301930DF58C510123029350
S113120010314FF4805227AB64A803F0C7FA0DF5F0
S11312108C51284610314FF4805204F0EDFC05F552
S11312208055013494E71C48FFF7B6FA324640462D
S11312304FEA0B3104F0EEFB144B4FF4B86202FB9F
S113124007370023FA18F15C92F8A025914208D0E0
S11312501248FFF7A1FA0F4B1B6803221A60002003
S113126006E00133142BEDD10D48FFF795FA012068
S11312700DF5065D05B0BDE8F08F00BF806100008C
S1131280325C0000465C00000C520220C040022088
S1131290A06100000C00FF1FB66100005F61000048
S11312A07061000070B51F48FFF776FAFFF79EFEE5
S11312B00446002833D11C48FFF76EFAFF214FF48F
S11312C050321A4804F0A1FCFFF754FE002826DB34
S11312D0174C184B2068184E53F8202013494FF42C
S11312E0B86505FB006302F58052C0B2D3F8A430A0
S11312F0FFF7C8FE78B122680C4805FB02622B4652
S1131300D2F8A410FFF766FD0C4B1B6804221A6088
S1131310FFF740FCC7E72368094AD054C3E72046D7
S113132070BD00BFCD610000EE610000C000FF1F72
S11313300800FF1F94620000C04002200C00FF1F41
S11313400052022082B00090009B5A1E009243B1CA
S113135042F6E0630193019B002BF5DD019B013B09
S1131360F8E702B070470000F7B5434C04F0B4FB53
S113137004F084FB04F062FB4048FFF70DFAFFF72A
S11313806DFB00211022206804F03FFCFFF7EEFB08
S1131390FFF700FC00F038F903220021384804F07C
S11313A034FC38484FF4B861FFF746FC364B002252
S11313B01A702746FFF7C2FC60B3344E3448354DEB
S11313C0FFF7EAF9FF214FF45032334804F01DFCD3
S11313D030782C4B304953F820204FF4B86404FB88
S11313E0005302F58052D3F8A430FFF74BFE327855
S11313F068B104FB02522848D2F8A4102346FFF730
S1131400E9FC0028D6D03B6801221A6002E01C4B9C
S11314109854CFE7FFF746FFA0B92048FFF7BCF97F
S11314201F4B20481B88ADF804300F2101AA01F09E
S113143001FA1C4B4FF40042DA604FF4FA70FFF7E4
S113144081FFF6E71848FFF7A7F94FF4104649F271
S1131450040316481D68346800F064FD144B1C60D6
S1131460144B1D60144B9E6084F3088884F3098830
S1131470A84703B0F0BD00BF0C00FF1F1D620000B1
S11314800052022094620000085202200400FF1F50
S113149034620000C0400220C000FF1F52620000FE
S11314A0305C0000C0F00F407262000000D00240C7
S11314B0AC00FF1FB000FF1F00ED00E002B900BF49
S11314C07047030A8870000C08704B700320704743
S11314D0F0B587B0054606AC24480F46FFF75CF923
S11314E090230DF10101002004F8183DFFF7E9FFF6
S11314F00423049329464FF4401300261C48029405
S113150002AA0396059300F0D1FE054620B11948BE
S1131510FFF742F9304627E0FF238DF804308DF8B9
S113152003308DF802308DF801308DF8003002233D
S1131530029004930E48104903944FF4801302AAB6
S1131540059300F0B3FE20B10C48FFF725F92846B7
S11315500AE09DF800109DF80130094843EA012192
S11315603960FFF719F9012007B0F0BD29630000C5
S113157000D00240336300000C520220506300008C
S11315806D630000FFF7A4BF2DE9F04186B006ACFF
S113159005469846084603230DF1010104F8183D59
S11315A01746FFF78EFF0423049300264FF44013DD
S11315B012480294294602AA0396059300F076FE87
S11315C0044620B10E48FFF7E7F8304612E00290D7
S11315D04FF480130948CDF80C80294602AA0497D9
S11315E0059300F063FE20B10648FFF7D5F82046C6
S11315F000E0012006B0BDE8F08100BF00D0024049
S1131600CF630000F363000070B5174C174B6360A1
S11316100823A3601423002523616361A3610220CE
S1131620012323776377257025736573A573A577E5
S1131630E57784F8205084F8215000F031FA0C4EFC
S11316400C4B024618602146304600F07FFD0A4BE1
S11316500A49502283F81B2330462B46084ABDE82A
S1131660704000F00DBE00BF3C52022080F0FA0230
S113167000D002406052022000E100E00C5202203F
S1131680BD1400002B4B984230B506D003F500235F
S1131690984214BF0223012300E00023264A52F893
S11316A02320130C03F1804303F58E2392B21C68AC
S11316B0012505FA02F222430C791A604B784A7923
S11316C0A40003F0030304F00C041C43CB78042AA5
S11316D04FEA431318BF44F0100403F0600323439C
S11316E0CC790CB143F080038360C368042A18BF2B
S11316F002F0030223F00F0318BF13438A790AB1DF
S113170043F004038A780AB143F00803C360026A11
S11317100B7822F0030203F00303134303620B7AF2
S11317201BB1436A43F0080302E0436A23F0080351
S1131730436230BD00B003409C64000001220023DA
S1131740032182700271042203704170C1704271DE
S11317508371C371037270470346006A5B6A00F0C9
S113176080005B0648BF40F040007047F7B5066A4A
S113177016F04006044604D0036A23F040030362D3
S11317800126636A43F0C003636223681A0606D421
S11317902046FFF7E1FF4106F7D5012500E00025CB
S11317A0236901931EB1236A43F040032362204658
S11317B0FFF7D2FF430628D43DBBE36CA76C666CED
S11317C0206CE16BA26B3B44334403440B4413444D
S11317D00193019B5B0843F400430193019BE36283
S11317E0E36EA76E666E206EE16DA26D3B443344DA
S11317F003440B4413440193019B5B0843F40043EB
S11318000193019B2363284600E0012003B0F0BD4F
S113181010B51368547903F01F030CB143F020038F
S113182012790AB143F0400340F8213010BD50F85A
S1131830210000F080007047084B1B7B03F003037A
S1131840012B07D004D30648022B18BF0020704791
S1131850044B00E0044B1868704700BF004006408A
S1131860006CDC02645202206852022010B5124C53
S1131870A379DB061DD4FFF7DFFFE0B1237861789D
S1131880227BC3F3C20311F0300F20FA03F002F0FD
S1131890030200D00AB1022A0DD1062B03D0072B74
S11318A003D0400910BD142300E00C23B0FBF3F077
S11318B010BD024B186810BD004006401000FF1F09
S11318C0074B9A79D20702D4064B18687047187AE6
S11318D0054B1B68C0F3420023FA00F0704700BFB9
S11318E0004006401000FF1F1400FF1F034B1B782D
S11318F01B0646BF024B1868002070470050064084
S11319006452022008B50D4B1B68C3F38143022BBC
S11319100ED0032B09D073B9FFF7E8FFB0F5004FE1
S113192014BF00204FF4004008BD4FF47A7008BD86
S1131930034B186808BD002008BD00BF00700440B8
S1131940685202200F4B426841F2440110B55A50CC
S113195041F20402995841F01001995001789C58C1
S1131960090401F4403124F440342143995042786D
S11319701968920402F4402221F440210A431A60B7
S113198010BD00BF0070044010B50D4C637803F027
S1131990020303F0FF008BB9A3799B060FD4FFF772
S11319A065FF60B1E278E378C2F34112520002EBC2
S11319B0D312044B33F81230584310BD002010BD2D
S11319C000400640A4640000044B1B7803F00203AB
S11319D003F0FF000BB1FFF773BF704700400640F0
S11319E010B50A4CA37903F0400303F0FF0063B180
S11319F0FFF722FF237903F01F030133B0FBF3F356
S1131A00607900F01F001830584310BD00400640B4
S1131A1041F20403074AD358C3F30143012B07D00F
S1131A2004D30548032B18BF00207047FFF7ACBF51
S1131A30FFF7D6BF00700440006CDC02084B9B79B2
S1131A40C3F38103022B09D0032B03D0012B03D052
S1131A50FFF79ABFFFF7C4BFFFF732BFFFF7ECBE33
S1131A600040064008B5FFF7E9FF054A41F2440388
S1131A70D358C3F303630133B0FBF3F008BD00BFD5
S1131A800070044010B5FFF7F1FE044638B1FFF7CB
S1131A90D5FFB4EBD00F94BF2046002010BD10BD7D
S1131AA008B5132846D8DFE800F00C451445204556
S1131AB0292D4145453135393D4545450A4720489D
S1131AC008BDFFF7BBFF41F244031E4AD3581B0F66
S1131AD007E0FFF7B3FF41F244031A4AD358C3F3B4
S1131AE003630133B0FBF3F008BDFFF7A7FF41F236
S1131AF04403144AD358C3F30343F2E7BDE8084050
S1131B00FFF786BFBDE80840FFF7FCBEBDE808400C
S1131B10FFF7B8BFBDE80840FFF756BFBDE808406F
S1131B20FFF732BFBDE80840FFF75ABFBDE80840E1
S1131B30FFF7DCBE002008BD4FF47A7008BD00BF7B
S1131B40006CDC020070044010B50E4B1A7B197B4C
S1131B5000F0030401F0FC01214302F003021973B5
S1131B6028B959784C0702D599798907FCD582425E
S1131B7005D040F2DD53013B01D000BFFBE700205C
S1131B8010BD00BF0040064070B51E4B9C799D7986
S1131B901E7AC6F34206B242C4F38104EDB219D0F0
S1131BA0ED0709D4174B1D7A520002F00E0205F01E
S1131BB0D0052A431A720DE0012C02D01B789E072F
S1131BC0F0D5104B5D7805F0FE055D709D79ED074D
S1131BD0FCD4E7E70B4B5D7801F0010205F0FE054C
S1131BE02A435A701A7802F0FC020243012C1A703C
S1131BF001D0820704D59A7902F001028A42FAD10F
S1131C00002070BD0040064042780B4B02F01F02DA
S1131C101A715A79817802F0E00201F01F010A4337
S1131C205A71197902780A4342F040021A719A797A
S1131C305206FCD5704700BF00400640036849F6D1
S1131C409702934230B505D912498B428CBF0221C9
S1131C50012100E00021104B04791A7802F0F0020F
S1131C6022431A701A78847902F05F0222431A70B0
S1131C700A4A4579547804F0C3042C4344EA011118
S1131C805170417929B11B78190602D593799B07C4
S1131C90FCD530BD00127A000050064000400640DA
S1131CA010B5124B5A7802F0FD025A701A7802F0FD
S1131CB03B0242F080021A7098790C4A00F01C0032
S1131CC00828F9D1537903F0BF035371074CA37962
S1131CD09A06FBD40846FFF797FF637943F0400365
S1131CE06371A3799B06FCD5002010BD004006401B
S1131CF038B515460C46FFF727FF20462946FFF75F
S1131D00CFFF064B1A7802F03F021A70034B9B79FF
S1131D10C3F38103032BF9D1002038BD00400640F2
S1131D204278837812071B0403F47C1302F0E04228
S1131D301A43037842EAC372C378DB0603F00063F4
S1131D401A4303799B0603F08060104370470B68C5
S1131D50082B03D8C36A9A013BD47047C36A9B011A
S1131D6000D47047CA698B69D21A0B7BB3EB520F4C
S1131D702ED98B69022B0B6910D85BB18B69012BAF
S1131D800B691B7806D00A6901320A610A69127864
S1131D9043EA022300228A618A6810E05BB10B697E
S1131DA00A691B7801320A610A69127843EA02233C
S1131DB00A6901320A618A69023A8A614A681343EC
S1131DC043634FF00073C3628B69002BC6D1704725
S1131DD07047CA698B69D21A0B7B9A4217D20B6976
S1131DE023B10B690A691B7801320A618A69012AE5
S1131DF00CBF8A684A68134343634FF00073C3629D
S1131E008B69013B8B618B69002BA3D170477047B1
S1131E10CB6970B505460C463BB9A369002B44D089
S1131E2028462146FFF793FF3FE00B68082B14D8A0
S1131E30EB6A9A0327D4F0E74FF40032AB6BEA6203
S1131E406269D2B1E269012A6269137009D1E36956
S1131E50013BE361E369002BDFD0EB6A9B03DCD534
S1131E60EAE76269013262616269C3F307231370AE
S1131E70636901336361E36903E0E369012BE369A7
S1131E80E6D0023BE5E74FF40033AA6BEB626369EB
S1131E9023B163691A70636901336361E369013BC8
S1131EA0E361E369002BC3D1B7E7A369BBB9E36975
S1131EB0ABB92B6BA66A23F0007323F400332B63B6
S1131EC094F8243040F25922022B18BF00221EB18C
S1131ED028462146E36AB047002384F8243070BDC5
S1131EE008B50368002BB4BF024B034B1B6898472B
S1131EF008BD00BF785202207C520220084B984251
S1131F000AD003F58053984208D003F5FE23984283
S1131F1014BF03200220704700207047012070473F
S1131F2000C00240026842F0010208B50260026883
S1131F3042F480420260FFF7E1FF084B53F820208F
S1131F40130C03F1804303F58E2392B21968012028
S1131F5000FA02F221EA02021A6008BD5865000084
S1131F602DE9F04F85B003910168009300294CDA04
S1131F7000245900019101274FF0FF31A046A446E7
S1131F802646244D55F8265002950025DFF88C90FE
S1131F90029B59F825A00AFB03FA009BB3FBFAF94C
S1131FA04A4508D3C9EB020B594504D959464C4656
S1131FB0A846B446012769B1019BB3FBFAFA52451E
S1131FC008D3CAEB0209494504D949465446A846F0
S1131FD0B44602270135102D01D00029D6D101368F
S1131FE0042E01D00029CCD1DDF80C900A4B00EB73
S1131FF08900013FC268134048EA030848EA0C4CD0
S11320004CEAC777C760204600E0002005B0BDE871
S1132010F08F00BFF4640000F0FFFC7FB4640000A4
S113202030B505689DF80C40002D33DA022C11D030
S1132030032C20D0012C2DD100EB81009205C46823
S11320401B0302F440029BB224F44004134324F41F
S113205070440DE000EB81001205C4681B0202F419
S1132060401203F4706324F44014134324F47064A2
S11320701C43C46030BD00EB81009204C1681B01A5
S1132080DBB202F440221A4321F4402323F0F0038C
S11320901343C36030BD00002DE9F74F04680C9F63
S11320A0002C8446894645DA244CB4FBF3FA244CCC
S11320B0B4FBF3F44FF4E028640008FB0AF8BC42D4
S11320C04FEA980806D200254FF0FF364FF0030B75
S11320D00F2317E0009200221346FFF7A1FF2046CA
S11320E029E05EB1174951F8241001FB00FE4FEAC4
S11320F09E0EBE450DD20134102CF2D10135042DB3
S113210010D07EB1104951F82500002400FB0AF0DC
S1132110E8E7C7EB0E018E42EDD90E46F0462346A2
S1132120AB46E8E70092604649465A46FFF778FF17
S1132130404600E0002003B0BDE8F08F00286BEEBD
S113214000CA9A3B046500004865000073B50C465C
S113215005461646FFF7D2FE404B53F82020130CD9
S113216003F1804303F58E230120196892B200FA2B
S113217002F20A431A602B68A17F94F8202023F40A
S113218080432B602B6803432B602B6843F0004390
S11321902B602B688907920601F0804102F080626F
S11321A023F08A430A4323F44C531343E27F617FB1
S11321B0120602F08072134394F82120120202F4F2
S11321C0407213432B60237F2A681B04814203F46B
S11321D07C130CBF134322EA03032B60217862684B
S11321E033462846FFF7BCFE2378A26805EB830339
S11321F0013AD968D20621F0FE4102F0F0420A43C6
S1132200217B890601F080610A43617B490601F064
S113221000710A43A17B090601F080710A43DA6068
S1132220236921780093284633460122FFF734FFBF
S1132230636921780093284633460222FFF72CFF76
S1132240A36900932178334628460322FFF724FF2D
S11322502B6823F001032B6002B070BD58650000A9
S11322608A0103D5036B23F0807303638B0303D5C7
S1132270036B23F480330363036B194301637047D7
S1132280F8B50C46074615460846302200211E467E
S113229003F0BBFC3846FFF731FE034BA56243F85D
S11322A02040E662F8BD00BF6C52022093682DE91D
S11322B0F34704460D461646002B00F0818091F842
S11322C02430012B7ED0012781F824700368D2F8D2
S11322D00C903B430360036843F4406303603C4B4E
S11322E0C362C9F3031307FA03F38DF802300DF147
S11322F00808002309F00F0A8DF803308DF8043024
S11323006846C9F3005308F8083D8DF801A0FFF7AB
S113231007FDC9F34059686068468DF803708DF86D
S11323200090FFF7FDFC0AF1020A04EB8A03A8609F
S11323305B68C3F3C3633B442B602368DA0402D4B1
S113234023689B0402D501232B730EE0214B9C428E
S113235009D003F580539C4206D01F4FBC4214BFE2
S1132360FF27012700E004272F7333682B6173686C
S11323706B61B368AB61B368EB61B3682B622368CC
S113238023F0010323602046FFF7B8FD134B1B5CC9
S1132390012259B203F01F0302FA03F34909104A58
S11323A0204642F821302946FFF7D1FC0D4B0E4A56
S11323B01A6020464FF40031FFF752FF002003E07B
S11323C0042001E04FF4167002B0BDE8F08700BFAE
S11323D000000ADA00C0024000C00A404465000060
S11323E000E100E078520220111E0000024B034875
S11323F01968FFF775BD00BF6C52022000C002408F
S1132400024B03485968FFF76BBD00BF6C520220B2
S113241000D00240024B03489968FFF761BD00BF3A
S11324206C52022000C00A4038B1C3693BB11B683A
S1132430022B0CBF00206D207047042070476D20D4
S11324407047000010B50D4C70232370FFF7ECFFAC
S113245090B90B4B20461B6898472378DBB299064A
S113246007D4DA0607D413F0010F0CBF002069204B
S113247010BD672010BD682010BD00BF00000240E1
S1132480C052022010B578B1013B41EA0204234254
S11324900CD1036899420BD3406811440344994218
S11324A08CBF6620002010BD042010BD652010BD27
S11324B0662010BD70B50E4614460546B8B11046E8
S11324C00021202203F0A1FB2B686A68F31A236021
S11324D0EB686360AB68B2FBF3F3A36010220423E0
S11324E0E36022616261A361E361002070BD0420A6
S11324F070BD000038B5B0B1C4690C4965680C22E0
S1132500284603F079FB0A4B0A4901351D60A5688A
S11325101422284603F070FB074B01351D6002238B
S11325202360002038BD042038BD00BF966500003C
S1132530C052022082650000C452022038B504460D
S113254000282BD0164A41F24C030025D3580560CD
S1132550C3F303630F2B18BF124A456118BF32F847
S11325601330856114BF9B024FF480234360012321
S113257083604FF48053C3600561FFF755FF48B192
S1132580094B0A4A5A60E361094A1D6020469A6071
S1132590FFF7B0FF00202062606238BD042038BD20
S11325A00070044064650000C8520220D452022026
S11325B0805202202DE9F04788B007460D461446A4
S11325C06A469946FFF776FF384629462246059B18
S11325D0FFF758FF78BB294638466A46FFF76AFF7B
S11325E0009DDDF808806B42C8F100061E4076426B
S11325F0AE424FEA092908BF464449F0FF0ACCB16C
S1132600059A0E4BC5EB0609A14528BFA146B9FBA7
S1132610F2F225F07F4141F080714AEA02421960EA
S113262038465A60FFF70EFF28B9C9EB04044D443D
S11326304644E4E7204608B0BDE8F08704000240C1
S11326402DE9F04788B007460E461446DDF844806D
S1132650DDF848901D46002B35D06A46FFF72AFF67
S1132660384631462246079BFFF70CFF60BB9DF8B6
S113267040A0009E4FEA0A6A6AF07F4A0CB3144BEA
S113268026F07F4242F000721A60C3F804A0114A97
S11326902B6813603846FFF7D5FE58B1B8F1000F28
S11326A001D0C8F80060B9F1000F0DD00023C9F8BB
S11326B0003009E0079B23F00302E41A15441E448A
S11326C0DCE7204600E0042008B0BDE8F08700BF46
S11326D0040002400C00024080B584B000AF786072
S11326E07868FFF7A1FEF860FB68002B00D003E0D8
S11326F0034B1B68034898471037BD4680BD00BF95
S1132700C452022004F001402DE9F04788B0074686
S11327100C4690466A469A46FFF7CCFE3846214658
S11327204246049BFFF7AEFE064650BB9DE83000D0
S1132730631E9844B8FBF5F305FB13827AB103FBDF
S1132740055808F1FF380AE03846FFF77BFE3B697D
S1132750814603B19847B9F1000F0DD12C4444458B
S11327600BD8094B24F07F4242F010621A60074BE9
S11327709A45E9D06B2004E04E463846FFF7ACFF9B
S1132780304608B0BDE8F087040002406B66656B14
S11327902DE9F043064689B00D461F461446002A2B
S11327A040D06A46FFF786FE294630463A46039BE8
S11327B0FFF768FE0546002835D1DDF8008067B3D1
S11327C01A4A23681360039B042B04F1040909D1FA
S11327D003F1804328F07F4203F5003342F0C062E6
S11327E01A600CE0082B0AD1114B62681A6028F0B9
S11327F07F4242F0E06204F1080943F8082C3046B5
S1132800FFF720FE3369044603B1984724B9039BBC
S11328104C469844FF1AD2E725463046FFF75CFF42
S1132820284600E0042009B0BDE8F0830800024017
S11328300C00024010B5147801232CB942698B4076
S113284022EA0303436110BD52788B400AB98360C6
S113285000E043604369012202FA01F11943416136
S113286010BD00000023054A52F82320824202D002
S11328700133062BF7D11846704700BFA46500004A
S1132880F8B50B680E461901B2FBF1F5ADB2002D97
S113289008BF01254FEA421CBCFBF1F1C5EBC5277B
S11328A001EB4717BFB207EB45115200B2FBF1F23F
S11328B06421D21AB3FBF1F303EB43039A420446B7
S11328C04ED8FFF7CFFF284B53F82020130C03F109
S11328D0804303F58E2392B21968012000FA02F2B4
S11328E00A431A60E37803F0F303E370237803F0F8
S11328F0E00343EA1523EDB223706570A37A07F071
S11329001F0703F0E0031F43A772A378327903F093
S1132910EC0312B142F010021343A37073792278CE
S11329205B0102F0DF0203F0200313432370B37949
S1132930E374F3796375237C43F088032374637C25
S113294043F0C0036374E378327ADBB20AB143F034
S11329500803727A0AB143F00403E3700020F8BD5F
S113296040F2F530F8BD00BFBC6500004FF4E13320
S1132970036001220023037143718371C2710372E6
S11329804372704702794179037B807C1B0443EADC
S11329900123134343EA006070470A44914206D07E
S11329A003791B06FCD511F8013BC371F6E77047A8
S11329B070B505460C468E18B44213D0AB7D6BB986
S11329C02846FFF7DFFF03070ED441070FD4820721
S11329D010D4C307F2D54FF47D7070BDEB7904F8C1
S11329E0013BE9E7002070BD40F2F13070BD40F2D8
S11329F0F23070BD40F2F33070BD000008B5034AF8
S1132A00034B04481B681168984708BD18530220FB
S1132A101453022000A00640FFF7F0BF08B5034A94
S1132A20034B04481B685168984708BD185302209B
S1132A301453022000B00640FFF7F0BF08B5034A64
S1132A40034B04481B689168984708BD185302203B
S1132A501453022000C00640FFF7F0BF08B5034A34
S1132A60034B04481B68D168984708BD18530220DB
S1132A701453022000D00640FFF7F0BF08B5034A04
S1132A80034B04481B681169984708BD185302207A
S1132A901453022000A00E40FFF7F0BF08B5034A0C
S1132AA0034B04481B685169984708BD185302201A
S1132AB01453022000B00E40FFF7F0BF2DE9F74F8A
S1132AC00191002800F0EE85002900F0EB85002A32
S1132AD000F0E88590F80380136890F807C0C77A7F
S1132AE090F80F90E84C88EA030390F8008083EA9A
S1132AF0086390F8018083EA0848837888EA032809
S1132B0053688CEA030390F804C083EA0C6390F8DA
S1132B1005C083EA0C4C83798CEA032C93687B40D0
S1132B20077A83EA0763477A83EA0747837A87EA5F
S1132B300327D36889EA030390F80C9083EA0963B6
S1132B4090F80D9083EA0949837BD04889EA0329E8
S1132B504FEA18615FFA89F354F8215050F8233092
S1132B60CB495D4013695D40CCF307434FEA1C6ACF
S1132B7051F82360C74B54F82AA07540C7F30726C1
S1132B804FEA176B53F8266054F82BB06E4000964A
S1132B905FFA88F6009D50F826608AEA060A5669AC
S1132BA08AEA060AC7F30746FFB251F8266050F8CE
S1132BB027708AEA060AC9F3072653F826608AEAC8
S1132BC0060A5FFA8CF6CCF3072C50F826608BEAE1
S1132BD0060B96698BEA060BC9F307464FEA196997
S1132BE051F8266054F829908BEA060B89EA070904
S1132BF0C8F30726D76953F82660C8F3074889EA5B
S1132C00070951F8287089EA070853F82C7088EAF4
S1132C1007075FFA87FC4FEA156850F82CC054F890
S1132C202880156A88EA0C0CCAF307488BEA060662
S1132C3051F828808CEA050C8CEA080CC6F30728A6
S1132C40009D53F828804FEA1A698CEA080C5FFA51
S1132C5085F854F8299050F82880556A89EA0809BB
S1132C60C6F3074889EA050951F82880956A89EA74
S1132C700809C7F307284FEA166B53F8288054F85D
S1132C802BB089EA08095FFA8AF8F6B250F828806E
S1132C9050F826608BEA0808C7F3074B3F0E51F83B
S1132CA02BB054F8277088EA0508009D88EA0B08C1
S1132CB0C5F3072BC5F307457740D66A51F825506D
S1132CC053F82BB0CAF3072A7E406E4053F82A50BB
S1132CD06E404FEA1C67F5B254F8277050F825503F
S1132CE06F40156B7D40C9F3074788EA0B0851F81C
S1132CF027707D40C8F307274FEA196A53F82770F5
S1132D006F405FFA8CF5009750F8255054F82AA0CC
S1132D108AEA050A556B8AEA050AC8F307454FEAA9
S1132D20186B51F8255054F82BB08AEA050AC6F3FB
S1132D30072553F825508AEA050A5FFA89F5C9F38D
S1132D40072950F825508BEA050B956B8BEA050B88
S1132D50C6F30745360E51F8255054F826608BEA21
S1132D60050BCCF30725CCF3074C53F825508BEA1D
S1132D7005055FFA88FB50F82B8086EA0808D66BB5
S1132D8088EA060851F82C6088EA060C53F8296092
S1132D908CEA06064FEA17685FFA86FC54F8288026
S1132DA050F82CC0176C88EA0C0CCAF307488CEA5C
S1132DB0070C51F82880009F8CEA080CC5F30728FB
S1132DC04FEA1A6953F8288054F829908CEA080CC1
S1132DD05FFA87F8576C50F8288089EA0809C5F328
S1132DE0074889EA070951F82880976C89EA080995
S1132DF0C6F307284FEA156B53F8288054F82BB014
S1132E0089EA08095FFA8AF8EDB250F8288050F888
S1132E1025508BEA0808C6F3074B360E51F82BB041
S1132E2054F8266088EA0708009F6E4088EA0B0879
S1132E30D56CC7F3072BC7F307477540CAF3072AB6
S1132E4051F8276053F82BB0754053F82A60754049
S1132E504FEA1C67EEB254F8277050F826607740AA
S1132E60166D7E40C9F3074788EA0B0851F82770AE
S1132E707E40C8F307274FEA196A53F82770774052
S1132E805FFA8CF6009707E0FC790000FC850000EF
S1132E90FC7D0000FC81000050F8266054F82AA054
S1132EA08AEA060A566D8AEA060AC8F307464FEA12
S1132EB0186B51F8266054F82BB08AEA060AC5F359
S1132EC0072653F826608AEA060A5FFA89F6C9F3E8
S1132ED0072950F826608BEA060B966D8BEA060BE1
S1132EE0C5F307462D0E51F8266054F825508BEA99
S1132EF0060BCCF30726CCF3074C53F826608BEA79
S1132F0006065FFA88FB50F82B8085EA0808D56D21
S1132F1088EA050851F82C5088EA050C53F8295022
S1132F208CEA05054FEA17685FFA85FC54F8288097
S1132F3050F82CC0176E88EA0C0CCAF307488CEAC8
S1132F40070C51F82880009F8CEA080CC6F3072868
S1132F504FEA1A6953F8288054F829908CEA080C2F
S1132F605FFA87F8576E50F8288089EA0809C6F393
S1132F70074889EA070951F82880976E89EA080901
S1132F80C5F307284FEA166B53F8288054F82BB082
S1132F9089EA08095FFA8AF8F6B250F8288050F8EE
S1132FA026608BEA0808C5F3074B2D0E51F82BB0A9
S1132FB054F8255088EA0708009F6E4088EA0B08F9
S1132FC0D56EC7F3072BC7F307477540CAF3072A23
S1132FD051F8276053F82BB0754053F82A607540B8
S1132FE04FEA1C67EEB254F8277050F82660774019
S1132FF0166F7E40C9F3074788EA0B0851F827701B
S11330007E40C8F307274FEA196A53F827707740C0
S11330105FFA8CF6009750F8266054F82AA08AEAE2
S1133020060A566F8AEA060AC8F307464FEA186B7F
S113303051F8266054F82BB08AEA060AC5F307262D
S113304053F826608AEA060A5FFA89F6C9F3072963
S113305050F826608BEA060B966F8BEA060BC5F3D5
S113306007462D0E51F8266054F825508BEA060BBE
S1133070CCF30726CCF3074C53F826608BEA0606FC
S11330805FFA88FB50F82B8085EA0808D56F88EA38
S1133090050851F82C5088EA050C53F829508CEA9D
S11330A005054FEA17685FFA85FC54F8288050F844
S11330B02CC0D2F8807088EA0C0CCAF307488CEA5A
S11330C0070C51F82880009F8CEA080CC6F30728E7
S11330D04FEA1A6953F8288054F829908CEA080CAE
S11330E05FFA87F8D2F8847050F8288089EA0809D2
S11330F0C6F3074889EA070951F82880D2F888708E
S113310089EA0809C5F307284FEA166B53F82880A3
S113311054F82BB089EA08095FFA8AF8F6B250F835
S1133120288050F826608BEA0808C5F3074B2D0E5B
S113313051F82BB054F8255088EA0708009F6E40D8
S113314088EA0B08D2F88C50C7F3072BC7F307475C
S11331507540CAF3072A51F8276053F82BB075401D
S113316053F82A6075404FEA1C67EEB254F8277092
S113317050F8266088EA0B0887EA060BD2F89060BC
S11331808BEA060BC9F3074651F82670C8F30726E5
S11331908BEA070B53F826705FFA8CF68BEA070B61
S11331A04FEA196750F8266054F8277087EA060A30
S11331B0D2F894608AEA060AC8F3074651F82670E2
S11331C0C5F307268AEA070A53F826705FFA89F6D8
S11331D08AEA070A4FEA186750F8266054F82770FD
S11331E07740D2F898607E40C5F307475FFA88F8C5
S11331F051F827707E40CCF307272D0E53F8277023
S113320054F825507E4050F82870CCF3074C6F409A
S1133210D2F89C50C9F307297D4051F82C707D40A9
S113322053F829707D40D2F8F07000970A2F40F3CC
S11332308A814FEA1B6CEFB254F82C9050F8277037
S113324089EA0709D2F8A07089EA0709CAF307478F
S11332504FEA1A6C51F8277054F82C8089EA070950
S1133260C6F307274FEA166C53F8277054F82CC09E
S113327089EA07095FFA8BF750F8277088EA07088C
S1133280D2F8A47088EA0708C6F30747F6B251F8E3
S1133290277050F8266088EA0708C5F3072753F813
S11332A0277088EA07085FFA8AF7CAF3072A50F8F2
S11332B027708CEA070CD2F8A8708CEA070CC5F3C7
S11332C007472D0E51F8277054F825508CEA070C47
S11332D0CBF30727CBF3074B53F827708CEA070788
S11332E085EA060CD2F8AC5051F82B608CEA05053F
S11332F085EA060C53F82A608CEA060C5FFA8CF512
S11333004FEA196650F8255054F8266086EA050BF2
S1133310D2F8B0508BEA050BC8F3074551F8256085
S1133320C7F307258BEA060B53F825605FFA89F586
S11333308BEA060B4FEA186650F8255054F82660BD
S113334086EA050AC7F30745D2F8B46051F8255058
S11333508AEA060A8AEA050ACCF307253E0E53F8E0
S1133360255054F826608AEA050A5FFA88F5FFB208
S113337050F8255050F827706E40D2F8B850754078
S1133380CCF307464FEA1C6C51F826607540C9F32C
S11333900726C9F3074953F826606E4054F82C50A9
S11333A06F40D2F8BC50C8F307287D4051F829700B
S11333B07D4053F828707D40009F0C2F40F3C3805C
S11333C04FEA1B6CEFB254F82C9050F8277089EA3E
S11333D00709D2F8C07089EA0709CAF307474FEA18
S11333E01A6C51F8277054F82C8089EA0709C6F33F
S11333F007274FEA166C53F8277054F82CC089EA53
S113340007095FFA8BF750F8277088EA0708D2F8A3
S1133410C47088EA0708C6F30747F6B251F8277064
S113342050F8266088EA0708C5F3072753F8277081
S113343088EA07085FFA8AF7CAF3072A50F8277060
S11334408CEA070CD2F8C8708CEA070CC5F307475E
S11334502D0E51F8277054F825508CEA070CCBF345
S11334600727CBF3074B53F827708CEA070785EA45
S1133470060CD2F8CC5051F82B608CEA050585EA8D
S1133480060C53F82A608CEA060C5FFA8CF54FEAB6
S1133490196650F8255054F8266086EA050BD2F8D0
S11334A0D0508BEA050BC8F3074551F82560C7F3E4
S11334B007258BEA060B53F825605FFA89F58BEA3A
S11334C0060B4FEA186650F8255054F8266086EA31
S11334D0050AC7F30745D2F8D46051F825508AEAA3
S11334E0060A8AEA050ACCF307253E0E53F825504E
S11334F054F826608AEA050A5FFA88F5FFB250F8A4
S113350025506E40D2F8D8507540CCF307464FEAA8
S11335101C6C51F8266054F82C407540C9F30726FA
S1133520C9F3074953F8266051F829106E4050F842
S11335302750D2F8DC00C8F307286540454053F80B
S113354028304D405D40009B584C594819014FEAC2
S11335501B635FFA85FC54F8233010F82CC057180D
S113356003F07F435258534983EA0C035340CAF390
S11335700742C6F3072C51F8222002F47F0253407D
S11335804D4A52F82CC00CF47F4C83EA0C08019B82
S11335904FEA186C83F800C04FEA184C83F801C056
S11335A04FEA182C83F802C083F803804FEA1A63A9
S11335B054F8233003F07F4C5FFA8BF310F8238028
S11335C07B688CEA080C8CEA0303C6F3074C51F8B9
S11335D02CC00CF47F0C83EA0C03C5F3072C52F8BF
S11335E02CC00CF47F4C83EA0C08019B4FEA186C46
S11335F083F804C04FEA184C83F805C04FEA182C2E
S113360083F806C083F80780330EF6B254F82330EB
S113361003F07F4C5FFA8AF3CAF3072A10F8238079
S1133620BB6810F826008CEA080C8CEA0303C5F387
S1133630074C2D0E51F82CC00CF47F0C83EA0C03BC
S1133640CBF3072CCBF3074B52F82CC051F82B10BB
S113365052F82A200CF47F4C83EA0C08019B4FEAB1
S1133660186C83F808C04FEA184C83F809C04FEA75
S1133670182C83F80AC083F80B8054F82530019D78
S113368003F07F434340F86801F47F01434002F4B0
S11336907F424B4053401A0E2A731A0C6A731A0A5B
S11336A0AA73EB7303B0BDE8F08F00BFFC81000088
S11336B0FC7D0000FC850000FC7900002DE9F74F3B
S11336C00191002800F0C385002A00F0C08500297C
S11336D000F0BD85C778136890F807C090F80B8098
S11336E090F80F90E94C7B40077883EA07634778AA
S11336F083EA0747837887EA032753688CEA03033E
S113370090F804C083EA0C6390F805C083EA0C4C7B
S113371083798CEA032C936888EA030390F8088081
S113372083EA086390F8098083EA0848837A88EA80
S11337300328D36889EA030390F80C9083EA0963A9
S113374090F80D9083EA0949837BD14889EA0329DB
S1133750390E5FFA8CF354F8216050F82330CD49C8
S11337605E4013695E40C9F307434FEA1C6A51F88F
S11337702350C94B54F82AA06E40C8F307254FEADA
S1133780186B53F8255054F82BB0754000955FFA28
S113379088F5C8F3074850F82550009E8AEA050AC0
S11337A055698AEA050AC7F3074551F825508AEA9C
S11337B0050AC9F3072553F825508AEA050A5FFA72
S11337C089F54FEA196950F8255054F829908BEA85
S11337D0050B95698BEA050BCCF30745CCF3072C55
S11337E051F825508BEA050BC7F30725FFB253F8B0
S11337F0255050F8277089EA0709D76989EA07092B
S113380051F8287089EA070853F82C705FFA8AFC8B
S113381088EA07074FEA166850F82CC054F8288045
S1133820166A88EA0C0CC7F307488BEA050551F8B9
S11338302880DDF800B08CEA060C8CEA080CC5F38D
S113384007284FEA1A6953F8288054F82990566AD1
S11338508CEA080C5FFA85F850F8288089EA080990
S1133860CBF3074889EA060951F82880966A89EA61
S11338700809C7F307284FEA156B53F8288054F852
S11338802BB089EA08095FFA87F83F0E50F82880C0
S113389054F827708BEA0808CAF3074B88EA06082D
S11338A051F82BB0009E88EA0B08C6F3072BF6B23A
S11338B0C5F3074550F8266051F8255053F82BB04E
S11338C07740D66ACAF3072A7E406E4053F82A50DE
S11338D04FEA1C676E405FFA89F554F8277050F878
S11338E025506F40156B7D40C6F3074788EA0B08E7
S11338F051F827707D40C8F307274FEA196A53F837
S113390027706F405FFA88F5009750F8255054F8F7
S11339102AA08AEA050A556B8AEA050ACCF3074508
S11339204FEA186B51F8255054F82BB08AEA050A6F
S1133930C6F30725C8F3074853F825508AEA050A51
S1133940F5B2360E50F8255054F826608BEA050B74
S1133950956B8BEA050BC9F30745C9F3072951F8A1
S113396025508BEA050BCCF3072553F825508BEA39
S113397005055FFA8CFB50F82BC0DDF800B086EA31
S11339800C0CD66B8CEA060C51F828608CEA060CF9
S113399053F829604FEA17688CEA06065FFA8AFC36
S11339A054F8288050F82CC0176C88EA0C0CC6F325
S11339B007488CEA070C51F82880576C8CEA080CED
S11339C0C5F307284FEA1A6953F8288054F8299058
S11339D08CEA080C5FFA85F850F8288089EA08090F
S11339E0CBF3074889EA070951F82880976C89EADC
S11339F00809C6F307284FEA156B53F8288054F8D2
S1133A002BB089EA08095FFA86F8360E50F8288048
S1133A1054F826608BEA0808CAF3074B88EA0708BB
S1133A2051F82BB0009F88EA0B08C7F3072BFFB2AD
S1133A30C5F3074550F8277051F8255053F82BB0BB
S1133A407740D66CCAF3072A7E406E4053F82A505A
S1133A504FEA1C676E405FFA89F554F8277050F8F6
S1133A6025506F40156D7D40C6F3074788EA0B0863
S1133A7051F827707D40C8F307274FEA196A53F8B5
S1133A8027706F405FFA88F5009707E0FC65000037
S1133A90FC710000FC690000FC6D000050F825502A
S1133AA054F82AA08AEA050A556D8AEA050ACCF375
S1133AB007454FEA186B51F8255054F82BB08AEAA1
S1133AC0050AC6F30725C8F3074853F825508AEAC0
S1133AD0050AF5B2360E50F8255054F826608BEAE4
S1133AE0050B956D8BEA050BC9F30745C9F3072947
S1133AF051F825508BEA050BCCF3072553F82550D4
S1133B008BEA05055FFA8CFB50F82BC0DDF800B09A
S1133B1086EA0C0CD66D8CEA060C51F828608CEA07
S1133B20060C53F829604FEA17688CEA06065FFA18
S1133B308AFC54F8288050F82CC0176E88EA0C0CC4
S1133B40C6F307488CEA070C51F82880576E8CEAB4
S1133B50080CC5F307284FEA1A6953F8288054F86B
S1133B6029908CEA080C5FFA85F850F8288089EAD5
S1133B700809CBF3074889EA070951F82880976EAA
S1133B8089EA0809C6F307284FEA156B53F8288019
S1133B9054F82BB089EA08095FFA86F8360E50F813
S1133BA0288054F826608BEA0808CAF3074B88EA91
S1133BB0070851F82BB0009F88EA0B08C7F3072BBE
S1133BC0FFB2C5F3074550F8277051F8255053F854
S1133BD02BB07740D66ECAF3072A7E406E4053F866
S1133BE02A504FEA1C676E405FFA89F554F8277033
S1133BF050F825506F40156F7D40C6F3074788EA9B
S1133C000B0851F827707D40C8F307274FEA196A5B
S1133C1053F827706F405FFA88F5009750F82550E5
S1133C2054F82AA08AEA050A556F8AEA050ACCF3F1
S1133C3007454FEA186B51F8255054F82BB08AEA1F
S1133C40050AC6F30725C8F3074853F825508AEA3E
S1133C50050AF5B2360E50F8255054F826608BEA62
S1133C60050B956F8BEA050BC9F30745C9F30729C3
S1133C7051F825508BEA050BCCF3072553F8255052
S1133C808BEA05055FFA8CFB50F82BC0DDF800B019
S1133C9086EA0C0CD66F8CEA060C51F828608CEA84
S1133CA0060C53F829604FEA17688CEA06065FFA97
S1133CB08AFC54F8288050F82CC0D2F8807088EA26
S1133CC00C0CC6F307488CEA070C51F82880D2F88C
S1133CD084708CEA080CC5F307284FEA1A6953F874
S1133CE0288054F829908CEA080C5FFA85F850F87B
S1133CF0288089EA0809CBF3074889EA070951F8BB
S1133D002880D2F8887089EA0809C6F307284FEAA0
S1133D10156B53F8288054F82BB089EA08095FFA28
S1133D2086F8360E50F8288054F826608BEA080886
S1133D30CAF3074B88EA070851F82BB0009F88EABA
S1133D400B08C7F3072BFFB2C5F3074550F82770DC
S1133D5051F8255053F82BB07740D2F88C60CAF351
S1133D60072A7E406E4053F82A504FEA1C676E4083
S1133D705FFA89F554F8277050F8255088EA0B0843
S1133D8087EA050BD2F890508BEA050BC6F307457A
S1133D9051F82570C8F307258BEA070B53F82570F3
S1133DA05FFA88F58BEA070B4FEA196750F825503C
S1133DB054F8277087EA050AD2F894508AEA050A6B
S1133DC0CCF3074551F82570C6F307258AEA070A9C
S1133DD053F82570F5B28AEA070A4FEA186750F8D3
S1133DE0255054F827706F40D2F898507D40C9F39D
S1133DF00747360E51F8277054F826607D40CCF3FF
S1133E0007275FFA8CFC53F827707D4050F82C701C
S1133E10C8F307487740D2F89C60C9F307297E406D
S1133E2051F828707E4053F829707E40D2F8F07023
S1133E3000970A2F40F38E814FEA1B6C5FFA8AF7D2
S1133E4054F82C9050F8277089EA0709D2F8A0702A
S1133E5089EA0709C6F307474FEA1A6C51F8277035
S1133E6054F82CC089EA0709C5F307274FEA1568F7
S1133E7053F8277054F8288089EA0709EFB2C5F38C
S1133E80074550F8277051F825508CEA070CD2F8F2
S1133E90A4708CEA070CCBF3074751F827708CEA1F
S1133EA0070CC6F3072753F827708CEA070CF7B200
S1133EB0360E50F8277054F8266088EA0708D2F8BE
S1133EC0A87088EA0708CAF30747CAF3072A51F813
S1133ED0277088EA0708CBF307275FFA8BFB53F8B0
S1133EE0277088EA070750F82B8086EA0808D2F87A
S1133EF0AC6088EA06066E4053F82A504FEA196807
S1133F006E405FFA8CF554F828B050F825508BEACF
S1133F10050BD2F8B0508BEA050BC6F307454FEA00
S1133F201C6851F8255054F828A08BEA050BC7F3F8
S1133F3007254FEA176853F8255054F828808BEA70
S1133F40050BFDB2C7F3074750F8255051F8277009
S1133F508AEA050AD2F8B4508AEA050AC9F3074581
S1133F6051F825508AEA050AC6F3072553F8255067
S1133F708AEA050AF5B2360E50F8255054F8266040
S1133F8088EA0508D2F8B85088EA0508CCF3074552
S1133F90CCF3072C51F8255088EA0508C9F3072506
S1133FA05FFA89F953F8255088EA050550F8298005
S1133FB086EA0808D2F8BC6088EA06067E4053F810
S1133FC02C707E40009F0C2F40F3C4804FEA1B6C82
S1133FD05FFA8AF754F82C9050F8277089EA070999
S1133FE0D2F8C07089EA0709C6F307474FEA1A6C8A
S1133FF051F8277054F82CC089EA0709C5F307273C
S11340004FEA156853F8277054F8288089EA07099D
S1134010EFB2C5F3074550F8277051F825508CEAE4
S1134020070CD2F8C4708CEA070CCBF3074751F89D
S113403027708CEA070CC6F3072753F827708CEA1D
S1134040070CF7B2360E50F8277054F8266088EA49
S11340500708D2F8C87088EA0708CAF30747CAF302
S1134060072A51F8277088EA0708CBF307275FFA75
S11340708BFB53F8277088EA070750F82B8086EAF1
S11340800808D2F8CC6088EA06066E4053F82A5035
S11340904FEA19686E405FFA8CF554F828B050F86E
S11340A025508BEA050BD2F8D0508BEA050BC6F3EA
S11340B007454FEA1C6851F8255054F828A08BEAAC
S11340C0050BC7F307254FEA176853F8255054F832
S11340D028808BEA050BFDB2C7F3074750F825503B
S11340E08AEA050AD2F8D4508AEA050AC9F30745D0
S11340F051F825508AEA050AC6F3072553F82550D6
S11341008AEA050AF5B2360E50F8255054F82640CE
S113411088EA0508D2F8D85088EA0508CCF30745A0
S1134120CCF3072C51F8255051F8271088EA0508DC
S1134130C9F307255FFA89F953F8255050F8296027
S1134140D2F8DC0053F82C30664046404E4088EAF2
S113415005055E4000993F4B08015FFA8AF4111887
S1134160125853F824404FEA1B60624053F8200071
S1134170019C82EA0062C6F3074053F8200082EAF9
S11341800042C5F3072053F8200082EA0022100EF3
S11341902070100C6070E270100AEAB2A07053F83C
S11341A022004A6842404FEA1A6053F8200082EA2B
S11341B00062CBF3074053F8200082EA0042C6F3C2
S11341C0072053F8200082EA0022100E2071100C00
S11341D06071E271100AF2B2A07153F822008A6889
S11341E04240280E360E53F8200082EA0062CAF3D9
S11341F00740C5F3074553F8200082EA0042CBF399
S113420007205FFA8BFB53F8200082EA0022100E8D
S11342102072100C6072100AA072E27253F82B0024
S1134220CA6853F826104240CAF3072A82EA016298
S113423053F8251053F82A3082EA014282EA032314
S11342401A0E22731A0C62731A0AA273E37303B070
S1134250BDE8F08FFC7500002DE9F041002800F066
S11342603E81002A00F03B8121F04003802B03D0E3
S1134270B1F5807F40F037818029134601D10A24AB
S113428003E0C0290CBF0C240E24C2F8F04044788B
S11342900578240444EA0564C5786C40857844EACA
S11342A00524146044790579240444EA0564C57935
S11342B06C40857944EA05245460447A057A2404E0
S11342C044EA0564C57A6C40857A44EA052494601E
S11342D0447B057B240444EA0564C57B6C40857BF0
S11342E0802944EA0524D46032D100218048DA6868
S11342F00C581868D5B260407E4C54F8254004F43C
S11343007F44150E60407C4C14F82540C2F30745E9
S113431060407A4C54F8254004F07F446040C2F376
S11343200725774C54F8254004F47F0460405C680A
S1134330186160409C6858610431604042402829FB
S11343409861DA6102D10020BDE8F0811033CDE735
S1134350447C057C240444EA0564C57C6C40857C6B
S113436044EA05241461447D057D240444EA05647B
S1134370C57D6C40857DC02944EA0524546135D14E
S113438000215B485A690C581868D5B26040594CF2
S113439054F8254004F47F446040150E564C14F83C
S11343A02540C2F307456040544C54F8254004F0BE
S11343B07F446040C2F30725514C54F8254004F46F
S11343C07F0460405C68986160409C68D86160408C
S11343D0DC6818620431604020295862B3D01C693B
S11343E0604042409862DA621833CAE7447E057E30
S11343F0240444EA0564C57E6C40857E44EA0524B1
S11344009461447F057F240444EA0564C57F807F6A
S11344106C4044EA0020B1F5807FD06193D1002044
S1134420DA693349DFF8CC8044581968324E334F87
S1134430D5B2614058F8255005F47F456940150E02
S1134440C2F3072C16F825506940C2F3074504301F
S113445057F8255005F07F456940294D55F82CC083
S11344600CF47F0C81EA0C0459681C624C40996876
S11344705C6284EA010CDC68C3F828C08CEA04019D
S11344801C28D9623FF45FAF4FEA116C203357F810
S11344902C705FFA81FC07F07F4716F82CC053F8A4
S11344A0106C87EA0C077E40C1F30747C1F307216C
S11344B055F8275058F8214005F47F0504F47F444B
S11344C06E4086EA040153F80C4C1961614053F8BC
S11344D0084C596161404A409961DA61A0E74FF0A4
S11344E0FF30BDE8F0816FF00100BDE8F08100BF4E
S11344F0D4650000FC790000FC7D0000FC81000014
S1134500FC8500002DE9F8431446FFF7A5FE0028BA
S1134510C0F2B580D4F8F07022462146BD0004EB09
S1134520071300202C1AA04201F11001A3F110037B
S113453019DA51F8106C1C6941F8104C1E6151F8DD
S11345400C6C5C6941F80C4C5E6151F8086C9C6918
S113455041F8084C9E6151F8046CDC6941F8044C44
S11345600430DE61DEE74FF0010CBC4580F286804A
S113457052F8100F434B444E444DC1B20CF1010CA0
S113458013F82140010E56F8244013F8211055F871
S1134590211084EA0108C0F307413D4C13F82110AF
S11345A0C0F3072054F8211013F8200088EA01080A
S11345B0384951F8200088EA0000106050685FFA1A
S11345C080F813F828904FEA106856F8299013F8E9
S11345D0288055F8288089EA0808C0F30749C0F301
S11345E0072013F8299013F8200054F8299051F863
S11345F0200088EA090888EA0000506090685FFAA1
S113460080F813F828904FEA106856F8299013F8A8
S1134610288055F8288089EA0808C0F30749C0F3C0
S1134620072013F8299013F8200054F8299051F822
S1134630200088EA090888EA00009060D0685FFAE0
S113464080F813F828904FEA106856F8296013F898
S1134650288055F828506E40C0F30745C0F3072062
S113466013F8255013F8203054F8255051F823102E
S113467086EA050484EA0103D36076E70020BDE8F6
S1134680F88300BFFC7D0000FC710000FC650000A5
S1134690FC690000FC6D00002DE9F04E9146089A7B
S11346A082468B461F464E460AEB09010BEB090571
S11346B0891BAD1B0024B44214D012F804C0085D59
S11346C08CEA000028550134102CF4D10AE066B9B4
S11346D00A9B012B16D010212955105D295D4140FC
S11346E029550134102CF2D102E0C6F11001F3E790
S11346F0284629463A46099B98470F2E02DD103E6C
S11347002A46D1E7BDE8F08E2DE9F04F87B0804608
S1134710129F00938B461646154608EB060A0BEBD0
S11347200609C5EB0A0AC5EB090975B3504602A987
S1134730009A119B98470024DDF840C01AF8042021
S11347401CF804006B4604F1080C1CF80310109BC1
S1134750414009F804101A550134102C01D0AC4220
S1134760EAD187B9102D0ED14C44B84614F8010C87
S11347700F28A8BF0F20804509DA002304F8013D63
S113478008F10108F7E7103DC7E717B93846301AB2
S113479000E0304607B0BDE8F08F0000F0B585B00A
S11347A014460B9F0A9E0C9D67B100960B4E019612
S11347B00295FFF771FF75B91034102394FBF3F4DD
S11347C0240108E0064C0A960B940C9505B0BDE84C
S11347D0F040FFF799BF204605B0F0BDBD2A0000A8
S11347E0BD3600002DE9F04F91F8019091F800B02A
S11347F0CB784F794E7A91F80DC091F811800D7CE9
S113480091F815A00C7D0A7F4FEA094949EA0B6922
S113481049EA03090B7991F802B03F0447EA0367B8
S1134820CB791F438B7997B047EA032306930B7A1E
S11348301390360446EA0366CB7A487E1E438B7A8D
S113484046EA03260B7B4FEA0C4C4CEA036CCB7B09
S11348504CEA030C8B7B4FEA08484CEA032CCB7CD4
S113486048EA056848EA03084FEA0A4ACB7D8D7C8A
S11348704AEA046A4AEA030A0B7E8C7D000440EA91
S11348800360CB7E18438B7E40EA032311934B7F56
S11348901B0443EA0263CA7F13438A7F43EA02226A
S11348A0129291F8212091F82030120442EA036216
S11348B091F823301A4391F8223049EA0B2942EA4D
S11348C0032391F825B00B9391F824304FEA0B4B56
S11348D04BEA036B91F827304BEA030B91F826302F
S11348E04BEA032391F829B00C9391F828304FEA4E
S11348F00B4B4BEA036B91F82B304BEA030B91F80B
S11349002A304BEA032391F82DB00D9391F82C3003
S11349104FEA0B4B4BEA036B91F82F304BEA030B36
S113492091F82E304BEA032391F831B00E9391F8AD
S113493030304FEA0B4B4BEA036B91F833304BEAC0
S1134940030B91F832304BEA032391F835B01093FE
S113495091F834304FEA0B4B4BEA036B91F8373044
S11349604BEA030B91F836304BEA032391F839B044
S1134970079391F838304FEA0B4B4BEA036B91F8ED
S11349803B304BEA030B91F83A304BEA032308938C
S113499091F83DB091F83C30139A13981269039240
S11349A04FEA0B4B4BEA036B91F83F308068039F4F
S11349B005904BEA030391F83EB0139943EA0B2B9D
S11349C0139BC9685B6902934AEA042A139CF04B5F
S11349D0A469019448EA0528029D04916A401C4494
S11349E00A406A4004EBF064144428464FEAB102DA
S11349F0059DCDF824B082EA070129407940184486
S1134A00069F08444FEAB5053844039F4C4485EAA1
S1134A1002011F44214000EBF46037444FEAB40420
S1134A205140394484EA05071A44074001EBF06118
S1134A306F404FEAB00062443A4480EA04071D44E0
S1134A400F406740454402EBF1623D444FEAB10137
S1134A500AEB03073C4481EA0007174047403C4403
S1134A60119F05EBF2651F444FEAB202384482EA13
S1134A7001072F404F403844129F04EBF5641F4454
S1134A804FEAB505394485EA0207274057403944BF
S1134A900B9F00EBF4601F444FEAB4043A4484EAE9
S1134AA0050707406F403A440C9F01EBF0611F4437
S1134AB04FEAB0003D4480EA04070F4067403D449C
S1134AC00D9F02EBF1621F444FEAB1013C4481EABD
S1134AD00007174047403C440E9F05EBF2651F4416
S1134AE04FEAB202384482EA01072F404F4038446B
S1134AF0109F04EBF5641F444FEAB505394485EA79
S1134B000207274057403944079F00EBF4601F44D5
S1134B104FEAB4043A4484EA050707406F403A4434
S1134B20089F01EBF0611F444FEAB0003D4480EA66
S1134B3004070F4067403D445F4602EBF1621F44A7
S1134B404FEAB1013C4481EA00071740474086EA36
S1134B50090BDDF82C903C44079F8BEA090B8BEA88
S1134B60070B4FEAFB7B5F4605EBF2651F444FEAF8
S1134B70B202384482EA0107CDF828B02F40DDF8AC
S1134B801890DDF830B04F4038448CEA0907DDF85E
S1134B90209087EA0B0787EA09074FEAF777069719
S1134BA004EBF5641F444FEAB505394485EA02076E
S1134BB02740DDF834B0DDF838905740394488EAAE
S1134BC00606099F86EA0B067E404FEAF6760F96A4
S1134BD000EBF4601E444FEAB404324484EA050650
S1134BE006406E40DDF828B032448AEA0C0686EAB4
S1134BF0090601EBF06186EA0B064FEAB0004FEAC2
S1134C00F67680EA040C33440CEA010C1D448CEA69
S1134C10040C05EB0C07DDF844C0109BDDF848B02C
S1134C208CEA0805DDF818805D4085EA0805594BD3
S1134C30DDF83C804FEAF57502EBF1624FEAB10111
S1134C4005EB030981EA000C8CEA020C4C4404EBEA
S1134C500C09DDF81CC08BEA0A0484EA0C0484EA1B
S1134C6008044FEAF47407EBF2674FEAB20204EB6C
S1134C70030C82EA0108DDF82CA0DDF844B088EAD0
S1134C800708604400EB080CDDF820808AEA0B007A
S1134C9080EA080070404FEAF07009EBF7694FEAC8
S1134CA0B70700EB030A87EA020888EA09085144B7
S1134CB0DDF830B001EB080ADDF848808BEA080122
S1134CC0DDF824B081EA0B0169404FEAF1710CEB85
S1134CD0F96C4FEAB90901EB030889EA070B8BEA7F
S1134CE00C0B424402EB0B08DDF82CB00D9A0AEBD6
S1134CF0FC6A4FEABC0CCDF844C082EA0B0CDDF828
S1134D0028B08CEA0B0262404FEAF272DDF844C02C
S1134D1002EB030B5F448CEA090B8BEA0A0BDDF808
S1134D2030C05F44DDF838B08BEA0C0BDDF818C0F6
S1134D308BEA0C0B8BEA000BDDF844C04FEAFB7BDB
S1134D4008EBFA68CDF82CB04FEABA0A9B44D94470
S1134D508AEA0C0B8BEA080BDDF834C0D944DDF881
S1134D6040B08BEA0C0BDDF83CC08BEA0C0B8BEAF1
S1134D70010B4FEAFB7BCDF830B0DDF844C007EB04
S1134D80F8679B444FEAB808DC4488EA0A0B03E05E
S1134D909979825AA1EBD96E09EBF7698BEA070B73
S1134DA04FEAB7071197DC44079FDDF838B087EA6C
S1134DB00B0787EA060B8BEA020B119F4FEAFB7B7A
S1134DC0CDF834B09B44DA4487EA080B8BEA090B2C
S1134DD0109FDA44DDF820B08BEA070B0B9F8BEAB7
S1134DE0050B8BEA070B4FEAFB7B119FCDF838B01C
S1134DF00CEBF96C9B444FEAB909D84489EA070BD8
S1134E008BEA0C0B079FD844DDF824B00AEBFC6A4C
S1134E104FEABC0CCDF840C08BEA070C8CEA040BBB
S1134E20DDF830C0119F8BEA0C0B4FEAFB7BDDF8F9
S1134E3040C0CDF81CB09B445F448CEA090B8BEA5C
S1134E400A0BDDF820C05F44DDF828B08BEA0C0BB8
S1134E50DDF834C08BEA000B8BEA0C0B4FEAFB7BCA
S1134E60DDF840C0CDF820B008EBFA689B444FEA67
S1134E70BA0AD9448AEA0C0B8BEA080BDDF824C081
S1134E80D944DDF818B08BEA0C0BDDF838C08BEA96
S1134E90010B8BEA0C0B4FEAFB7BDDF840C0CDF82D
S1134EA024B007EBF8679B444FEAB808DC4488EA6F
S1134EB00A0B09EBF7698BEA070B4FEAB707109760
S1134EC0DC440F9FDDF828B087EA0B0787EA020B62
S1134ED0079F8BEA070B4FEAFB7B109FCDF828B0A6
S1134EE09B44DA4487EA080B069F8BEA090BDA44F1
S1134EF086EA070B0B9F8BEA070B089F8BEA070BCD
S1134F004FEAFB7BCDF818B0109F0CEBF96C9B4477
S1134F104FEAB909D84489EA070B0F9F8BEA0C0BB7
S1134F20D84485EA070B0C9F8BEA070B099F8BEA91
S1134F30070B4FEAFB7B109FCDF83CB00AEBFC6AF1
S1134F409B444FEABC0C5F448CEA090B8BEA0A0BC6
S1134F505F44DDF834B0664086EA0B06DDF828B01D
S1134F6086EA0B064FEAF676109608EBFA681E44BA
S1134F704FEABA0AB1448AEA0C0686EA0806B14442
S1134F800E9EDDF818B04540754085EA0B054FEAE2
S1134F90F57607EBF867F5184FEAB808AC4488EAE9
S1134FA00A057D40AC44079DDDF83CB04C406C40A4
S1134FB084EA0B044FEAF47409EBF76911944FEA9D
S1134FC0B7071C44A24487EA080484EA0904A244FB
S1134FD0089C109DDDF82CB05040604068404FEABA
S1134FE0F0700CEBF96C12904FEAB9091844804444
S1134FF089EA070080EA0C0080440998119C0D9D01
S11350008BEA0101414071400AEBFC6A4FEAF171FD
S11350104FEABC0C14910B448CEA090181EA0A01A1
S11350201F440F440C990A9B06984A405A40624018
S1135030E14B0C9C08EBFA684FEAF2724FEABA0AA9
S1135040159248EA0A011A4401EA0C01914408EA5B
S11350500A020A4385EA0B0B12990F9D8BEA000B97
S113506007EBF8678BEA010B4FEAFB7B09EBF76967
S113507091444FEAB8085A461A4447EA080101EA3B
S11350800A01944407EA08020A4394440E9A1498C5
S1135090CDF82CB082EA040B8BEA050B8BEA000BEB
S11350A04FEAFB7B4FEAB7075A461A4449EA07011D
S11350B00CEBF96C01EA0801924409EA07020A437D
S11350C00AEBFC6A924407990D9A109C159DCDF841
S11350D030B081EA020B8BEA040B8BEA050B4FEA32
S11350E0FB7B4FEAB9095A461A444CEA0901394094
S11350F090440CEA0902CDF834B00A4308980E999A
S1135100099C079D80EA010B90440B9A0C988BEA4A
S1135110060B8BEA020B4FEAFB7B4FEABC0C5A46A8
S11351201A444AEA0C01CDF838B001EA0901DDF865
S113513044B017440AEA0C020A4384EA050181EAEE
S11351400B0108EBFA6841404FEAF17107EBF8678D
S113515017444FEABA0A0A4607911A4448EA0A0170
S113516001EA0C01914408EA0A020A43089C129DD0
S1135170DDF834B091440A9A82EA0401694081EA74
S11351800B014FEAF17108464FEAB8081844844409
S113519047EA080009EBF76907EA080200EA0A008F
S11351A00CEBF96C104360440891DDF818C00999C0
S11351B0149C0E9D8CEA010262406A404FEAF2722E
S11351C011464FEAB70719448A4449EA070109928C
S11351D001EA080109EA07021143DDF828C0159A1B
S11351E0079C109D5144DDF83CA08AEA0C0B8BEA25
S11351F0020B8BEA040B4FEAFB7BDA464FEAB90950
S11352009A44D04440EA090A01EBF06100EA090239
S11352100AEA070A08EBF1684AEA020AC244DDF81E
S11352201880CDF828B0DDF82CB0DDF820C00C9C37
S113523085EA080282EA0B0282EA0C024FEAF27261
S113524094464FEAB0009C44674441EA000C06923D
S11352500CEA090C01EA00024CEA020C0F9A099DBF
S1135260DDF8448086EA020B8BEA040B8BEA050B1B
S11352704FEAFB7BBC445F464FEAB1011F44B9448B
S11352804AEA01070CEBFA6C0AEA0102074009EB4F
S1135290FC6917434F44DDF84090CDF83CB0DDF88D
S11352A034B00A9C88EA090282EA0B0262404FEA9F
S11352B0F2721092129DDDF81880DDF850B085EA84
S11352C006090E9E14464FEABA0A1C4489EA0609E6
S11352D0204489EA08094CEA0A044FEAF9790CEAFD
S11352E00A020C404FEABC0C09EB030514430444C6
S11352F0294447EA0C0504EBF76407EA0C0205EAC3
S11353000A05119801EBF46115430D4407990F9AAE
S11353108BEA000888EA010888EA02084FEAF8786C
S11353204FEAB70708EB0306B24444EA070604EA67
S1135330070206EA0C061643DDF848B00898109AEE
S11353405644DDF854A08AEA0B01414051404FEA2B
S1135350F17108464FEAB4041844844445EA040051
S113536006EBF56605EA04023840DDF82CA0DDF80A
S113537050B011910CEBF66C10436044DDF824C07E
S11353808AEA0B0282EA0C0282EA09024FEAF2720A
S11353904FEAB50512921A443A4446EA05072740F3
S11353A006EA050139431144159F0C9ADDF828B02B
S11353B0DDF834C002E000BFDCBC1B8F82EA070AC0
S11353C08AEA0B0A8AEA080A4FEAFA7A4FEAB60628
S11353D00AEB0302224440EA060401EBF06100EA0E
S11353E006072C4002EBF1623C4314440B9A069FDF
S11353F08CEA020BDDF844C08BEA070B8BEA0C0B3A
S11354004FEAFB7B4FEAB0005A461A4441EA0007D0
S11354101544374001EA00023A432A440C9F0E9D8A
S1135420DDF83CC0CDF82CB085EA070B129D8BEA61
S11354300C0B8BEA050B4FEAFB7B5D464FEAB1018F
S11354401D442E4444EA010502EBF46204EA010718
S1135450054006EBF2663D4335440D9F079EDDF89B
S113546040C0CDF830B086EA070B8BEA0C0B8BEA10
S11354700A0B4FEAB4044FEAFB7B5B4442EA040C98
S113548018440CEA010C02EA04034CEA030C0E9ED5
S11354900B9FCDF834B08444089880EA060383EA6D
S11354A009037B404FEAF3730E93EE4B0E9FDDF836
S11354B024B00C9E4FEAB2021F4482EA0400684002
S11354C039440F1807988BEA000181EA08017140FA
S11354D04FEAF1710CEBF56C07914FEAB5051944ED
S11354E0DDF828B00898119E0C4485EA020181EA8F
S11354F00C010C448BEA0001DDF834B0714081EA00
S11355000B014FEAF17107EBFC6708464FEABC0C4C
S1135510089118448CEA050179400244099EDDF89B
S113552048B05018069981EA06020E9982EA0B02E5
S11355304A404FEAF27204EBF76416464FEAB707A3
S113554009921E4487EA0C0262403544AE180A9D53
S11355500F9ADDF81CB082EA050181EA0A0181EAAA
S11355600B0100EBF4604FEAF1714FEAB4040A91C5
S113557084EA0702194442408C44069DDDF82CB0AD
S11355800CEB0201DDF840C08CEA0502DDF820C016
S113559082EA0B0282EA0C0206EBF0664FEAF27230
S11355A04FEAB000069280EA04051A447540174495
S11355B07A190F9D0C9FDDF824C089EA050B8BEA4C
S11355C0070B8BEA0C0B01EBF6614FEAFB7B4FEA0E
S11355D0B6060BEB030586EA00074F402C44E51999
S11355E0109C0D9F88EA040C0A9C8CEA070C8CEA38
S11355F0040C4FEAFC7C02EBF1620CEB03044FEA6F
S1135600B101204481EA0604119F544020440E9CB9
S113561087EA0909069F89EA040989EA07094FEA22
S1135620F9794C4605EBF2651C444FEAB202264474
S113563082EA0104CDF83C906C40DDF848902644A1
S1135640079C89EA080888EA040888EA0B084FEAF4
S1135650F87800EBF56044464FEAB5051C4485EA4A
S1135660020747402144CC19119FCDF84080DDF852
S113567020808AEA070181EA080181EA0C0106EB2D
S1135680F0664FEAF1714FEAB000CF1880EA0508DE
S113569088EA06083A4402EB0807DDF82C8088EA19
S11356A00902DDF82490DDF83C8082EA090282EAEE
S11356B008024FEAF27204EBF66402EB03084FEAC5
S11356C0B606454486EA0008DDF8309088EA040806
S11356D04544DDF8288089EA0A0ADDF840908AEA20
S11356E0080A8AEA090A4FEAFA7A07EBF4670AEB2E
S11356F003084FEAB404404484EA060888EA070829
S1135700DDF82C904044DDF8348088EA0908DDF89F
S1135710189088EA090888EA01094FEAF979C84625
S113572005EBF76598444FEAB707464487EA04084F
S113573088EA0508CDF82C904644DDF83090DDF871
S1135740388088EA0908CDF8308088EA0B0888EAAE
S113575002084FEAF87800EBF56008EB030B4FEA18
S1135760B5055C4485EA070B8BEA000BDDF8349041
S11357705C44DDF81CB08BEA090B8BEA0C0C8CEA58
S11357800A0A4FEAFA7A06EBF0660AEB030C4FEAD0
S1135790B000DDF820B0DDF83890674480EA050CED
S11357A08CEA060C67448BEA090CDDF83CB08CEA01
S11357B00B0CDDF82CB08CEA0B094FEAF97904EBF9
S11357C0F66409EB030C4FEAB606654486EA000C5E
S11357D08CEA040CDDF81CB06544DDF824C08CEAC6
S11357E00B0CDDF840B08CEA0B0C07EBF467CDF83A
S11357F01CC04FEAB4048CEA080C03EBFC7C84EA7A
S1135800060B8BEA070B6044DDF828805844DDF86A
S113581020B088EA0B0C8CEA010105EBF76581EAFC
S11358200A014FEAB70703EBF17187EA040888EA33
S113583005080E44DDF824A005994644DDF81880D7
S11358400B4488EA0A014A4000EBF56082EA090940
S11358504FEAB50503EBF97385EA070C8CEA000CF3
S113586002E000BFD6C162CA1C44139A06EBF0667C
S1135870644404EBF6649460049B039C1E4404EBB0
S1135880B000D6601061029E01983544074455610A
S1135890976117B0BDE8F08F03682DE9F04103F07C
S11358A03F071344934205460E461446036002D252
S11358B043680133436097B1C7F1400844450ED3B0
S11358C0E819314642461C3000F096F9284605F1A5
S11358D01C01FEF787FF4644C8EB04040027A046DA
S11358E03119B8F13F0FC8EB010105D92846FEF77D
S11358F079FFA8F14008F3E724F03F0114F03F02D8
S1135900314405D0E8191C30BDE8F04100F074B909
S1135910BDE8F081002303604360094B836003F119
S11359208833C36003F12943A3F59613A3F68B636D
S11359300361A3F188334361024B8361704700BF65
S113594001234567F0E1D2C30AB1FFF7A5BF704751
S113595037B590E80C000D46510F41EAC3010446E7
S1135960080ED3008DF80000080C8DF801008DF8A6
S11359700310080A190E02F03F028DF80410190CE6
S1135980372A8DF805104FEA132194BFC2F138026B
S1135990C2F178028DF802008DF8061020461C49E9
S11359A08DF80730FFF7D0FF204669460822FFF73D
S11359B073FFE37A2B7063896B70A3681B0AAB7067
S11359C0A368EB70E37B2B71E3896B71E3681B0ABB
S11359D0AB71E368EB71E37C2B72638A6B722369AE
S11359E01B0AAB722369EB72E37D2B73E38A6B733F
S11359F063691B0AAB736369EB73E37E2B74638B7C
S1135A006B74A3691B0AAB74A369EB7403B030BD58
S1135A10FC89000070B598B00D46064601A81446EE
S1135A20FFF778FF01A831462A46FFF78DFF01A84A
S1135A302146FFF78DFF18B070BD000010B5FCF7CC
S1135A4011F84FF46121034601220248BDE81040D9
S1135A50FAF774BE00B00E4082B0002301930193A4
S1135A6042F210735843019A824204D200BF019A51
S1135A7001320192F7E702B07047000010B541F21D
S1135A8044030F4A0F4C4FF09271D15004F11400AB
S1135A90FCF7D4F80C4B0D4A1A60002104F10802FB
S1135AA00220FCF725F900210A460220FCF76CF8D5
S1135AB004F10C00FBF746FF054B064A1A6010BDC3
S1135AC0007004403C8A000064520220006CDC0236
S1135AD00000FF1F000E2707264B1A6842F40072CD
S1135AE01A601A6842F480621A601A6842F480529A
S1135AF01A601A6842F400521A601F4B1A6A22F4A0
S1135B00E06242F440721A625A6A22F4E06242F499
S1135B1040725A62DA6B22F4E06242F48072DA6311
S1135B2001214FF0000261F30A2214490A83144A46
S1135B30116821F4E0611160916921F4E06141F49C
S1135B4080719161116D21F4E06141F480711165FE
S1135B501A6942F4E0621A615A6942F4E0625A61D5
S1135B609A6942F4E0629A61DA6942F4E062DA61C5
S1135B70704700BF3880044000C0044000D0044097
S1135B8000A0044008B5074B044613B10021AFF34D
S1135B900080054B1868836A03B19847204600F0DB
S1135BA045F800BF00000000608A000070B50E4B8D
S1135BB00E4DED1AAD1000241E46AC4204D056F82A
S1135BC0242090470134F8E702F04CFF084D094BBC
S1135BD0ED1AAD1000241E46AC4204D056F8242021
S1135BE090470134F8E770BD848A0000848A00007D
S1135BF0888A0000848A000010B50023934203D0F1
S1135C00CC5CC4540133F9E710BD0244034693420B
S1135C1002D003F8011BFAE77047034613F8012B7F
S1135C20002AFBD1181A013870470000FEE700BFB4
S1135C30010153616E646C61637573446174612323
S1135C4040310000000053616E646C6163757344FD
S1135C5061746123403153616E646C616375734494
S1135C6061746123403100000000000000004861BD
S1135C7073206E6F2000484153000D0A5354455061
S1135C802031203A20626174746572792061646302
S1135C9020636865636B0D0A0041444331365F44F9
S1135CA06F4175746F43616C6962726174696F6E80
S1135CB0282920446F6E652E0D0A00414443313675
S1135CC05F446F4175746F43616C6962726174699A
S1135CD06F6E2829204661696C65642E0D0A0041A7
S1135CE044432056616C75653A2025642020424166
S1135CF05420566F6C746167653A2025640D0A0060
S1135D00257320436861726765720D0A00536875D4
S1135D1074446F776E2E2E2E0D0A000D0A535445CF
S1135D20502032203A207265636F7264207265736A
S1135D30657420726561736F6E0D0A004E4F2E20DC
S1135D40256420494D472C206877207665722045CC
S1135D5052520D0A000D0A7265616420696E746501
S1135D60726E616C2068656164657220696E20667C
S1135D706C6173680D0A00696E7465726E616C20E3
S1135D80696D67207377203D2025642E25642E25B8
S1135D90642E25640D0A00696E7465726E616C2050
S1135DA0696D67206877203D2025642E25642E25A3
S1135DB0642E25640D0A00696E7465726E616C2030
S1135DC06865616465722073686131206572726F01
S1135DD0720D0A00496E7465726E616C20696D679C
S1135DE02068656164657220736861312070617335
S1135DF0730D0A000D0A726561642065787465721A
S1135E006E616C2068656164657220696E20666CE1
S1135E106173680D0A004E4F2E256420696D67205A
S1135E207377203D2025642E25642E25642E256459
S1135E300D0A004E4F2E256420696D672068772077
S1135E403D2025642E25642E25642E25640D0A002C
S1135E5065787465726E616C204E4F2E25642068DF
S1135E6065616465722073686131206572726F7256
S1135E700D0A0065787465726E616C204E4F2E2594
S1135E806420696D67206865616465722073686168
S1135E903120706173730D0A00686220696D672098
S1135EA06E656564207570646174652073772C2059
S1135EB075706461746520696D67206973204E4F45
S1135EC02E2025642C207377203D2025642E256404
S1135ED02E25642E25640D0A000D0A5354455020C6
S1135EE0202E32203A20777269746520696D67200C
S1135EF0696E746F20666C6173680D0A00464C41CC
S1135F0053485F496E6974204641494C0D0A004666
S1135F104C4153485F496E69742070617373200D5E
S1135F200A00464C4153485F4572617365206164C1
S1135F30647265737320257820202D2025642062E7
