:02003400C10009
:03000300020211E5
:10021100C0E0C0F0C083C082C0D075D000C000C0B3
:1002210001C002C003C004C005C006C007C2AFC2FE
:10023100A830B20B12001630B205D2B3438F10D2E0
:10024100A8D2AFD007D006D005D004D003D002D0B9
:0E02510001D000D0D0D082D083D0F0D0E032E7
:030053000201B8EF
:1001B800C0E0C0F0C083C082C0D075D000C000C00D
:1001C80001C002C003C004C005C006C007C2AF53C7
:1001D8008FEF20B414120016120016120016120027
:1001E8001612001620B402C2B3438F10D2AFD00744
:1001F800D006D005D004D003D002D001D000D0D092
:09020800D082D083D0F0D0E032A6
:0300830002000672
:10000600C2AF538FBF20B502D200438F40D2AF326A
:1000860043B10153B2FE53B1FD43B202D2B143B103
:100096000453B2FB53B1F743B20843B11053B2EF66
:0B00A60043B12053B2DF30B211D2B3DF
:0F00B1007508C8AF081508EF600512001680F437
:0600C00020B05730B542EC
:1000C60075080175092C12001620B027E5091509D7
:1000D60070021508C3E50994C8E50894005002C2E9
:1000E600B1E50945087013C2B3800320B00C43C1C3
:1000F6001080F8D2B1E4F508F509E509450870C69F
:10010600801230000FC20012001620B007D2B3438F
:100116008F10D2B143C110438F10438F40C288D293
:06012600A81200268094DF
:0E002600C200D2AF000043870200000000229B
:0F0016007F017ED87D23DDFEDEFCDFFA43C110C3
:0100250022B8
:0300000002012CCE
:0C012C00787FE4F6D8FD75812002017395
:10013800020086E493A3F8E493A34003F68001F257
:1001480008DFF48029E493A3F85407240CC8C333C8
:10015800C4540F4420C8834004F456800146F6DF97
:10016800E4800B0102040810204080900034E47EF3
:10017800019360BCA3FF543F30E509541FFEE4938C
:10018800A360010ECF54C025E060A840B8E493A353
:10019800FAE493A3F8E493A3C8C582C8CAC583CA7E
:1001A800F0A3C8C582C8CAC583CADFE9DEE780BE36
:0100360000C9
:00000001FF
