S013000070726F6A6563745F6B32342E73726563EA
S21400000000F00220E904000049050000B5300000B9
S21400001045050000450500004505000000000000FD
S214000020000000000000000000000000C5330000D3
S2140000304505000000000000C5350000253600001C
S2140000405D0500006105000065050000690500000B
S2140000506D050000710500007505000079050000BB
S2140000607D0500008105000085050000890500006B
S2140000708D0500009105000095050000990500001B
S2140000809D050000450500004505000045050000EB
S2140000904505000045050000450500004505000033
S2140000A0A1050000A5050000A9050000AD0500009B
S2140000B0B1050000B505000045050000B9050000C3
S2140000C0BD050000C1050000C5050000C90500000B
S2140000D0CD050000D1050000D5050000450500004F
S2140000E045050000450500004505000045050000E3
S2140000F045050000450500004505000045050000D3
S21400010045050000450500004505000045050000C2
S21400011045050000450500004505000045050000B2
S2140001204505000045050000BDCD000065CD00007A
S21400013089CC0000FDD400004505000009CC000075
S21400014045050000D9050000DD050000E1050000BA
S214000150E5050000E905000045050000450500002E
S2140001604505000045050000ED05000045050000BA
S2140001704505000045050000450500004505000052
S2140001804505000045050000450500004505000042
S2140001904505000045050000450500004505000032
S2140001A04505000045050000450500004505000022
S2140003F0450500004505000045050000FFFFFFFF1E
S214000400FFFFFFFFFFFFFFFFFFFFFFFFFEFFFFFFF8
S21400042010B5054C237833B9044B13B10448AFF329
S21400043000800123237010BDB005FF1F00000000E0
S214000440B01F010008B5064B1BB106480649AFF3BE
S21400045000800648036813B1054B03B1984708BDF2
S21400046000000000B01F0100B405FF1FAC05FF1F11
S21400047000000000154B002B08BF134B9D46A3F54C
S214000480803A00218B460F461348144A121A0DF084
S21400049045F90F4B002B00D098470E4B002B00D091
S2140004A098470020002104000D000D48002802D0C7
S2140004B00C48AFF300800DF0F3F82000290002F09E
S2140004C0F1FC0DF0D9F800BF0000080000F0022093
S2140004D00000000000000000B005FF1F048001209F
S2140004E0000000000000000072B60D480D490160D3
S2140004F00D4880470D490E4A0E4B9A42BEBF51F832
S214000500040B42F8040BF8E70B490C4A0020914212
S214000510BCBF41F8040BFAE762B609488047000002
S21400052008ED00E000000000BD150000D81F010027
S2140005300000FF1FB005FF1FB005FF1F048001204D
S21400054075040000FFF7FEBF29480047294800470A
S21400055029480047294800472948004729480047B6
S21400056029480047294800472948004729480047A6
S2140005702948004729480047294800472948004796
S2140005802948004729480047294800472948004786
S2140005902948004729480047294800472948004776
S2140005A02948004729480047294800472948004766
S2140005B02948004729480047294800472948004756
S2140005C02948004729480047294800472948004746
S2140005D02948004729480047294800472948004736
S2140005E02948004729480047294800472948004726
S2140005F049050000B5300000C5330000C5350000D1
S214000600253600002D2A0000D1890000E58900006B
S214000610F98900000D8A0000218A0000358A000052
S214000620498A00005D8A0000718A0000858A000001
S214000630998A0000AD8A0000C18A0000D58A0000B1
S214000640E98A0000450500005994000075940000F2
S21400065085840000C18400006D990000B1990000F7
S21400066015A900004505000041A900004505000049
S2140006706DA900004505000099A900004505000089
S214000680FD840000C5A9000045050000F1A9000092
S214000690450500009194000010F8012B11F8013B6D
S2140006A0012A28BF9A42F7D0D01A704781F000413D
S2140006B002E000BF83F0004330B54FEA41044FEA42
S2140006C0430594EA050F08BF90EA020F1FBF54EADD
S2140006D0000C55EA020C7FEA645C7FEA655C00F079
S2140006E0E2804FEA5454D4EB5555B8BF6D420CDD4A
S2140006F02C4480EA020281EA030382EA000083EACD
S214000700010180EA020281EA0303362D88BF30BD6C
S21400071011F0004F4FEA01314FF4801C4CEA1131C2
S21400072002D0404261EB410113F0004F4FEA033321
S2140007304CEA133302D0524263EB430394EA050FAC
S21400074000F0A780A4F10104D5F1200E0DDB02FA1B
S2140007500EFC22FA05F2801841F1000103FA0EF2AF
S214000760801843FA05F359410EE0A5F120050EF175
S214000770200E012A03FA0EFC28BF4CF0020C43FAA6
S21400078005F3C01851EBE37101F0004507D54FF0B3
S214000790000EDCF1000C7EEB00006EEB0101B1F503
S2140007A0801F1BD3B1F5001F0CD349085FEA300049
S2140007B04FEA3C0C04F101044FEA445212F5800F54
S2140007C080F09A80BCF1004F08BF5FEA500C50F1F1
S2140007D0000041EB045141EA050130BD5FEA4C0CD4
S2140007E0404141EB010111F4801FA4F10104E9D15D
S2140007F091F0000F04BF01460020B1FA81F308BF54
S2140008002033A3F10B03B3F120020CDA0C3208DD1F
S21400081002F1140CC2F10C0201FA0CF021FA02F1FA
S2140008200CE002F11402D8BFC2F1200C01FA02F16A
S21400083020FA0CFCDCBF41EA0C019040E41AA2BF8F
S21400084001EB0451294330BD6FEA04041F3C1CDA57
S2140008500C340EDC04F11404C4F1200220FA04F077
S21400086001FA02F340EA030021FA04F345EA030121
S21400087030BDC4F10C04C4F1200220FA02F001FAE3
S21400088004F340EA0300294630BD21FA04F0294665
S21400089030BD94F0000F83F4801306BF81F48011FE
S2140008A00134013D4EE77FEA645C18BF7FEA655C71
S2140008B029D094EA050F08BF90EA020F05D054EA43
S2140008C0000C04BF1946104630BD91EA030F1EBF48
S2140008D00021002030BD5FEA545C05D1400049414C
S2140008E028BF41F0004130BD14F580043CBF01F53F
S2140008F0801130BD01F0004545F0FE4141F4700125
S2140009004FF0000030BD7FEA645C1ABF19461046FF
S2140009107FEA655C1CBF0B46024650EA013406BF00
S21400092052EA033591EA030F41F4002130BD00BFBF
S21400093090F0000F04BF0021704730B54FF480647C
S21400094004F132044FF000054FF0000150E700BFFD
S21400095090F0000F04BF0021704730B54FF480645C
S21400096004F1320410F0004548BF40424FF0000149
S2140009703EE700BF42004FEAE2014FEA31014FEA8C
S21400098002701FBF12F07F4393F07F4F81F06051DB
S214000990704792F0000F14BF93F07F4F704730B54A
S2140009A04FF4607401F0004521F0004120E700BFDD
S2140009B050EA010208BF704730B54FF000050AE064
S2140009C050EA010208BF704730B511F0004502D565
S2140009D0404261EB41014FF4806404F132045FEA67
S2140009E0915C3FF4DCAE4FF003025FEADC0C18BF0C
S2140009F003325FEADC0C18BF033202EBDC02C2F102
S214000A00200300FA03FC20FA02F001FA03FE40EA93
S214000A100E0021FA02F11444C1E600BF70B54FF093
S214000A20FF0C4CF4E06C1CEA11541DBF1CEA135575
S214000A3094EA0C0F95EA0C0F00F0DEF82C4481EADD
S214000A40030621EA4C5123EA4C5350EA013518BFFD
S214000A5052EA033541F4801143F4801338D0A0FBEA
S214000A6002CE4FF00005E1FB02E506F00042E0FB97
S214000A7003E54FF00006E1FB03569CF0000F18BF9D
S214000A804EF0010EA4F1FF04B6F5007F64F5407445
S214000A9004D25FEA4E0E6D4146EB060642EAC621D8
S214000AA041EA55514FEAC52040EA5E504FEACE2E45
S214000AB0B4F1FD0C88BFBCF5E06F1ED8BEF1004F48
S214000AC008BF5FEA500E50F1000041EB045170BDC4
S214000AD006F0004646EA010140EA020081EA030108
S214000AE0B4EB5C04C2BFD4EB0C0541EA045170BD04
S214000AF041F480114FF0000E013C00F3AB8014F17E
S214000B00360FDEBF002001F0004170BDC4F10004C6
S214000B10203C35DA0C341BDC04F11404C4F1200547
S214000B2000FA05F320FA04F001FA05F240EA0200A2
S214000B3001F0004221F0004110EBD37021FA04F6D8
S214000B4042EB06015EEA430E08BF20EAD37070BD92
S214000B50C4F10C04C4F1200500FA04F320FA05F0F1
S214000B6001FA04F240EA020001F0004110EBD370F3
S214000B7041F100015EEA430E08BF20EAD37070BD63
S214000B80C4F1200500FA05F24EEA020E20FA04F33C
S214000B9001FA05F243EA020321FA04F001F00041EB
S214000BA021FA04F220EA020000EBD3705EEA430E5C
S214000BB008BF20EAD37070BD94F0000F0FD101F08B
S214000BC00046400041EB010111F4801F08BF013CC4
S214000BD0F7D041EA060195F0000F18BF704703F002
S214000BE00046520043EB030313F4801F08BF013D89
S214000BF0F7D043EA0603704794EA0C0F0CEA135545
S214000C0018BF95EA0C0F0CD050EA410618BF52EAFE
S214000C104306D1D181EA030101F000414FF0000004
S214000C2070BD50EA410606BF1046194652EA430612
S214000C3019D094EA0C0F02D150EA013613D195EA86
S214000C400C0F05D152EA03361CBF104619460AD1CE
S214000C5081EA030101F0004141F0FE4141F47001D8
S214000C604FF0000070BD41F0FE4141F4780170BDC8
S214000C7070B54FF0FF0C4CF4E06C1CEA11541DBF2D
S214000C801CEA135594EA0C0F95EA0C0F00F0A7F82F
S214000C90A4EB050481EA030E52EA03354FEA01315C
S214000CA000F088804FEA03334FF0805545EA13136F
S214000CB043EA12634FEA022245EA111545EA106537
S214000CC04FEA00260EF000419D4208BF964244F1CE
S214000CD0FD0404F5407402D25B084FEA3202B61AED
S214000CE065EB03055B084FEA32024FF480104FF4C1
S214000CF0002CB6EB020E75EB030E22BFB61A754635
S214000D0040EA0C005B084FEA3202B6EB020E75EBC7
S214000D10030E22BFB61A754640EA5C005B084FEA2F
S214000D203202B6EB020E75EB030E22BFB61A7546FC
S214000D3040EA9C005B084FEA3202B6EB020E75EB07
S214000D40030E22BFB61A754640EADC0055EA060EC8
S214000D5018D04FEA051545EA16754FEA06164FEA0B
S214000D60C30343EA52734FEAC2025FEA1C1CC0D1B7
S214000D7011F4801F0BD141EA00014FF000004FF044
S214000D80004CB6E711F4801F04BF01430020B4F105
S214000D90FD0C88BFBCF5E06F3FF6AFAEB5EB030CBD
S214000DA004BFB6EB020C5FEA500C50F1000041EBBA
S214000DB0045170BD0EF0004E4EEA113114EB5C0487
S214000DC0C2BFD4EB0C0541EA045170BD41F480115A
S214000DD04FF0000E013C90E645EA060E8DE60CEA62
S214000DE0135594EA0C0F08BF95EA0C0F3FF43BAF7F
S214000DF094EA0C0F0AD150EA01347FF434AF95EA36
S214000E000C0F7FF425AF104619462CE795EA0C0F19
S214000E1006D152EA03353FF4FDAE1046194622E7E6
S214000E2050EA410618BF52EA43067FF4C5AE50EAC0
S214000E3041047FF40DAF52EA43057FF4EBAE12E7B0
S214000E404FEA410212F5001215D211D56FF47873ED
S214000E50B3EB625212D94FEAC12343F0004343EA90
S214000E60505311F0004F23FA02F018BF404270476B
S214000E704FF00000704750EA013005D111F00040F5
S214000E8008BF6FF0004070474FF00000704700BF8B
S214000E9080B483B000AF78600B46FB70FB78002B05
S214000EA008D07B68DB78DBB243F00803DAB27B68F5
S214000EB0DA7007E07B68DB78DBB223F00803DAB28F
S214000EC07B68DA700C37BD465DF8047B704700BF60
S214000ED080B483B000AF78600B46FB70FB78002BC5
S214000EE008D07B68DB78DBB243F00403DAB27B68B9
S214000EF0DA7007E07B68DB78DBB223F00403DAB253
S214000F007B68DA700C37BD465DF8047B704700BF1F
S214000F1080B588B000AFF860B9603B601346FB71DF
S214000F201C4B1B78002B01D001232EE0194BFA79BD
S214000F301A70FB79012B27D1FA68164B5A6007F115
S214000F401403184608F09EFFBB687B61114B5A6875
S214000F5007F11403104619463A6808F035FE0D4BA3
S214000F605B6818460121FFF793FF0A4B5B6818463B
S214000F700121FFF7ADFF074B074A9A60054B074A6A
S214000F80DA6000BF002300E0042318462037BD4681
S214000F9080BD00BFCC05FF1FA5A0000039A1000042
S214000FA00FB480B582B000AF0B4B1B78002B02D17C
S214000FB04FF0FF3309E007F114033B600748396937
S214000FC03A6800F0D5F878607B6818460837BD4662
S214000FD0BDE8804004B07047CC05FF1FE10F00005D
S214000FE080B582B000AF78600A4B1B78002B02D128
S214000FF04FF0FF3309E0074B9B68064A51683A1DDD
S2140010000846114601229847012318460837BD4670
S21400101080BD00BFCC05FF1F80B586B000AFB960AD
S2140010207A603B600346FB73BB687B610CE097F914
S2140010300F203B6A104698473B681B685A1C3B6863
S2140010401A607B6901337B617A697B689A42EEDBC2
S2140010501837BD4680BD00BF80B48DB000AFF860C5
S214001060B9607A603B600023FB61FB68BB61BB69CB
S2140010705A1CBA6100221A707B68002B36D0BB68F7
S2140010801B68FB62FB6A002B07D1BB6930221A7013
S214001090FB690133FB61FB6964E023E0FA6A3B68A5
S2140010A092FBF3F37B617B693A6802FB03F3FA6A0F
S2140010B0D31ABB62BB6A002B06DABB6A3B623B6A8A
S2140010C0C3F13003BB6202E0BB6A3033BB627B69AC
S2140010D0FB62BB695A1CBA61BA6AD2B21A70FB6963
S2140010E00133FB61FB6A002BD8D13AE0BB681B6872
S2140010F07B627B6A002B07D1BB6930221A70FB69C2
S2140011000133FB61FB692DE028E03B687A6AB2FB9D
S214001110F3F33B613B683A6902FB03F37A6AD31A3E
S2140011203B623B6A092B03D83B6A30333B620AE0DA
S21400113097F83830002B01D0412300E061233A6A4B
S21400114013440A3B3B623B697B62BB695A1CBA612B
S2140011503A6AD2B21A70FB690133FB617B6A002BD4
S214001160D3D1FB6918463437BD465DF8047B70471B
S21400117080B59CB002AFF860B9607A6000233B6629
S2140011800023FB650023BB61002387F84A30002359
S2140011903B61BB687B6688E17B6C252B06D0FB68D1
S2140011A0786C9847BB690133BB617BE1012387F804
S2140011B04B3000237B650023BB651CE07B6E013350
S2140011C07B667B6E1B785BB27B647B6C2F2B0DDDA6
S2140011D07B6C392B0ADC7A6D13469B0013445B004C
S2140011E01A467B6C1344303B7B6504E07B6E013B08
S2140011F07B660123BB65BB6D002BDFD006233B65FA
S2140012007B6E01337B667B6E1B785BB22E2B25D103
S21400121000233B650023BB651CE07B6E01337B66C9
S2140012207B6E1B785BB27B647B6C2F2B0DDD7B6C3F
S214001230392B0ADC3A6D13469B0013445B001A46B2
S2140012407B6C1344303B3B6504E07B6E013B7B6666
S2140012500123BB65BB6D002BDFD002E07B6E013B3C
S2140012607B667B6E01337B667B6E1B785BB27B6432
S2140012707B6C642B1BD07B6C692B18D07B6C662B2D
S21400128015D07B6C462B12D07B6C782B0FD07B6CEA
S214001290582B0CD07B6C6F2B09D07B6C622B06D046
S2140012A07B6C702B03D07B6C752B40F0BA807B6C0C
S2140012B0642B02D07B6C692B17D17B681A1D7A6071
S2140012C01B687B6107F11C0207F1140397F84B10AB
S2140012D000911046194601220A23FFF7BDFEF86565
S2140012E007F11C02FB6D13443B667B6C582B02D047
S2140012F07B6C782B1DD17B6C782B02D1002387F872
S2140013004B307B681A1D7A601B683B6107F11C0234
S21400131007F1100397F84B1000911046194600226B
S2140013201023FFF799FEF86507F11C02FB6D1344C6
S2140013303B667B6C6F2B07D17B681A1D7A601B6837
S2140013403B61082387F84A307B6C622B0CD17B68A4
S2140013501A1D7A601B683B61022387F84A3007F142
S2140013601C02FB6D13443B667B6C702B0CD17B68B8
S2140013701A1D7A601B683B61102387F84A3007F114
S2140013801C02FB6D13443B667B6C752B0CD17B6893
S2140013901A1D7A601B683B610A2387F84A3007F1FA
S2140013A01C02FB6D13443B667B6C6F2B08D07B6C7A
S2140013B0622B05D07B6C702B02D07B6C752B13D107
S2140013C097F84A3007F11C0107F1100297F84B0016
S2140013D00090084611460022FFF73EFEF86507F12A
S2140013E01C02FB6D13443B667A6D07F11803F9681F
S2140013F000912020F96DFFF70FFE3B6E002B0FD0FB
S2140014000AE03B6E5A1E3A661B785AB2FB681046D4
S2140014109847BB690133BB613B6E1B78002BF0D14C
S21400142040E07B6C632B0DD17B681A1D7A601B68CD
S214001430DBB25BB23B64FB68386C9847BB69013330
S214001440BB612FE07B6C732B26D17B681A1D7A60FC
S2140014501B68FB64FB6C002B24D0F86C0CF0EDF9D9
S2140014600346FB657A6D07F11803F96800912020A2
S214001470F96DFFF7D1FD0AE0FB6C5A1CFA641B7885
S2140014805AB2FB6810469847BB690133BB61FB6CD8
S2140014901B78002BF0D105E0FB68786C9847BB6999
S2140014A00133BB617B6E01337B667B6E1B785BB260
S2140014B07B647B6C002B7FF46FAEBB691846683785
S2140014C0BD4680BD80B584B000AFF860B9607A6074
S2140014D0BB68002B02D14FF0FF3318E0FB68012BEE
S2140014E005D0FB68022B02D04FF0FF330FE00A4B0B
S2140014F01B78002B02D14FF0FF3308E0064B9B68A9
S214001500054A51687A680846B96898477B6818465D
S2140015101037BD4680BD00BFCC05FF1F80B584B028
S21400152000AFF860B9607A60FB68002B02D04FF01D
S214001530FF330FE0094B1B78002B02D14FF0FF332F
S21400154008E0064BDB68054A51687A680846B968C1
S21400155098477B6818461037BD4680BDCC05FF1FF0
S21400156080B584B000AF7860114B1B68002B02D1A9
S2140015700F4B104A1A600E4B1B68FB600C4B1A6828
S2140015807B681A440C4B9A4207D90CF06FF8034656
S2140015900C221A604FF0FF3306E0054B1A687B6892
S2140015A01A44034B1A60FB6818461037BD4680BDC8
S2140015B0DC05FF1F00D0022000D4022080B400AF5C
S2140015C00B4B0B4AD2F8882042F47002C3F88820EE
S2140015D0084B4CF22052DA81064B4DF62812DA817F
S2140015E0044B4FF4E9721A80BD465DF8047B7047E1
S2140015F000ED00E00020054080B483B000AF034655
S2140016003960FB7197F90730002B0BDA0D49FB792F
S21400161003F00F03043B3A68D2B21201D2B20B4475
S2140016201A7609E0084997F907303A68D2B21201EB
S214001630D2B20B4483F800230C37BD465DF8047B1A
S214001640704700BF00ED00E000E100E080B586B026
S21400165000AF78607F4B7B6101233B6178687969D6
S2140016600CF00AF9F8607C48F968FFF715F80346AD
S214001670002B18D1002079690CF0FEF8F860FB68A2
S214001680002B00F0E280754B03221A70734BFA6849
S2140016905A60734B1B68184670494FF0FF320023A0
S2140016A002F0E6FDD1E06F48F968FEF7F5FF034665
S2140016B0002B2BD1002079690CF0DEF8F860FB686F
S2140016C0002B00F0C280F8680BF0CCFF03469AB2FD
S2140016D0624B5A80002079690CF0CEF8F860F86802
S2140016E00CF0ABF803461A465C4B9A605B4B012243
S2140016F01A705A4BFA685A60594B1B681846574975
S2140017004FF0FF32002302F0B3FD9EE05648F96822
S214001710FEF7C2FF0346002B2BD1002079690CF0A0
S214001720ABF8F860FB68002B00F08F80F8680BF0D1
S21400173099FF03469AB2494B5A80002079690CF00B
S2140017409BF8F860F8680CF078F803461A46434BA6
S2140017509A60424B02221A70404BFA685A60404B1D
S2140017601B6818463D494FF0FF32002302F080FD0B
S2140017706BE03E48F968FEF78FFF0346002B17D153
S214001780002079690CF078F8F860FB68002B5CD0D4
S214001790324B04221A70314BFA685A60304B1B6881
S2140017A018462E494FF0FF32002302F061FD4CE050
S2140017B02F48F968FEF770FF0346002B17D100206C
S2140017C079690CF059F8F860FB68002B3DD0234B84
S2140017D005221A70214BFA685A60214B1B6818467E
S2140017E01E494FF0FF32002302F042FD2DE0214853
S2140017F0F968FEF751FF0346002B0CD1174B002269
S2140018001A70174B1B68184614494FF0FF32002316
S21400181002F02EFD19E01848F968FEF73DFF034672
S214001820002B0CD10D4B06221A700D4B1B68184668
S2140018300A494FF0FF32002302F01AFD05E00F4878
S214001840FFF7AEFB4FF0FF3300E0012318461837D2
S214001850BD4680BD9CEF0000A0EF0000406AFF1F61
S2140018604C6AFF1FACEF0000B8EF0000C8EF0000A6
S214001870D0EF0000D8EF0000E0EF0000E8EF000037
S21400188080B588B000AF78607B68FB61FB697B61E0
S2140018900023BB6107F10F031C48194601220023F1
S2140018A009F064FA38613A6940F2F1339A4202D19B
S2140018B01748FFF775FB3B69B3F57C7F02D11548E7
S2140018C0FFF76EFBFB7B5BB20A2B01D00D2B0AD118
S2140018D0BB69002B00D113E0FB6900221A70FA697D
S2140018E07B69D31A0DE0BB69B3F5C05F08DAFB6904
S2140018F05A1CFA61FA7B1A70BB690133BB61C9E7EF
S214001900C8E718462037BD4680BD00BFE005FF1F6C
S214001910F4EF000000F0000080B584B000AF7860FF
S214001920022005F01BFA0246114B5A60104B114A72
S2140019301A6044200521FFF75FFE0F480F490C4A46
S21400194009F0FEF80346002B05DA0D48FFF728FBE2
S214001950002003F059FA0B48FFF792FFF860FB6887
S214001960002B03DD0748FFF771FEF4E7F3E700BF3F
S2140019707403FF1F00B00E40E005FF1F0806FF1FA0
S2140019800CF00000381EFF1F80B483B000AF034683
S2140019903960FB7197F90730002B0BDA0D49FB799C
S2140019A003F00F03043B3A68D2B21201D2B20B44E2
S2140019B01A7609E0084997F907303A68D2B2120158
S2140019C0D2B20B4483F800230C37BD465DF8047B87
S2140019D0704700BF00ED00E000E100E080B586B093
S2140019E000AF786000237B6124E07B685A1C7A6035
S2140019F01B78303BDBB21B01DAB207F108017B69CA
S214001A000B441A7007F108027B6913441B78DAB29C
S214001A107B68591C79601B78303BDBB2DBB2134322
S214001A20DBB2DAB207F108017B690B441A707B69F6
S214001A3001337B617B69072BD7DD07F108027B69E1
S214001A4013447868194600F079F901F067FD07F14C
S214001A50080307484FF482611A460C2307F002FE7B
S214001A6001F08AFD012318461837BD4680BD00BF29
S214001A70587AFF1F80B592B000AFF860B9607A6000
S214001A8001237B647B683B643B6CF8681946654AB7
S214001A9009F05AFAF863BB68C3F30B03002B05D0B2
S214001AA06148FFF77DFA4FF0FF33B7E0BB68B3F548
S214001AB0801F28D107F1100318465A4914220BF04C
S214001AC024FE07F1240359484FF47E611A460AF0B3
S214001AD077FF07F1240207F1100310461946142277
S214001AE00BF004FE0346002B06D05148B968FFF7FA
S214001AF057FA4FF0FF3391E04E484A494FF4805270
S214001B000BF003FE35E0BB68A3F58013002B01DA6B
S214001B1003F6FF731B13013B1A4613469B00134440
S214001B209B00BB63BB6B03F1A802424B134407F157
S214001B3010021046194614220BF0E7FD07F12403A5
S214001B4038484FF480511A460AF03AFF07F124024B
S214001B5007F110031046194614220BF0C7FD034682
S214001B60002B06D03448B968FFF71AFA4FF0FF3357
S214001B7054E0BB683148194604F05EFDBB682F4848
S214001B8019464FF48052274B04F0DCFDBB682B4807
S214001B9019464FF480522A4B04F08CFD2848214900
S214001BA04FF480520BF051FE0346002B02D1012366
S214001BB07B6405E02348FFF7F3F94FF0FF337B64BF
S214001BC0BB6803F580231D48194604F035FDBB6845
S214001BD003F58023194819464FF48052114B04F040
S214001BE0B1FDBB6803F58023144819464FF48052B4
S214001BF0134B04F05FFD12480A494FF480520BF075
S214001C0024FE0346002B02D101237B6405E00D4829
S214001C10FFF7C6F94FF0FF337B647B6C18464837F6
S214001C20BD4680BD3846FF1F04F100005846FF1F22
S214001C3014F100003836FF1F34F10000FC75012057
S214001C403856FF1F54F1000080B586B000AF3B4603
S214001C5000221A60043300221A60043300221A603D
S214001C60043300221A60043300221A600433002270
S214001C701A6004334FF4E133BB60154B3B614FF4FD
S214001C80C0537B61002005F069F803467B60114B6A
S214001C903B6021200721FFF777FE3B460E480F49A1
S214001CA01A4608F04DFF0346002B05DA0C48FFF7EE
S214001CB077F9002003F0A8F8002000214DF64052E6
S214001CC001F048FA012318461837BD4680BD00BF0C
S214001CD0807BFF1F00B00640287BFF1F507BFF1F46
S214001CE080F1000080B582B000AF114811494FF472
S214001CF0806209F0DDF878607B68002B0AD140F638
S214001D00B83003F02FF80A480A494FF4806209F009
S214001D10CFF878600848FFF743F97B68002B02D1BC
S214001D204FF0FF3300E0012318460837BD4680BD5C
S214001D30287BFF1F3866FF1FA4F1000090B585B012
S214001D4000AF786039600023BB600023FB60C0E012
S214001D50FB687A6813441B785BB22F2B13DDFB6895
S214001D607A6813441B785BB2392B0CDCBB683A6884
S214001D701344FA6879680A44127852B2303A12016B
S214001D80D2B21A7034E0FB687A6813441B785BB2F0
S214001D90402B13DDFB687A6813441B785BB25A2B22
S214001DA00CDCBB683A681344FA6879680A4412780F
S214001DB052B2373A1201D2B21A7019E0FB687A684A
S214001DC013441B785BB2602B12DDFB687A68134401
S214001DD01B785BB27A2B0BDCBB683A681344FA6854
S214001DE079680A44127852B2573A1201D2B21A707F
S214001DF0FB6801337A6813441B785BB22F2B1BDD1C
S214001E00FB6801337A6813441B785BB2392B13DC0A
S214001E10BB683A681344BA6839680A441178FA68A5
S214001E200132786802441278D2B2303AD2B2D2B2D4
S214001E300A43D2B21A7046E0FB6801337A6813444C
S214001E401B785BB2402B1BDDFB6801337A681344BA
S214001E501B785BB25A2B13DCBB683A681344BA682B
S214001E6039680A441178FA680132786802441278B0
S214001E70D2B2373AD2B2D2B20A43D2B21A7022E003
S214001E80FB6801337A6813441B785BB2602B1ADD5B
S214001E90FB6801337A6813441B785BB27A2B12DC3A
S214001EA0BB683A681344BA6839680A441178FA6815
S214001EB00132786802441278D2B2573AD2B2D2B21D
S214001EC00A43D2B21A70BB680133BB60FB680233A8
S214001ED0FB60FC6878680BF0B0FC03469C42FFF49D
S214001EE037AF1437BD4690BD80B400AFBFF34F8FF9
S214001EF0054A054BDB6803F4E061044B0B43D360F3
S214001F00BFF34F8F00BFFDE700ED00E00400FA05C9
S214001F10B0B58EB000AF786007F1080300221A60F3
S214001F20043300221A60043300221A70013300239F
S214001F307B6300233B630023FB8501200C210022EA
S214001F4002F0FAF80246BC4B1A60BC48012108228F
S214001F500BF0E4FB00F0D2FD01233B7500237B75FC
S214001F6007F11403B64811211A4607F0E7F90020D6
S214001F700BF034FA01233B7600237B7607F1180337
S214001F80AF480A211A4607F0D9F904F059FCAD4BC0
S214001F9000221A60AC48FFF703F800E000BFA64B2B
S214001FA01B681846A9494FF0FF32002302F062FB77
S214001FB0A64B1B78013B052BF0D801A252F823F064
S214001FC0992200009D1F0000D91F0000EF1F00008F
S214001FD073200000292300009C4B5B681846FFF71F
S214001FE0FDFC0023FB859A48FEF7DAFFA2E1974B3B
S214001FF05B6807F108021046194608220BF085FBBD
S21400200007F1080318469349934A0BF0A7FB8F4B3A
S2140020105B68083307F108021046194608220BF0E1
S21400202074FB07F1080318468A498C4A0BF096FBA6
S214002030864B5B68103307F10802104619460822E3
S2140020400BF063FB07F1080318468249844A0BF03D
S21400205085FB00F0A3FF00F0CBFFFFF7F5FD814BFB
S214002060D3F8603318460BF0B9F97F48FEF798FFAF
S21400207060E1764B5B68184600210A220BF0DCFC18
S214002080034607EE103AF8EEC77AC7ED0A7A774BA2
S2140020907B6297ED097AF2EE0E7A37EE677AD7ED25
S2140020A00A7AB4EEE77AF1EE10FA00F2EF8097EDD6
S2140020B0097AF2EE0E7A37EE277AD7ED0A7AB4EE80
S2140020C0E77AF1EE10FAC0F2E18097ED097AF0EEC9
S2140020D0087A37EE677AD7ED0A7AB4EEE77AF1EE49
S2140020E010FA27D897ED097AF0EE087A37EE277AB5
S2140020F0D7ED0A7AB4EEE77AF1EE10FA1ADBFFF7BC
S214002100F1FD0346012B10D10023FB85554BD3F878
S214002110603357481946FEF743FFFB8D5A1CFA8575
S21400212054481946FEF73CFF7AE053482021FEF754
S21400213037FF75E04FF47A7002F014FE7B6B0133C4
S2140021407B63796B4D4BA3FB01235A0813465B0058
S2140021501344CA1A002A03D04348FEF721FF5FE063
S2140021607B6B0C2B04D144482821FEF719FF57E05F
S2140021703C4BD3F860333B6297ED0A7ADFED407A4A
S214002180C7EE277A17EE900AFEF7F4FB02460B46D8
S2140021901046194624A3D3E90023FEF78BFA02461D
S2140021A00B46104619464FF00002364BFEF736FC3B
S2140021B002460B46104619461DA3D3E90023FEF738
S2140021C057FD02460B4614461D46386AFEF7C0FB0E
S2140021D002460B4620462946FEF76CFA02460B4698
S2140021E010461946FEF72CFE0346FB613A6AFB6969
S2140021F0D31AFB61FA691B4BC3F860232248F969BE
S2140022000BF094FA00F0CAFE00F0F2FE154BD3F87D
S214002210603318460BF0E2F81348FEF7C1FE3AE0CA
S21400222039E000BFAFF30080CDCCCCCCCCCC8A401C
S2140022309A999999999929404C6AFF1F386AFF1F05
S21400224000F00F4000D0034004F20000406AFF1F79
S21400225018F2000024F200004800FF1F4C00FF1F89
S2140022605000FF1F0000FF1F28F20000B012544964
S21400227034F2000044F2000058F20000ABAAAAAA0A
S21400228000007A440000F04064F200002A4828214A
S214002290FEF786FE4EE04DE0284B5A884FF6FF7359
S2140022A09A4205D10023FB852548FEF779FE3AE0E1
S2140022B0224B5B881A46FB8D013B9A4204D01E488F
S2140022C02921FEF76DFE2EE01C4B59681B4B5B88E0
S2140022D003F580731A03194B9B68084611461A4685
S2140022E0FFF7C8FB0346002B13DA3B6B01333B6357
S2140022F03B6B032B06D900233B630F482621FEF7D2
S2140023004FFE10E0FB8D013B0E481946FEF748FED7
S21400231010E000233B63FB8D5A1CFA8509481946DA
S214002320FEF73EFE06E005E00748FEF739FEFFF73B
S214002330DBFD00BF32E600BF58F20000406AFF1F18
S2140023406CF2000044F2000078F20000AFF3008068
S21400235080B483B000AF0346FB71084B97F90720A3
S2140023605209F97901F01F01012000FA01F143F842
S21400237022100C37BD465DF8047B704700E100E094
S21400238080B483B000AF03463960FB7197F907301D
S214002390002B0BDA0D49FB7903F00F03043B3A6878
S2140023A0D2B21201D2B20B441A7609E0084997F964
S2140023B007303A68D2B21201D2B20B4483F8002337
S2140023C00C37BD465DF8047B704700BF00ED00E0AB
S2140023D000E100E080B483B000AF786039607B68CD
S2140023E03A685A600C37BD465DF8047B704700BFFC
S2140023F080B483B000AF78600B46FB70FB78002B90
S2140024000AD07B6893F82130DBB263F07F03DAB240
S2140024107B6883F8212009E07B6893F82130DBB2E3
S21400242003F07F03DAB27B6883F821200C37BD46C1
S2140024305DF8047B704700BF80B582B000AF78605F
S2140024407B68002B05D106488121064A064B04F01E
S214002450E7FF7B6800221A700837BD4680BD00BFC4
S2140024608CF20000C4120100C0F2000080B485B0F7
S21400247000AFF8600B467A60FB72FB7AFA6810339E
S2140024801B0113447A681A601437BD465DF8047B56
S214002490704700BF80B483B000AF78600B46FB7017
S2140024A0FB78FA78796812010A4402F58472126899
S2140024B042F0010279681B010B4403F584731A602D
S2140024C00C37BD465DF8047B704700BF80B483B010
S2140024D000AF78600B46FB70FB78FA7879681201DB
S2140024E00A4402F58472126822F0010279681B0120
S2140024F00B4403F584731A600C37BD465DF8047B05
S214002500704700BF80B582B000AF786039603B6826
S2140025100F2B05D90A4864210A4A0B4B04F080FFAA
S2140025207A683B6813441B78DBB263F07F03DAB249
S21400253079683B680B441A700837BD4680BD00BFFB
S214002540C8F20000AC120100FCF2000080B582B0B8
S21400255000AF786039603B680F2B05D90A487421B4
S2140025600A4A0B4B04F05CFF7A683B6813441B78FE
S214002570DBB203F07F03DAB279683B680B441A706B
S2140025800837BD4680BD00BFC8F2000064120100D7
S214002590FCF2000080B584B000AFF860B9607A60E5
S2140025A0BB680F2B05D90E4882210E4A0E4B04F04D
S2140025B037FFFA68BB6813441B78DBB223F03F038F
S2140025C0DAB27B68DBB203F03F03DBB21343DAB266
S2140025D0F968BB680B441A701037BD4680BD00BF53
S2140025E0C8F200007C120100FCF2000080B582B048
S2140025F000AF786039603B680F2B05D90A489221F6
S2140026000A4A0B4B04F00CFF7A683B6813441B78AD
S214002610DBB243F04003DAB279683B680B441A70C9
S2140026200837BD4680BD00BFC8F20000901201000A
S214002630FCF2000080B586B000AF6A4A07F11003CE
S21400264012881A8007F11003674808211A4606F018
S21400265075FE644A07F1140312881A8007F1140302
S214002660624802211A4606F069FE07F10C03184676
S21400267004F068FF01233B7300237B7307F10C0310
S2140026805B48194604F022FF07F10803184604F0D9
S214002690D1FF01233B7207F108035548194604F0A1
S2140026A06DFF53480121FFF7A3FE524805F026F8B8
S2140026B050480021FFF74AFF4E48002140F23F12E3
S2140026C0FFF768FF4B480021FFF790FF49480021BD
S2140026D0FFF718FF3B1D184606F0AAF83B1D4648B4
S2140026E0194606F05FF8444B00221A60424B434AF4
S2140026F003F580531A60404B03F5805310333C4A71
S2140027001A603D4B03F58053063340F201121A80DF
S214002710394B03F5805306331B889AB240F20113F7
S2140027209A4205D036484721364A374B04F078FEA1
S214002730314B03F58053043302221A802E4B03F5E7
S2140027408053143300221A802B4B03F58053083332
S21400275002221A60284B03F580530C3300221A60BD
S214002760254B03F58053183300221A60224B03F5DD
S21400277080531E334FF480621A801F4B03F580533C
S21400278016334FF480621A801B4B03F580531C33BC
S21400279002221A80184B0122DA6000200621FFF779
S2140027A0EFFD0020FFF7D4FD134B5B68FB75FB7D48
S2140027B0002B05D012485921124A144B04F030FE63
S2140027C00D4BDB68BB75BB7D03F00103002B05D109
S2140027D00B485B210B4A0E4B04F022FE1837BD4611
S2140027E080BD00BF90F3000040F00F4000F00F40A7
S2140027F000C00C400010024000800040506AFF1FDE
S21400280028F300005812010058F3000074F300008B
S21400281080F3000080B582B000AF3B1D1846FFF77E
S2140028200BFE01233B713B1D0B48194606F0A4FF27
S214002830022004F093FA0246084BA3FB02135B0A3D
S214002840054800211A46FFF711FE03480021FFF74E
S21400285021FE0837BD4680BD00700340D34D621090
S21400286080B500AF064800214FF480620AF056FF9C
S214002870044800214FF480620AF050FF80BD00BF7C
S214002880506AFF1F5072FF1F80B5ADF5036D02AF93
S2140028903B1D18604FF4E003C7F818384FF4F003F8
S2140028A0C7F814380023C7F8243807F11003C7F810
S2140028B0103803200121002201F03EFC0246524B54
S2140028C01A6000F037FF0246504B1A604F4B1B68E9
S2140028D0002B02D14E480AF029FF4C4B1B681846C5
S2140028E0082101F03FF84FF47A7002F03BFAFFF748
S2140028F0A1FEFFF7B5FF444B1A6807F10F03104619
S21400290019464FF0FF32002301F0B4FE0023C7F84B
S214002910243840480421FFF75DFDFFF77BFF3B4B63
S2140029201B684FF0FF32009218460821012201234F
S21400293000F018FFD7F824381D2B05D9364800219B
S214002940FFF7C4FD00BFD6E7D7F82438DA02D7F879
S21400295018381A4407F11003304811464FF4006245
S21400296003F0A8FE2E4B1B7883F00103DBB2002B8E
S2140029701FD00023C7F8203816E0D7F820385B00B1
S214002980D7F8102813441B881BB203F5FF437F3388
S2140029901B1199B2234BD7F8202823F81210D7F82A
S2140029A020380133C7F82038D7F82038B3F5806FC1
S2140029B0E3D31B4B1B78002B1FD00023C7F81C3813
S2140029C016E0D7F81C385B00D7F8102813441B888D
S2140029D01BB203F5FF437F331B1199B2124BD7F896
S2140029E01C2823F81210D7F81C380133C7F81C38F7
S2140029F0D7F81C38B3F5806FE3D3D7F82438013303
S214002A00C7F824388BE700BF507AFF1F547AFF1FA1
S214002A1094F3000000F00F4000700340FC750120A6
S214002A208C03FF1F506AFF1F5072FF1F80B582B0D5
S214002A3000AF00233B601D4B1A683B46104608213A
S214002A401A4601F077F878607B68002B0AD03B685E
S214002A50002B07D0164B4FF080521A60BFF34F8FF3
S214002A60BFF36F8F134B0022DA77124B114AD268EE
S214002A7022F00102DA60104B1B78002B08D00E4BB8
S214002A8000221A700B4B0D4A03F580531A6007E0BC
S214002A90094B01221A70074B094A03F580531A6046
S214002AA0044B0122DA600837BD4680BD547AFF1F0A
S214002AB004ED00E0008000408C03FF1F5072FF1FF3
S214002AC0506AFF1F80B485B000AF78600023FB60BB
S214002AD00023FB6003E000BFFB680133FB607A68FD
S214002AE013469B0013445B001A46FB689A42F2D8D2
S214002AF01437BD465DF8047B704700BF80B582B0D2
S214002B0000AF55200AF088FB124BD3F860339BB217
S214002B1018460AF093FB10480AF0AAFB0AF0CCFB12
S214002B2078607A680C4B9A4202D10C4B01221A70DC
S214002B3014200AF071FB0A2002F014F917200AF09C
S214002B40D9FB01200AF016FC18200AF065FB0837AE
S214002B50BD4680BD0000FF1F877887782805FF1FC9
S214002B6080B483B000AF786039607B683A685A609A
S214002B700C37BD465DF8047B704700BF80B483B059
S214002B8000AF786039607B683A68DA600C37BD461B
S214002B905DF8047B704700BF80B582B000AF0120AF
S214002BA00021032201F0C8FA0246994B1A60984B9E
S214002BB01B68002B05D19748FEF7F2F9002002F0BB
S214002BC023F9934B1B68184600210022002301F0CE
S214002BD04FFB05201C21002201F0AEFA02468E4B68
S214002BE01A6001200021032201F0A6FA02468B4B50
S214002BF01A608A4B1B68002B05D18948FEF7D0F96E
S214002C00002002F001F920206821002201F094FA49
S214002C100246844B1A60834B1B68002B02D1824805
S214002C20FEF7BEF903203021002201F085FA0246A5
S214002C307E4B1A607D4B1B68002B02D17C48FEF74A
S214002C40AFF901200121002201F076FA0246794B05
S214002C501A6001206021002201F06EFA0246764BCF
S214002C601A6001206721002201F066FA0246734BC3
S214002C701A6001200421002201F05EFA0246704B21
S214002C801A6002201821002201F056FA02466D4B07
S214002C901A60012001F0AAFA02466B4B1A60012066
S214002CA001F0A4FA0246694B1A60012004210022B2
S214002CB001F042FA0246664B1A6000237B6034E05D
S214002CC001200821002201F037FA0146614B7A689C
S214002CD043F8221001200221002201F02DFA0146BD
S214002CE05D4B7A6843F8221001201221002201F081
S214002CF023FA0146594B7A6843F822100120022134
S214002D00002201F019FA0146554B7A6843F8221062
S214002D1001200221002201F00FFA0146514B7A6889
S214002D2043F822107B6801337B607B68032BC7DD8A
S214002D3007206821002201F0FFF902464A4B1A607C
S214002D40494B1B68002B02D14848FEF729F9202082
S214002D508021002201F0F0F90246454B1A60444BF0
S214002D601B68002B02D14348FEF71AF910200421F5
S214002D70002201F0E1F902463F4B9A603E4B9B6809
S214002D80002B02D13D48FEF70BF9012001F02EFA88
S214002D900246394B1A60384B1B68002B02D1384864
S214002DA0FEF7FEF8012001F021FA0246354B1A60C4
S214002DB0344B1B68002B02D13348FEF7F1F8012094
S214002DC001F014FA0246314B1A60304B1B68002B98
S214002DD002D12F48FEF7E4F800F0ACFC02462D4B7B
S214002DE01A602C4B1B68002B02D12B48FEF7D8F834
S214002DF000F0A0FC0246294B1A60284B1B68002BEB
S214002E0002D12748FEF7CCF80837BD4680BD00BF84
S214002E101C7BFF1FACF30000007BFF1F207BFF1F07
S214002E20D4F30000047BFF1F08F40000907AFF1F15
S214002E3024F40000987AFF1F9C7AFF1FA07AFF1FD9
S214002E40A47AFF1FA87AFF1FAC7AFF1FB07AFF1F75
S214002E50B47AFF1FB87AFF1FC07AFF1FD07AFF1F11
S214002E60E07AFF1FF07AFF1F087BFF1F44F4000084
S214002E700C7BFF1F60F400009003FF1F84F400002B
S214002E80A4F40000247BFF1FC4F40000147BFF1F83
S214002E90E8F40000107BFF1F0CF50000187BFF1FF6
S214002EA02CF5000080B584B004AF09F0F5FF09F0FA
S214002EB0ADFF09F04BFE00F0E7F8FFF76DFE1F4888
S214002EC01F494FF49672FEF76BF80AF073FB03F097
S214002ED0D1FC1C4806F0F2FA00F08AF808230093AA
S214002EE0194B0193002302930023039317481849B4
S214002EF04FF48052002301F065FE02230093002366
S214002F0001930023029300230393124812494FF4BF
S214002F104072002301F056FE06230093002301931F
S214002F2000230293002303930C480D494FF480526C
S214002F30002301F047FE01F0EFFFFEE750F500002A
S214002F40DC120100587AFF1F947AFF1F191900003F
S214002F5058F500008928000068F50000111F0000E1
S214002F6078F5000080B582B000AF78603960094817
S214002F703968FEF715F808484FF48061FFF7F0FD52
S214002F80C82009F0F5FD04484FF40031FFF7F6FDC0
S214002F90F6E700BF14F6000000F00F4080B500AF63
S214002FA000F0BCFA0E484FF47831012206F0F8FA29
S214002FB00C480D494FF44A72FDF7F2FF08484FF4EB
S214002FC07831094A4FF44A7306F04CFB04484FF434
S214002FD07A31064A902306F045FB00F0CDFA80BD14
S214002FE0587AFF1F98F600004800FF1F9804FF1F3E
S214002FF080B582B000AF4FF478337B607B681833BF
S21400300018460F4904220AF020FC0346002B00D085
S21400301012E00C4800214FF449720AF07FFB094881
S2140030204FF478314FF449720AF06FFB06484FF4BC
S2140030307A3190220AF069FB0837BD4680BD00BF92
S214003040ACF600004800FF1F9804FF1F80B483B052
S21400305000AF78607B685B6943F010027B685A615A
S2140030600C37BD465DF8047B704700BF80B400AFE8
S214003070044B044A126942F480721A61BD465DF838
S214003080047B704700D0034080B584B000AF3B1D82
S214003090184606F045FC3B1D0548194606F0E4FBBD
S2140030A0FFF7E4FF0248FFF7D1FF1037BD4680BDAB
S2140030B000D0034090B583B000AFEFF309831C4601
S2140030C023467B607B681B681A481946FDF768FF35
S2140030D07B6804331B6818481946FDF761FF7B6858
S2140030E008331B6815481946FDF75AFF7B680C33F2
S2140030F01B6813481946FDF753FF7B6810331B689F
S21400310010481946FDF74CFF7B6814331B680E48C1
S2140031101946FDF745FF7B6818331B680B481946B0
S214003120FDF73EFF7B681C331B6809481946FDF710
S21400313037FFFEE7C4FC0000D4FC0000E4FC0000FF
S214003140F4FC000004FD000014FD000024FD000057
S21400315034FD000080B588B000AF786013460A469C
S2140031607A803B806C4B1B68184600214FF0FF327C
S214003170002301F07FFA0023FB617B8808337B8302
S21400318000233B830023FB827B8B184600F0E6FC83
S21400319038617B8B5B00184600F0E0FCF8603B690A
S2140031A0002B02D0FB68002B10D13B69002B02D00D
S2140031B0386900F095FDFB68002B02D0F86800F037
S2140031C08FFD5648FDF7ECFE0123A0E07B8B5B00ED
S2140031D0F86800211A460AF0A1FA7B8B38690021AC
S2140031E01A460AF09BFA7B8BDAB23B691A703B6987
S2140031F001337A8B120A92B2D2B21A703B6902334A
S2140032003A88D2B21A703B6903333A88120A92B2ED
S214003210D2B21A707B68002B07D03B691A1D7B88D8
S214003220104679681A460AF070FA7B8B043B3869B8
S214003230194607F0F1FEF8617B8B043B3A691344AC
S214003240FA69D2B21A707B8B033B3A691344FA6967
S214003250120AD2B21A707B8B023B3A691344FA699F
S214003260120CD2B21A707B8B013B3A691344FA698E
S214003270120ED2B21A70FB687E221A70FB680133F7
S2140032807E221A70FB6802337E221A70FB680333B4
S2140032907E221A707A8BFB680433386911461A4608
S2140032A009F0AAFB03463B833B8B0833FB82FB8A71
S2140032B0043BFA6813447D221A70FB8A033BFA68C3
S2140032C013447D221A70FB8A023BFA6813447D225F
S2140032D01A70FB8A013BFA6813447D221A7032206A
S2140032E001F040FDFB8A0E48F9681A4607F0E2FC3A
S2140032F0386900F0F5FCF86800F0F2FC064B1B6835
S214003300184600210022002300F0B2FF00231846D2
S2140033102037BD4680BD00BFAC7AFF1F80FD000091
S214003320287BFF1F80B485B000AFF860B9607A6074
S214003330FB68043BFB60FB684FF080721A60FB681A
S214003340043BFB60BA68FB681A60FB68043BFB60E2
S2140033500C4AFB681A60FB68143BFB607A68FB68E3
S2140033601A60FB68043BFB60FB686FF002021A60A1
S214003370FB68203BFB60FB6818461437BD465DF8CB
S214003380047B70478933000080B483B000AF0C4BD9
S2140033901B68B3F1FF3F09D04FF0500383F3118849
S2140033A0BFF36F8FBFF34F8F7B60FEE74FF0500386
S2140033B083F31188BFF36F8FBFF34F8F3B60FEE739
S2140033C03405FF1F064B19680868B0E8F04F80F315
S2140033D00988BFF36F8F4FF0000080F311887047A5
S2140033E04074012006480068006880F3088862B6CA
S2140033F061B6BFF34F8FBFF36F8F00DF00BF0000D3
S21400340008ED00E080B586B000AF3B4B1A683B4B3A
S2140034109A4209D14FF0500383F31188BFF36F8FA0
S214003420BFF34F8F3B61FEE7334B1A68344B9A422B
S21400343009D14FF0500383F31188BFF36F8FBFF3AA
S2140034404F8FFB60FEE72F4B7B617B691B78DBB2FF
S214003450BB607B69FF221A707B691B78DBB2FB714D
S214003460FB79DBB203F05003DAB2274B1A70274B16
S21400347007221A6009E0254B1B685A1E234B1A6068
S214003480FB79DBB25B00DBB2FB71FB79DBB2DBB254
S2140034905BB2002BEFDB1D4B1B681A021B4B1A603E
S2140034A01A4B1B6803F4E062184B1A60BB68DAB26A
S2140034B07B691A70164B164A126842F470021A603C
S2140034C0134B134A126842F070421A6000F0CCF8B0
S2140034D0104B00221A6000F0E7F80F4B0E4A1268F5
S2140034E042F040421A60FFF77DFFFFF74DFF0023D2
S2140034F018461837BD4680BD00ED00E071C20F418A
S21400350070C20F4100E400E08093FF1F8493FF1F0A
S21400351020ED00E03405FF1F34EF00E080B483B0F8
S21400352000AF4FF0500383F31188BFF36F8FBFF3E4
S2140035304F8F7B600E4B1B685A1C0D4B1A600C4B52
S2140035401B68012B0ED10B4B1B68DBB2002B09D07E
S2140035504FF0500383F31188BFF36F8FBFF34F8F85
S2140035603B60FEE70C37BD465DF8047B704700BF46
S2140035703405FF1F04ED00E080B483B000AF104BAD
S2140035801B68002B09D14FF0500383F31188BFF35B
S2140035906F8FBFF34F8F7B60FEE7094B1B685A1E89
S2140035A0074B1A60064B1B68002B04D100233B60B8
S2140035B03B6883F311880C37BD465DF8047B704783
S2140035C03405FF1FEFF30980BFF36F8F144B1A68A3
S2140035D01EF0100F08BF20ED108A20E9F04F106093
S2140035E04DF8043D4FF0500080F31188BFF34F8F25
S2140035F0BFF36F8F01F040FE4FF0000080F311889C
S21400360008BC19680868B0E8F04F1EF0100F08BF35
S214003610B0EC108A80F30988BFF36F8F704700BF45
S2140036204074012080B584B000AFEFF311824FF0F4
S214003630500383F31188BFF36F8FBFF34F8FFA6089
S214003640BB6001F06BFD0346002B03D0054B4FF02B
S21400365080521A6000237B607B6883F311881037E2
S214003660BD4680BD04ED00E080B400AF094B0A4AB9
S21400367011680A4AA2FB01029209013A1A60084B35
S21400368000221A60074B07221A60BD465DF8047BCD
S214003690704700BF14E000E07003FF1FD34D6210B8
S2140036A018E000E010E000E0DFF80C00016841F4EC
S2140036B0700101607047000088ED00E080B485B0BE
S2140036C000AFEFF30583FB60FB680F2B13D9154A99
S2140036D0FB6813441B78FB72134B1B78FA7A9A42EA
S2140036E009D24FF0500383F31188BFF36F8FBFF3F7
S2140036F04F8F7B60FEE70D4B1B6803F4E0620C4BBC
S2140037001B689A4209D94FF0500383F31188BFF320
S2140037106F8FBFF34F8F3B60FEE71437BD465DF8F3
S214003720047B7047F0E300E08093FF1F0CED00E0A1
S2140037308493FF1F80B582B000AF1C2000F00EFA05
S21400374078607B68002B07D07B6800221A607B6855
S2140037500433184600F0D6FB7B6818460837BD468B
S21400376080BD00BF80B590B000AFF860B9607A60E9
S2140037703B60FB687B630023BB6300233B63FB6803
S214003780002B09D14FF0500383F31188BFF36F8FDE
S214003790BFF34F8F3B62FEE7BB6803F07F43002B0F
S2140037A009D04FF0500383F31188BFF36F8FBFF338
S2140037B04F8FFB61FEE7BB68002B09D14FF050032B
S2140037C083F31188BFF36F8FBFF34F8FBB61FEE7A4
S2140037D002F0C8F90346002B02D1BB6C002B01D1C6
S2140037E0012300E00023002B09D14FF0500383F3A0
S2140037F01188BFF36F8FBFF34F8F7B61FEE701F039
S214003800DBFB7B6B1B68FB62F86AB9683A6800F002
S2140038106FF9B862BB6A002B0ED0FB6AFB6300230D
S214003820BB647B68002B27D07B6B1A68BB68DB43C6
S2140038301A407B6B1A601FE0BB6C002B02D1FB6A40
S214003840FB6319E07B68002B03D0BB6B43F08073EF
S214003850BB633B68002B03D0BB6B43F08063BB634A
S2140038607B6B1A1DB968BB6B0B4310461946BA6CC6
S21400387001F0ECFD0023FB6301F0ACFB7862BB6C4F
S214003880002B31D07B6A002B07D11A4B4FF08052A9
S2140038901A60BFF34F8FBFF36F8F02F07BFAF863A7
S2140038A0FB6B03F00073002B1AD1FFF737FE7B6B20
S2140038B01B68FB63F86BB9683A6800F019F90346B1
S2140038C0002B09D07B68002B06D07B6B1A68BB6880
S2140038D0DB431A407B6B1A60FFF74EFE00233B6308
S2140038E0FB6B23F07F43FB63FB6B18464037BD46FC
S2140038F080BD00BF04ED00E080B586B000AF786004
S21400390039607B687B617B68002B09D14FF05003E0
S21400391083F31188BFF36F8FBFF34F8FFB60FEE713
S2140039203B6803F07F43002B09D04FF0500383F32E
S2140039301188BFF36F8FBFF34F8FBB60FEE7FFF7B3
S214003940EDFD7B691B683B617B691A683B68DB435E
S2140039501A407B691A60FFF70FFE3B691846183756
S214003960BD4680BD80B58EB000AF7860396000235C
S2140039703B637B68BB620023FB627B68002B09D13C
S2140039804FF0500383F31188BFF36F8FBFF34F8F51
S2140039903B61FEE73B6803F07F43002B09D04FF006
S2140039A0500383F31188BFF36F8FBFF34F8FFB6015
S2140039B0FEE7BB6A04337B627B6A08333B6201F036
S2140039C0FBFA7B6ADB687B63BB6A1A683B681A4350
S2140039D0BB6A1A603CE07B6B5B68FB617B6B1B68B9
S2140039E0BB610023FB62BB6903F07F437B61BB695D
S2140039F023F07F43BB617B6903F08063002B08D113
S214003A00BB6A1A68BB691340002B0BD00123FB620C
S214003A1008E0BB6A1A68BB691A40BB699A4201D1C2
S214003A200123FB62FB6A002B10D07B6903F08073D6
S214003A30002B03D03A6BBB6913433B63BB6A1B681E
S214003A4043F00073786B194601F014FEFB697B6344
S214003A507A6B3B6A9A42BED1BB6A1A683B6BDB4301
S214003A601A40BB6A1A6001F0B5FABB6A1B681846B2
S214003A703837BD4680BD00BF80B586B000AF7860E1
S214003A807B687B617B6904333B6101F095FA16E045
S214003A903B69DA683B6908339A4209D14FF0500314
S214003AA083F31188BFF36F8FBFF34F8FFB60FEE782
S214003AB03B69DB6818464FF0007101F0DBFD3B699F
S214003AC01B68002BE4D1786900F00AF901F082FA4D
S214003AD01837BD4680BD00BF80B582B000AF7860A5
S214003AE0396078683968FFF73DFF0837BD4680BD06
S214003AF080B487B000AFF860B9607A6000237B615D
S214003B007B68002B07D1FA68BB681340002B0AD0ED
S214003B1001237B6107E0FA68BB681A40BB689A42DB
S214003B2001D101237B617B6918461C37BD465DF8D1
S214003B30047B704780B586B000AFF860B9607A60E5
S214003B400548F968BA687B6802F054FC78617B69BE
S214003B5018461837BD4680BDD93A000080B58AB0F1
S214003B6000AF78600023FB6101F026FA574B1B6814
S214003B70002B01D100F00CF9554B1A687B681340F6
S214003B80002B40F08C807B68002B1CD008237A68C2
S214003B9013447B607B6803F00703002B13D07B681D
S214003BA023F0070308337B607B6803F00703002BD2
S214003BB009D04FF0500383F31188BFF36F8FBFF324
S214003BC04F8F7B61FEE77B68002B68D0414B1B68FC
S214003BD07A689A4263D8404B3B623F4B1B687B62D5
S214003BE004E07B6A3B627B6A1B687B627B6A5A687E
S214003BF07B689A4203D27B6A1B68002BF1D1334B59
S214003C001B687A6A9A424AD03B6A1A6808231344A9
S214003C10FB617B6A1A683B6A1A607B6A5A687B6833
S214003C20D21A08235B009A421ED97A6A7B6813442C
S214003C30BB61BB6903F00703002B09D04FF05003AC
S214003C4083F31188BFF36F8FBFF34F8F3B61FEE79F
S214003C507B6A5A687B68D21ABB695A607B6A7A6844
S214003C605A60B86900F0F6F81A4B1A687B6A5B6807
S214003C70D21A184B1A60174B1A68184B1B689A42D0
S214003C8003D2144B1A68154B1A607B6A5A68104B9D
S214003C901B681A437B6A5A607B6A00221A6001F02E
S214003CA099F9FB6903F00703002B09D04FF0500386
S214003CB083F31188BFF36F8FBFF34F8FFB60FEE770
S214003CC0FB6918462837BD4680BD00BF90730120AB
S214003CD09C7301209473012088730120987301203F
S214003CE080B586B000AF78607B687B617B68002B10
S214003CF046D008235B427A6913447B617B693B614B
S214003D003B695A68204B1B681340002B09D14FF0C3
S214003D10500383F31188BFF36F8FBFF34F8FFB60A1
S214003D20FEE73B691B68002B09D04FF0500383F376
S214003D301188BFF36F8FBFF34F8FBB60FEE73B6901
S214003D405A68114B1B681340002B19D03B691B683F
S214003D50002B15D13B695A680B4B1B68DB431A4096
S214003D603B695A6001F028F93B695A68074B1B68A3
S214003D701A44064B1A60386900F06CF801F02AF90C
S214003D801837BD4680BD00BF9C7301209473012088
S214003D9080B485B000AF4FF4F033BB60274BFB60B8
S214003DA0FB6803F00703002B0CD0FB680733FB60AF
S214003DB0FB6823F00703FB60BA68FB68D21A1F4B48
S214003DC01344BB60FB687B601D4B7A681A601C4B13
S214003DD000225A607A68BB681344FB600823FA68BE
S214003DE0D31AFB60FB6823F00703FB60FA68154BE9
S214003DF01A60144B1B6800225A60124B1B68002284
S214003E001A607B683B603B68FA68D21A3B685A6067
S214003E100C4B1A683B681A603B685A680A4B1A6073
S214003E203B685A68094B1A60094B4FF000421A600B
S214003E301437BD465DF8047B704700BF8893FF1FAC
S214003E4088730120907301209873012094730120D9
S214003E509C73012080B485B000AF7860274BFB6070
S214003E6002E0FB681B68FB60FB681A687B689A4286
S214003E70F7D3FB68BB60FB685B68BA681A447B686C
S214003E809A4208D1FB685A687B685B681A44FB68EC
S214003E905A60FB687B607B68BB607B685B68BA685F
S214003EA01A44FB681B689A4218D1FB681A68144BC0
S214003EB01B689A420DD07B685A68FB681B685B6873
S214003EC01A447B685A60FB681B681A687B681A602D
S214003ED008E00B4B1A687B681A6003E0FB681A68F8
S214003EE07B681A60FA687B689A4202D0FB687A6838
S214003EF01A601437BD465DF8047B7047887301204E
S214003F009073012080B483B000AF78607B6803F1C3
S214003F1008027B685A607B684FF0FF329A607B68C5
S214003F2003F108027B68DA607B6803F108027B68AD
S214003F301A617B6800221A600C37BD465DF8047B68
S214003F40704700BF80B483B000AF78607B68002203
S214003F501A610C37BD465DF8047B704780B485B0A7
S214003F6000AF786039607B685B68FB603B68FA6826
S214003F705A60FB689A683B689A60FB689B683A6878
S214003F805A60FB683A689A603B687A681A617B6890
S214003F901B685A1C7B681A601437BD465DF8047BA4
S214003FA0704700BF80B485B000AF786039603B686A
S214003FB01B68BB60BB68B3F1FF3F03D17B681B691E
S214003FC0FB600CE07B680833FB6002E0FB685B6824
S214003FD0FB60FB685B681A68BB689A42F6D9FB68A8
S214003FE05A683B685A603B685B683A689A603B6808
S214003FF0FA689A60FB683A685A603B687A681A61A1
S2140040007B681B685A1C7B681A601437BD465DF8CF
S214004010047B704780B485B000AF78607B681B690E
S214004020FB607B685B687A6892689A607B689B68CE
S2140040307A6852685A60FB685A687B689A4203D16D
S2140040407B689A68FB685A607B6800221A61FB6886
S2140040501B685A1EFB681A60FB681B6818461437F4
S214004060BD465DF8047B704780B584B000AF7860CD
S21400407039607B68FB60FB68002B09D14FF050036A
S21400408083F31188BFF36F8FBFF34F8FBB60FEE7DC
S214004090FFF744FAFB681A68FB68DB6BF968096C83
S2140040A001FB03F31A44FB685A60FB6800229A631C
S2140040B0FB681A68FB689A60FB681A68FB68DB6B2B
S2140040C0013BF968096C01FB03F31A44FB68DA60EC
S2140040D0FB684FF0FF325A64FB684FF0FF329A6479
S2140040E03B68002B14D1FB681B69002B1AD0FB68B9
S2140040F01033184601F05CFA0346012B12D10D4B23
S2140041004FF080521A60BFF34F8FBFF36F8F09E0F6
S214004110FB6810331846FFF7F5FEFB682433184695
S214004120FFF7F0FEFFF728FA012318461037BD46C2
S21400413080BD00BF04ED00E080B58AB000AFF86037
S214004140B9601346FB7100233B62FB68002B09D164
S2140041504FF0500383F31188BFF36F8FBFF34F8F79
S214004160BB61FEE7BB68002B02D100237B6205E043
S214004170FB68BA6802FB03F301337B627B6A543345
S2140041801846FFF7EBFCF861FB69002B1BD0BB68F9
S214004190002B03D1FB69FA691A6004E0FB6903F19E
S2140041A05402FB691A60FB69FA68DA63FB69BA684D
S2140041B01A64F8690121FFF757FFFB69FA7983F85B
S2140041C05020FB693B623B6A002B09D14FF050033D
S2140041D083F31188BFF36F8FBFF34F8F7B61FEE7CA
S2140041E03B6A18462837BD4680BD00BF80B584B000
S2140041F000AF0346FB715420FFF7B0FCF860FB6885
S214004200002B30D0FB6800225A60FB6800221A6040
S214004210FB6800229A60FB680022DA60FB680022D6
S2140042209A63FB680122DA63FB6800221A64FB6863
S2140042304FF0FF325A64FB684FF0FF329A64FB6817
S214004240FA7983F85020FB6810331846FFF75AFEB9
S214004250FB6824331846FFF755FEF8680021002255
S214004260002300F005F8FB6818461037BD4680BDF1
S21400427080B58EB000AFF860B9607A603B6000230E
S2140042807B63FB683B633B6B002B09D14FF050030D
S21400429083F31188BFF36F8FBFF34F8FBB62FEE7C8
S2140042A0BB68002B03D13B6B1B6C002B01D1012399
S2140042B000E00023002B09D14FF0500383F3118850
S2140042C0BFF36F8FBFF34F8F7B62FEE73B68022B17
S2140042D003D13B6BDB6B012B01D1012300E00023F4
S2140042E0002B09D14FF0500383F31188BFF36F8F73
S2140042F0BFF34F8F3B62FEE701F034FC0346002B12
S21400430002D17B68002B01D1012300E00023002BA3
S21400431009D14FF0500383F31188BFF36F8FBFF3BB
S2140043204F8FFB61FEE7FFF7F9F83B6B9A6B3B6B31
S214004330DB6B9A4202D33B68022B29D1386BB968F3
S2140043403A6800F0B9FAF8623B6B5B6A002B10D053
S2140043503B6B2433184601F02BF90346012B13D18F
S2140043603D4B4FF080521A60BFF34F8FBFF36F8FF5
S2140043700AE0FB6A002B07D0374B4FF080521A60DA
S214004380BFF34F8FBFF36F8FFFF7F6F801235FE0A1
S2140043907B68002B03D1FFF7EFF8002358E07B6B18
S2140043A0002B06D107F11403184601F0C9F90123C2
S2140043B07B63FFF7E1F800F0FFFDFFF7AFF83B6B1C
S2140043C05B6CB3F1FF3F02D13B6B00225A643B6B40
S2140043D09B6CB3F1FF3F02D13B6B00229A64FFF760
S2140043E0CBF807F114023B1D1046194601F0CAF936
S2140043F00346002B24D1386B00F054FB0346002BF9
S21400440018D03B6B03F110027B681046194600F08B
S214004410CFFF386B00F0E4FA00F0DCFD0346002B1B
S21400442015D10D4B4FF080521A60BFF34F8FBFF37C
S2140044306F8F0CE0386B00F0D3FA00F0CBFD72E71C
S214004440386B00F0CDFA00F0C5FD002300E06AE707
S21400445018463837BD4680BD04ED00E080B58EB006
S21400446000AFF860B9607A603B60FB683B633B6B0B
S214004470002B09D14FF0500383F31188BFF36F8FE1
S214004480BFF34F8FBB62FEE7BB68002B03D13B6BCD
S2140044901B6C002B01D1012300E00023002B09D167
S2140044A04FF0500383F31188BFF36F8FBFF34F8F26
S2140044B07B62FEE73B68022B03D13B6BDB6B012B79
S2140044C001D1012300E00023002B09D14FF0500357
S2140044D083F31188BFF36F8FBFF34F8F3B62FEE706
S2140044E0FFF7ECF8EFF311824FF0500383F31188D7
S2140044F0BFF36F8FBFF34F8FFA61BB61FB69FB623F
S2140045003B6B9A6B3B6BDB6B9A4202D33B68022B8E
S21400451024D1386BB9683A6800F0CEF93B6B9B6CD7
S214004520B3F1FF3F12D13B6B5B6A002B13D03B6BA2
S2140045302433184601F03CF80346002B0BD07B686A
S214004540002B08D07B6801221A6004E03B6B9B6C52
S2140045505A1C3B6B9A6401237B6301E000237B6358
S214004560FB6A7B617B6983F311887B6B184638375F
S214004570BD4680BD80B58CB000AF786039607B6882
S214004580BB62BB6A002B09D14FF0500383F311883E
S214004590BFF36F8FBFF34F8F3B62FEE7BB6A1B6CA8
S2140045A0002B09D04FF0500383F31188BFF36F8FB1
S2140045B0BFF34F8FFB61FEE7BB6A1B68002B03D17E
S2140045C0BB6A5B68002B01D1012300E00023002BAF
S2140045D009D14FF0500383F31188BFF36F8FBFF3F9
S2140045E04F8FBB61FEE7FFF769F8EFF311824FF0DC
S2140045F0500383F31188BFF36F8FBFF34F8F7A6139
S2140046003B617B697B62BB6A9A6BBB6ADB6B9A42D7
S21400461024D2BB6A9B6B5A1CBB6A9A63BB6A9B6CB0
S214004620B3F1FF3F12D1BB6A5B6A002B13D0BB6AA3
S2140046302433184600F0BCFF0346002B0BD03B6823
S214004640002B08D03B6801221A6004E0BB6A9B6C12
S2140046505A1CBB6A9A640123FB6201E00023FB62DA
S2140046607B6AFB60FB6883F31188FB6A1846303769
S214004670BD4680BD80B58CB000AFF860B9607A608A
S2140046803B600023FB62FB68BB62BB6A002B09D160
S2140046904FF0500383F31188BFF36F8FBFF34F8F34
S2140046A03B62FEE7BB68002B03D1BB6A1B6C002B8A
S2140046B001D1012300E00023002B09D14FF0500365
S2140046C083F31188BFF36F8FBFF34F8FFB61FEE755
S2140046D001F048FA0346002B02D17B68002B01D17B
S2140046E0012300E00023002B09D14FF0500383F391
S2140046F01188BFF36F8FBFF34F8FBB61FEE7FEF7E6
S2140047000DFFBB6A9B6B002B47D0BB6ADB687B62E6
S214004710B86AB96800F03EF93B68002B22D1BB6A44
S2140047209B6B5A1EBB6A9A63BB6A1B68002B04D13C
S21400473001F048FB0246BB6A5A60BB6A1B69002B45
S21400474027D0BB6A1033184600F032FF0346012B11
S2140047501FD14A4B4FF080521A60BFF34F8FBFF302
S2140047606F8F16E0BB6A7A6ADA60BB6A5B6A002BF8
S2140047700FD0BB6A2433184600F01AFF0346002BFE
S21400478007D03E4B4FF080521A60BFF34F8FBFF3F7
S2140047906F8FFEF7F1FE01236CE07B68002B03D1E0
S2140047A0FEF7EAFE002365E0FB6A002B06D107F160
S2140047B01003184600F0C4FF0123FB62FEF7DCFE80
S2140047C000F0FAFBFEF7AAFEBB6A5B6CB3F1FF3F94
S2140047D002D1BB6A00225A64BB6A9B6CB3F1FF3FEE
S2140047E002D1BB6A00229A64FEF7C6FE07F11002E9
S2140047F03B1D1046194600F0C5FF0346002B31D17D
S214004800B86A00F039F90346002B25D0BB6A1B684E
S214004810002B08D1FEF782FEBB6A5B68184601F0E3
S214004820BFF9FEF7A9FEBB6A03F124027B681046B7
S214004830194600F0BDFDB86A00F0D2F800F0CAFBD9
S2140048400346002B15D10D4B4FF080521A60BFF374
S2140048504F8FBFF36F8F0CE0B86A00F0C1F800F01E
S214004860B9FB4CE7B86A00F0BBF800F0B3FB0023D6
S21400487000E044E718463037BD4680BD04ED00E052
S21400488080B584B000AF78607B68FB60FB68002B67
S21400489009D14FF0500383F31188BFF36F8FBFF336
S2140048A04F8FBB60FEE7F86800F03CF9F868FFF74A
S2140048B017FA1037BD4680BD80B586B000AFF860E9
S2140048C0B9607A6000237B61FB681B6C002B0DD1FE
S2140048D0FB681B68002B52D1FB685B68184601F02A
S2140048E0D5F97861FB6800225A6048E07B68002BA7
S2140048F01AD1FB689A68FB681B6C1046B9681A46A2
S21400490008F003FFFB689A68FB681B6C1A44FB6898
S2140049109A60FB689A68FB685B689A422FD3FB68CC
S2140049201A68FB689A602AE0FB68DA68FB681B6C0A
S2140049301046B9681A4608F0E8FEFB68DA68FB68B5
S2140049401B6C5B421A44FB68DA60FB68DA68FB683B
S2140049501B689A4207D2FB685A68FB681B6C5B426E
S2140049601A44FB68DA607B68022B08D1FB689B6BF5
S214004970002B04D0FB689B6B5A1EFB689A63FB688F
S2140049809B6B5A1CFB689A637B6918461837BD46B2
S21400499080BD00BF80B582B000AF786039607B68AC
S2140049A01B6C002B19D07B68DA687B681B6C1A447A
S2140049B07B68DA607B68DA687B685B689A4203D358
S2140049C07B681A687B68DA607B68DA687B681B6CD1
S2140049D0386811461A4608F098FE0837BD4680BD6E
S2140049E080B582B000AF7860FEF798FD14E07B6873
S2140049F05B6A002B0AD07B682433184600F0D8FD8B
S214004A000346002B03D000F01BFF00E008E07B68A5
S214004A109B6C5A1E7B689A647B689B6C002BE6DC5A
S214004A207B684FF0FF329A64FEF7A6FDFEF776FD30
S214004A3014E07B681B69002B0FD07B681033184688
S214004A4000F0B6FD0346002B01D000F0F9FE7B68AF
S214004A505B6C5A1E7B685A6400E003E07B685B6C04
S214004A60002BE6DC7B684FF0FF325A64FEF784FDCD
S214004A700837BD4680BD00BF80B584B000AF786003
S214004A80FEF74CFD7B689B6B002B02D10123FB607D
S214004A9001E00023FB60FEF76FFDFB681846103749
S214004AA0BD4680BD80B584B000AF7860FEF736FDA9
S214004AB07B689A6B7B68DB6B9A4202D10123FB60B2
S214004AC001E00023FB60FEF757FDFB681846103731
S214004AD0BD4680BD80B485B000AF786039600023E5
S214004AE0FB6014E00E4BFA6853F83230002B0BD103
S214004AF00B4BFA68396843F83210094AFB68DB004A
S214004B0013447A685A6005E0FB680133FB60FB6873
S214004B10132BE7D91437BD465DF8047B704700BFFA
S214004B20A073012080B485B000AF78600023FB60DE
S214004B3010E00C4AFB68DB0013445A687B689A4214
S214004B4005D1084BFA68002143F8321005E0FB68EF
S214004B500133FB60FB68132BEBD91437BD465DF8B9
S214004B60047B7047A073012080B586B000AFF86064
S214004B70B9607A60FB687B61FEF7D0FC7B695B6C92
S214004B80B3F1FF3F02D17B6900225A647B699B6CBC
S214004B90B3F1FF3F02D17B6900229A64FEF7ECFC7A
S214004BA07B699B6B002B06D17B6924331846B9685A
S214004BB07A6800F0AFFC7869FFF712FF1837BD4639
S214004BC080BD00BF80B58CB002AFF860B9603B60B6
S214004BD01346FB80FB68002B09D14FF0500383F38C
S214004BE01188BFF36F8FBFF34F8FBB61FEE73B6B40
S214004BF00A2B09D94FF0500383F31188BFF36F8F48
S214004C00BFF34F8F7B61FEE7FB881846B96B00F059
S214004C103DFF38623B6A002B78D03B6A1A6BFB88F4
S214004C2003F18043013B9B001344FB61FB6923F0C7
S214004C300703FB61FB6903F00703002B09D04FF065
S214004C40500383F31188BFF36F8FBFF34F8F3B6121
S214004C50FEE7FB880093386AB9683A6BFB6B00F096
S214004C6013FEF869F9683A68FEF75CFB02463B6A91
S214004C701A607B6B002B02D07B6B3A6A1A60FEF7D9
S214004C804DFC314B1B685A1C2F4B1A602F4B1B6870
S214004C90002B09D12D4B3A6A1A602B4B1B68012B4F
S214004CA00FD100F045FE0CE0294B1B68002B08D105
S214004CB0264B1B68DA6A3B6B9A4202D8234B3A6A49
S214004CC01A60244B1B685A1C224B1A60214B1A6828
S214004CD03B6A1A643B6ADB6A01229A401E4B1B68D9
S214004CE01A431D4B1A603B6ADA6A13469B0013444C
S214004CF09B001A4A1A443B6A043310461946FFF7CB
S214004D002DF901237B62FEF737FC02E04FF0FF33FC
S214004D107B627B6A012B11D10D4B1B68002B0DD0DB
S214004D200A4B1B68DA6A3B6B9A4207D20C4B4FF071
S214004D3080521A60BFF34F8FBFF36F8F7B6A18469F
S214004D402837BD4680BD00BF947501204074012001
S214004D50A0750120B07501209C75012044740120C7
S214004D6004ED00E080B586B000AF786000237B617C
S214004D707B68002B2FD01F4B1B68002B09D04FF0F1
S214004D80500383F31188BFF36F8FBFF34F8FFB6021
S214004D90FEE700F011F9184B1A687B6813443B6174
S214004DA0164B1B6804331846FFF734F90346002BEE
S214004DB00BD1124B1B68DB6A012202FA03F3DA43BB
S214004DC00F4B1B681A400E4B1A60386900F028FE1D
S214004DD000F000F978617B69002B07D1094B4FF092
S214004DE080521A60BFF34F8FBFF36F8F1837BD46E0
S214004DF080BD00BFB8750120987501204074012061
S214004E009C75012004ED00E080B584B000AF7860AA
S214004E10FEF784FB7B68002B02D1374B1B6800E053
S214004E207B68FB60FB6804331846FFF7F3F803461D
S214004E30002B15D1FB68DA6A304913469B001344F1
S214004E409B000B441B68002B0AD1FB68DB6A01221F
S214004E5002FA03F3DA432A4B1B681A40284B1A60FF
S214004E60FB689B6A002B04D0FB6818331846FFF7D4
S214004E70D1F8FB68043323481946FFF76FF8FEF7AE
S214004E807BFB1D4B1B68FA689A4227D11E4B1B689A
S214004E90002B16D01D4B1B68002B09D04FF050037B
S214004EA083F31188BFF36F8FBFF34F8FBB60FEE7AE
S214004EB0174B4FF080521A60BFF34F8FBFF36F8FC0
S214004EC016E0104B1A68134B1B689A4203D10A4B24
S214004ED000221A600CE000F0CFF909E00A4B1B68CC
S214004EE0002B05D0FEF71AFB00F018FEFEF744FB79
S214004EF01037BD4680BD00BF4074012044740120B9
S214004F009C7501207C750120A0750120B8750120D4
S214004F1004ED00E09475012080B588B004AF00234E
S214004F2000931F4B019300230293002303931D4815
S214004F301D4980220023FFF745FEF860FB68012B21
S214004F4002D100F053FFF860FB68012B17D14FF039
S214004F50500383F31188BFF36F8FBFF34F8FBB608F
S214004F60124B4FF0FF321A60114B01221A60114BA0
S214004F7000221A6000F0C2F8FEF744FA0CE0FB6864
S214004F80002B09D14FF0500383F31188BFF36F8FC6
S214004F90BFF34F8F7B60FEE71037BD4680BD00BF76
S214004FA090750120595800001C050100B4750120B9
S214004FB0A07501209875012080B400AF044B1B68D3
S214004FC05A1C034B1A60BD465DF8047B704700BF51
S214004FD0B875012080B584B000AF0023FB603E4B5F
S214004FE01B68002B09D14FF0500383F31188BFF3E1
S214004FF06F8FBFF34F8F7B60FEE7FEF78FFA364B5F
S2140050001B685A1E344B1A60334B1B68002B5BD14F
S214005010324B1B68002B57D02EE0314BDB68DB6829
S214005020BB60BB6818331846FEF7F4FFBB68043352
S2140050301846FEF7EFFFBB68DB6A01229A40294B51
S2140050401B681A43274B1A60BB68DA6A13469B0034
S21400505013449B00244A1A44BB680433104619467E
S214005060FEF77CFFBB68DA6A204B1B68DB6A9A4255
S21400507002D31F4B01221A60194B1B68002BCCD1A0
S2140050801C4B1B68002B11D00CE000F047F80346C1
S214005090002B02D0164B01221A60164B1B685A1EB4
S2140050A0144B1A60134B1B68002BEED1104B1B6879
S2140050B0012B09D10123FB600F4B4FF080521A6081
S2140050C0BFF34F8FBFF36F8FFEF756FAFB68184695
S2140050D01037BD4680BD00BFB8750120947501200D
S2140050E0507501209C7501204474012040740120F5
S2140050F0A8750120A475012004ED00E080B483B0FB
S21400510000AF054B1B687B607B6818460C37BD46B6
S2140051105DF8047B704700BF9875012080B586B0A7
S21400512000AF00237B61494B1B68002B7ED1484BA8
S2140051301B685A1C464B1A60454B1B683B613B6913
S214005140002B1FD1434B1B681B68002B09D04FF068
S214005150500383F31188BFF36F8FBFF34F8F3B600D
S214005160FEE73C4B1B68FB603B4B1A68394B1A60EA
S214005170394BFA681A60394B1B685A1C374B1A6051
S21400518000F0CCFC364B1B683A699A424DD3314B43
S2140051901B681B68002B01D1012300E00023002BB5
S2140051A004D02F4B4FF0FF321A603EE0294B1B68AD
S2140051B0DB68DB68BB60BB685B687B603A697B6802
S2140051C09A4203D2264B7A681A602EE0BB680433F4
S2140051D01846FEF71FFFBB689B6A002B04D0BB680F
S2140051E018331846FEF716FFBB68DB6A01229A40A2
S2140051F01C4B1B681A431B4B1A60BB68DA6A1346C3
S2140052009B0013449B00184A1A44BB68043310469C
S2140052101946FEF7A3FEBB68DA6A144B1B68DB6A06
S2140052209A4201D301237B61B1E704E0104B1B686F
S2140052305A1C0F4B1A600F4B1B68002B01D0012322
S2140052407B617B6918461837BD4680BDB87501205E
S21400525098750120487501204C750120AC75012019
S214005260B47501209C75012044740120407401200F
S214005270A4750120A875012080B588B000AF454B05
S2140052801B68002B03D0444B01221A607EE0424B81
S21400529000221A60FFF732FF0246404B1A603F4B6F
S2140052A01A683F4B1B689A4209D93E4B1B68196D1A
S2140052B03A4A10683A4A1268821A0A441A65374B04
S2140052C01A68374B1A60374B1B681B6BFB614FF035
S2140052D0A533BB61FB691A68BB699A4211D1FB69A9
S2140052E004331A68BB699A420BD1FB6908331A6803
S2140052F0BB699A4205D1FB690C331A68BB699A42AE
S21400530008D0284B1A68274B1B68343310461946BA
S214005310FDF728FE244B1B68FB60FB68B3FA83F39B
S214005320FB72FB7AC3F11F037B6120497A6913463F
S2140053309B0013449B000B441B68002B09D14FF0C5
S214005340500383F31188BFF36F8FBFF34F8F7B60DB
S214005350FEE77A6913469B0013449B00134A1344E6
S2140053603B613B695B685A683B695A603B695A68AF
S2140053703B6908339A4204D13B695B685A683B69CB
S2140053805A603B695B68DA68064B1A602037BD4690
S21400539080BD00BFB8750120A8750120C07501202A
S2140053A0BC750120407401209C75012044740120C6
S2140053B080B584B000AF786039607B68002B09D177
S2140053C04FF0500383F31188BFF36F8FBFF34F8FF7
S2140053D0BB60FEE7194B1B68183378681946FEF762
S2140053E0E1FD164B1B6804331846FEF713FE034612
S2140053F0002B0BD1114B1B68DB6A012202FA03F368
S214005400DA430F4B1B681A400D4B1A603B68B3F12A
S214005410FF3F07D1094B1B6804330A481946FEF7BD
S2140054209DFD07E0084B1A683B681344FB60F8686C
S21400543000F0F6FA1037BD4680BD00BF407401206C
S2140054409C7501207C7501209875012080B588B078
S21400545000AFF860B9607A60FB68002B09D14FF0A6
S214005460500383F31188BFF36F8FBFF34F8FBB6179
S214005470FEE7234B1B68002B09D14FF0500383F344
S2140054801188BFF36F8FBFF34F8F7B61FEE71D4B15
S2140054901B68BA6842F000429A611A4B1B681833C0
S2140054A0F8681946FEF75AFD164B1B680433184673
S2140054B0FEF7B0FD0346002B0BD1124B1B68DB6AD0
S2140054C0012202FA03F3DA430F4B1B681A400E4B15
S2140054D01A607B68B3F1FF3F07D10A4B1B680433A1
S2140054E00A481946FEF73AFD07E0094B1A687B683A
S2140054F01344FB61F86900F093FA2037BD4680BD7F
S214005500B8750120407401209C7501207C7501202F
S2140055109875012080B586B000AFF860B9607A60F3
S214005520FB68002B09D14FF0500383F31188BFF3BB
S2140055306F8FBFF34F8F3B61FEE7194B1B68183325
S214005540F8681946FEF70AFD154B1B680433184623
S214005550FEF760FD0346002B0BD1114B1B68DB6A80
S214005560012202FA03F3DA430E4B1B681A400D4B76
S2140055701A607B68012B07D1094B1B6804330A4865
S2140055801946FEF7EBFC07E0084B1A68BB681344A5
S2140055907B61786900F044FA1837BD4680BD00BFCD
S2140055A0407401209C7501207C75012098750120AF
S2140055B080B586B000AF78607B68DB68DB683B61EF
S2140055C03B69002B09D14FF0500383F31188BFF3DA
S2140055D06F8FBFF34F8FFB60FEE73B6918331846AB
S2140055E0FEF718FD1D4B1B68002B1CD13B690433CE
S2140055F01846FEF70FFD3B69DB6A01229A40184BFE
S2140056001B681A43164B1A603B69DA6A13469B00FE
S21400561013449B00134A1A443B6904331046194648
S214005620FEF79CFC05E03B6918330F481946FEF769
S21400563095FC3B69DA6A0D4B1B68DB6A9A4205D912
S21400564001237B610A4B01221A6001E000237B6183
S2140056507B6918461837BD4680BD00BFB875012067
S2140056609C7501204474012050750120407401206F
S214005670A875012080B586B000AF786039602B4BE6
S2140056801B68002B09D14FF0500383F31188BFF33A
S2140056906F8FBFF34F8FFB60FEE73B6843F000421F
S2140056A07B681A607B68DB683B613B69002B09D12D
S2140056B04FF0500383F31188BFF36F8FBFF34F8F04
S2140056C0BB60FEE77868FEF7A5FC3B690433184626
S2140056D0FEF7A0FC3B69DB6A01229A40144B1B686C
S2140056E01A43134B1A603B69DA6A13469B0013444D
S2140056F09B00104A1A443B69043310461946FEF7CD
S2140057002DFC3B69DA6A0C4B1B68DB6A9A4205D9AA
S21400571001237B61094B01221A6001E000237B61B3
S2140057207B6918461837BD4680BD00BFB875012096
S2140057309C7501204474012040740120A875012046
S21400574080B485B000AF78607B68002B09D14FF03D
S214005750500383F31188BFF36F8FBFF34F8FFB6047
S214005760FEE7064B1A687B681A60054B1A687B686A
S2140057705A601437BD465DF8047B7047AC7501204F
S2140057809875012080B586B000AF786039607B6878
S214005790002B09D14FF0500383F31188BFF36F8FAE
S2140057A0BFF34F8FFB60FEE73B68002B09D14FF03D
S2140057B0500383F31188BFF36F8FBFF34F8FBB6027
S2140057C0FEE7FDF7ABFE1C4B1B683B613B681B68A6
S2140057D0B3F1FF3F02D100237B6126E07B681A68A5
S2140057E0164B1B689A4207D07B685A683B699A42F8
S2140057F002D801237B6118E07B685B683A69D21A9D
S2140058003B681B689A420ED23B681A687B685968E8
S2140058103B69CB1A1A443B681A607868FFF790FF1A
S21400582000237B6101E001237B61FDF7A5FE7B6918
S21400583018461837BD4680BD98750120AC75012006
S21400584080B400AF034B01221A60BD465DF8047BAE
S214005850704700BFA875012080B582B000AF7860A1
S21400586000F0A4F8064B1B68012B07D9054B4FF038
S21400587080521A60BFF34F8FBFF36F8FF0E700BF01
S2140058804474012004ED00E080B586B000AFF860F7
S214005890B9607A603B6000237B6112E0BA687B697E
S2140058A013441A78F9687B690B4430331A71BA6866
S2140058B07B6913441B78002B00D105E07B6901331C
S2140058C07B617B69092BE9D9FB68002283F83D20C0
S2140058D07B680A2B01D90A237B60FB687A68DA6248
S2140058E0FB687A689A64FB680022DA64FB68043313
S2140058F01846FEF727FBFB6818331846FEF722FB10
S214005900FB68FA681A617B68C3F10B02FB689A6150
S214005910FB68FA685A62FB6800221A65FB68002278
S2140059205A65FB68002283F858201837BD4680BDAC
S21400593080B582B000AF00237B600CE07A68134627
S2140059409B0013449B00114A13441846FEF7DAFAEC
S2140059507B6801337B607B680A2BEFD90C48FEF727
S214005960D1FA0C48FEF7CEFA0B48FEF7CBFA0B48F6
S214005970FEF7C8FA0A48FEF7C5FA0A4B044A1A6048
S214005980094B044A1A600837BD4680BD447401209E
S21400599020750120347501205075012064750120A2
S2140059A07C750120487501204C75012080B582B0B9
S2140059B000AF28E0FFF700FB164B1B68002B14BF58
S2140059C000230123DBB27B60FFF704FB7B68002B20
S2140059D019D1FDF7A3FD0F4BDB68DB683B603B6826
S2140059E004331846FEF716FB0B4B1B685A1E0A4B71
S2140059F01A600A4B1B685A1E084B1A60FDF7BCFD5E
S214005A00386800F07BF8054B1B68002BD2D10837AE
S214005A10BD4680BD6475012094750120787501200F
S214005A2080B582B000AF7860134B1B687A685A6006
S214005A30124B1B687A689A4209D2114B1A680E4BB1
S214005A401B68043310461946FEF7ACFA10E00D4BFF
S214005A501A68094B1B68043310461946FEF7A2FA6B
S214005A60094B1B687A689A4202D2074B7A681A601A
S214005A700837BD4680BD00BF4074012098750120E0
S214005A804C75012048750120B475012080B584B09E
S214005A9000AF03463960FB803B68002B06D1FB88CD
S214005AA09B001846FEF75AF8034600E03B68BB60CA
S214005AB0BB68002B0ED05C20FEF750F8F860FB6841
S214005AC0002B03D0FB68BA681A6305E0B868FEF7D7
S214005AD007F901E00023FB60FB68002B08D0FB6899
S214005AE01A6BFB889B001046A5211A4607F016FE87
S214005AF0FB6818461037BD4680BD00BF80B582B033
S214005B0000AF78607B681B6B1846FEF7E9F878688C
S214005B10FEF7E6F80837BD4680BD00BF80B483B008
